{
	"35_Ether_SendTransferCall.sol": {
		"sendEthdayanamicAddressWithdaynamicAmount": {
			"abi": [
				{
					"anonymous": false,
					"inputs": [
						{
							"indexed": false,
							"internalType": "uint256",
							"name": "value",
							"type": "uint256"
						}
					],
					"name": "log",
					"type": "event"
				},
				{
					"inputs": [
						{
							"internalType": "address payable",
							"name": "getter",
							"type": "address"
						}
					],
					"name": "CALLetherTOaddress",
					"outputs": [],
					"stateMutability": "payable",
					"type": "function"
				},
				{
					"inputs": [
						{
							"internalType": "address payable",
							"name": "getter",
							"type": "address"
						}
					],
					"name": "SENDetherTOaddress",
					"outputs": [],
					"stateMutability": "payable",
					"type": "function"
				},
				{
					"inputs": [
						{
							"internalType": "address payable",
							"name": "getter",
							"type": "address"
						}
					],
					"name": "TRANSFERetherTOaddress",
					"outputs": [],
					"stateMutability": "payable",
					"type": "function"
				},
				{
					"inputs": [],
					"name": "checkBalane",
					"outputs": [
						{
							"internalType": "uint256",
							"name": "",
							"type": "uint256"
						}
					],
					"stateMutability": "view",
					"type": "function"
				},
				{
					"stateMutability": "payable",
					"type": "receive"
				}
			],
			"devdoc": {
				"kind": "dev",
				"methods": {},
				"version": 1
			},
			"evm": {
				"assembly": "    /* \"35_Ether_SendTransferCall.sol\":3040:4075  contract sendEthdayanamicAddressWithdaynamicAmount {... */\n  mstore(0x40, 0x80)\n  callvalue\n  dup1\n  iszero\n  tag_1\n  jumpi\n  0x00\n  dup1\n  revert\ntag_1:\n  pop\n  dataSize(sub_0)\n  dup1\n  dataOffset(sub_0)\n  0x00\n  codecopy\n  0x00\n  return\nstop\n\nsub_0: assembly {\n        /* \"35_Ether_SendTransferCall.sol\":3040:4075  contract sendEthdayanamicAddressWithdaynamicAmount {... */\n      mstore(0x40, 0x80)\n      jumpi(tag_1, lt(calldatasize, 0x04))\n      shr(0xe0, calldataload(0x00))\n      dup1\n      0x16453c41\n      eq\n      tag_3\n      jumpi\n      dup1\n      0xa9231569\n      eq\n      tag_4\n      jumpi\n      dup1\n      0xf43728c9\n      eq\n      tag_5\n      jumpi\n      dup1\n      0xfc32b81b\n      eq\n      tag_6\n      jumpi\n      jump(tag_2)\n    tag_1:\n      jumpi(tag_2, calldatasize)\n      stop\n    tag_2:\n      0x00\n      dup1\n      revert\n        /* \"35_Ether_SendTransferCall.sol\":3720:4071  function CALLetherTOaddress(address payable getter) public payable {... */\n    tag_3:\n      tag_9\n      0x04\n      dup1\n      calldatasize\n      sub\n      dup2\n      add\n      swap1\n      tag_10\n      swap2\n      swap1\n      tag_11\n      jump\t// in\n    tag_10:\n      tag_12\n      jump\t// in\n    tag_9:\n      stop\n        /* \"35_Ether_SendTransferCall.sol\":3209:3305  function checkBalane() public view returns(uint) {... */\n    tag_4:\n      callvalue\n      dup1\n      iszero\n      tag_13\n      jumpi\n      0x00\n      dup1\n      revert\n    tag_13:\n      pop\n      tag_14\n      tag_15\n      jump\t// in\n    tag_14:\n      mload(0x40)\n      tag_16\n      swap2\n      swap1\n      tag_17\n      jump\t// in\n    tag_16:\n      mload(0x40)\n      dup1\n      swap2\n      sub\n      swap1\n      return\n        /* \"35_Ether_SendTransferCall.sol\":3564:3712  function TRANSFERetherTOaddress(address payable getter) public payable {... */\n    tag_5:\n      tag_18\n      0x04\n      dup1\n      calldatasize\n      sub\n      dup2\n      add\n      swap1\n      tag_19\n      swap2\n      swap1\n      tag_11\n      jump\t// in\n    tag_19:\n      tag_20\n      jump\t// in\n    tag_18:\n      stop\n        /* \"35_Ether_SendTransferCall.sol\":3357:3556  function SENDetherTOaddress(address payable getter) public payable {... */\n    tag_6:\n      tag_21\n      0x04\n      dup1\n      calldatasize\n      sub\n      dup2\n      add\n      swap1\n      tag_22\n      swap2\n      swap1\n      tag_11\n      jump\t// in\n    tag_22:\n      tag_23\n      jump\t// in\n    tag_21:\n      stop\n        /* \"35_Ether_SendTransferCall.sol\":3720:4071  function CALLetherTOaddress(address payable getter) public payable {... */\n    tag_12:\n        /* \"35_Ether_SendTransferCall.sol\":3804:3818  log(msg.value) */\n      0xf82c50f1848136e6c140b186ea0c768b7deda5efffe42c25e96336a90b26c744\n        /* \"35_Ether_SendTransferCall.sol\":3808:3817  msg.value */\n      callvalue\n        /* \"35_Ether_SendTransferCall.sol\":3804:3818  log(msg.value) */\n      mload(0x40)\n      tag_25\n      swap2\n      swap1\n      tag_17\n      jump\t// in\n    tag_25:\n      mload(0x40)\n      dup1\n      swap2\n      sub\n      swap1\n      log1\n        /* \"35_Ether_SendTransferCall.sol\":3966:3975  bool sent */\n      0x00\n        /* \"35_Ether_SendTransferCall.sol\":3980:3986  getter */\n      dup2\n        /* \"35_Ether_SendTransferCall.sol\":3980:3991  getter.call */\n      0xffffffffffffffffffffffffffffffffffffffff\n      and\n        /* \"35_Ether_SendTransferCall.sol\":3998:4007  msg.value */\n      callvalue\n        /* \"35_Ether_SendTransferCall.sol\":3980:4012  getter.call{value:msg.value}(\"\") */\n      mload(0x40)\n      tag_26\n      swap1\n      tag_27\n      jump\t// in\n    tag_26:\n      0x00\n      mload(0x40)\n      dup1\n      dup4\n      sub\n      dup2\n      dup6\n      dup8\n      gas\n      call\n      swap3\n      pop\n      pop\n      pop\n      returndatasize\n      dup1\n      0x00\n      dup2\n      eq\n      tag_30\n      jumpi\n      mload(0x40)\n      swap2\n      pop\n      and(add(returndatasize, 0x3f), not(0x1f))\n      dup3\n      add\n      0x40\n      mstore\n      returndatasize\n      dup3\n      mstore\n      returndatasize\n      0x00\n      0x20\n      dup5\n      add\n      returndatacopy\n      jump(tag_29)\n    tag_30:\n      0x60\n      swap2\n      pop\n    tag_29:\n      pop\n        /* \"35_Ether_SendTransferCall.sol\":3965:4012  (bool sent,) = getter.call{value:msg.value}(\"\") */\n      pop\n      swap1\n      pop\n        /* \"35_Ether_SendTransferCall.sol\":4032:4036  sent */\n      dup1\n        /* \"35_Ether_SendTransferCall.sol\":4024:4063  require(sent, \"transaction is failled\") */\n      tag_31\n      jumpi\n      mload(0x40)\n      0x08c379a000000000000000000000000000000000000000000000000000000000\n      dup2\n      mstore\n      0x04\n      add\n      tag_32\n      swap1\n      tag_33\n      jump\t// in\n    tag_32:\n      mload(0x40)\n      dup1\n      swap2\n      sub\n      swap1\n      revert\n    tag_31:\n        /* \"35_Ether_SendTransferCall.sol\":3787:4071  {... */\n      pop\n        /* \"35_Ether_SendTransferCall.sol\":3720:4071  function CALLetherTOaddress(address payable getter) public payable {... */\n      pop\n      jump\t// out\n        /* \"35_Ether_SendTransferCall.sol\":3209:3305  function checkBalane() public view returns(uint) {... */\n    tag_15:\n        /* \"35_Ether_SendTransferCall.sol\":3252:3256  uint */\n      0x00\n        /* \"35_Ether_SendTransferCall.sol\":3276:3297  address(this).balance */\n      selfbalance\n        /* \"35_Ether_SendTransferCall.sol\":3269:3297  return address(this).balance */\n      swap1\n      pop\n        /* \"35_Ether_SendTransferCall.sol\":3209:3305  function checkBalane() public view returns(uint) {... */\n      swap1\n      jump\t// out\n        /* \"35_Ether_SendTransferCall.sol\":3564:3712  function TRANSFERetherTOaddress(address payable getter) public payable {... */\n    tag_20:\n        /* \"35_Ether_SendTransferCall.sol\":3652:3666  log(msg.value) */\n      0xf82c50f1848136e6c140b186ea0c768b7deda5efffe42c25e96336a90b26c744\n        /* \"35_Ether_SendTransferCall.sol\":3656:3665  msg.value */\n      callvalue\n        /* \"35_Ether_SendTransferCall.sol\":3652:3666  log(msg.value) */\n      mload(0x40)\n      tag_36\n      swap2\n      swap1\n      tag_17\n      jump\t// in\n    tag_36:\n      mload(0x40)\n      dup1\n      swap2\n      sub\n      swap1\n      log1\n        /* \"35_Ether_SendTransferCall.sol\":3678:3684  getter */\n      dup1\n        /* \"35_Ether_SendTransferCall.sol\":3678:3693  getter.transfer */\n      0xffffffffffffffffffffffffffffffffffffffff\n      and\n        /* \"35_Ether_SendTransferCall.sol\":3678:3704  getter.transfer(msg.value) */\n      0x08fc\n        /* \"35_Ether_SendTransferCall.sol\":3694:3703  msg.value */\n      callvalue\n        /* \"35_Ether_SendTransferCall.sol\":3678:3704  getter.transfer(msg.value) */\n      swap1\n      dup2\n      iszero\n      mul\n      swap1\n      mload(0x40)\n      0x00\n      mload(0x40)\n      dup1\n      dup4\n      sub\n      dup2\n      dup6\n      dup9\n      dup9\n      call\n      swap4\n      pop\n      pop\n      pop\n      pop\n      iszero\n      dup1\n      iszero\n      tag_38\n      jumpi\n      returndatasize\n      0x00\n      dup1\n      returndatacopy\n      revert(0x00, returndatasize)\n    tag_38:\n      pop\n        /* \"35_Ether_SendTransferCall.sol\":3564:3712  function TRANSFERetherTOaddress(address payable getter) public payable {... */\n      pop\n      jump\t// out\n        /* \"35_Ether_SendTransferCall.sol\":3357:3556  function SENDetherTOaddress(address payable getter) public payable {... */\n    tag_23:\n        /* \"35_Ether_SendTransferCall.sol\":3440:3454  log(msg.value) */\n      0xf82c50f1848136e6c140b186ea0c768b7deda5efffe42c25e96336a90b26c744\n        /* \"35_Ether_SendTransferCall.sol\":3444:3453  msg.value */\n      callvalue\n        /* \"35_Ether_SendTransferCall.sol\":3440:3454  log(msg.value) */\n      mload(0x40)\n      tag_40\n      swap2\n      swap1\n      tag_17\n      jump\t// in\n    tag_40:\n      mload(0x40)\n      dup1\n      swap2\n      sub\n      swap1\n      log1\n        /* \"35_Ether_SendTransferCall.sol\":3464:3473  bool sent */\n      0x00\n        /* \"35_Ether_SendTransferCall.sol\":3477:3483  getter */\n      dup2\n        /* \"35_Ether_SendTransferCall.sol\":3477:3488  getter.send */\n      0xffffffffffffffffffffffffffffffffffffffff\n      and\n        /* \"35_Ether_SendTransferCall.sol\":3477:3499  getter.send(msg.value) */\n      0x08fc\n        /* \"35_Ether_SendTransferCall.sol\":3489:3498  msg.value */\n      callvalue\n        /* \"35_Ether_SendTransferCall.sol\":3477:3499  getter.send(msg.value) */\n      swap1\n      dup2\n      iszero\n      mul\n      swap1\n      mload(0x40)\n      0x00\n      mload(0x40)\n      dup1\n      dup4\n      sub\n      dup2\n      dup6\n      dup9\n      dup9\n      call\n      swap4\n      pop\n      pop\n      pop\n      pop\n        /* \"35_Ether_SendTransferCall.sol\":3464:3499  bool sent =  getter.send(msg.value) */\n      swap1\n      pop\n        /* \"35_Ether_SendTransferCall.sol\":3517:3521  sent */\n      dup1\n        /* \"35_Ether_SendTransferCall.sol\":3509:3548  require(sent, \"transaction is failled\") */\n      tag_42\n      jumpi\n      mload(0x40)\n      0x08c379a000000000000000000000000000000000000000000000000000000000\n      dup2\n      mstore\n      0x04\n      add\n      tag_43\n      swap1\n      tag_33\n      jump\t// in\n    tag_43:\n      mload(0x40)\n      dup1\n      swap2\n      sub\n      swap1\n      revert\n    tag_42:\n        /* \"35_Ether_SendTransferCall.sol\":3424:3556  {... */\n      pop\n        /* \"35_Ether_SendTransferCall.sol\":3357:3556  function SENDetherTOaddress(address payable getter) public payable {... */\n      pop\n      jump\t// out\n        /* \"#utility.yul\":88:205   */\n    tag_45:\n        /* \"#utility.yul\":197:198   */\n      0x00\n        /* \"#utility.yul\":194:195   */\n      dup1\n        /* \"#utility.yul\":187:199   */\n      revert\n        /* \"#utility.yul\":334:460   */\n    tag_47:\n        /* \"#utility.yul\":371:378   */\n      0x00\n        /* \"#utility.yul\":411:453   */\n      0xffffffffffffffffffffffffffffffffffffffff\n        /* \"#utility.yul\":404:409   */\n      dup3\n        /* \"#utility.yul\":400:454   */\n      and\n        /* \"#utility.yul\":389:454   */\n      swap1\n      pop\n        /* \"#utility.yul\":334:460   */\n      swap2\n      swap1\n      pop\n      jump\t// out\n        /* \"#utility.yul\":466:570   */\n    tag_48:\n        /* \"#utility.yul\":511:518   */\n      0x00\n        /* \"#utility.yul\":540:564   */\n      tag_65\n        /* \"#utility.yul\":558:563   */\n      dup3\n        /* \"#utility.yul\":540:564   */\n      tag_47\n      jump\t// in\n    tag_65:\n        /* \"#utility.yul\":529:564   */\n      swap1\n      pop\n        /* \"#utility.yul\":466:570   */\n      swap2\n      swap1\n      pop\n      jump\t// out\n        /* \"#utility.yul\":576:714   */\n    tag_49:\n        /* \"#utility.yul\":657:689   */\n      tag_67\n        /* \"#utility.yul\":683:688   */\n      dup2\n        /* \"#utility.yul\":657:689   */\n      tag_48\n      jump\t// in\n    tag_67:\n        /* \"#utility.yul\":650:655   */\n      dup2\n        /* \"#utility.yul\":647:690   */\n      eq\n        /* \"#utility.yul\":637:708   */\n      tag_68\n      jumpi\n        /* \"#utility.yul\":704:705   */\n      0x00\n        /* \"#utility.yul\":701:702   */\n      dup1\n        /* \"#utility.yul\":694:706   */\n      revert\n        /* \"#utility.yul\":637:708   */\n    tag_68:\n        /* \"#utility.yul\":576:714   */\n      pop\n      jump\t// out\n        /* \"#utility.yul\":720:875   */\n    tag_50:\n        /* \"#utility.yul\":774:779   */\n      0x00\n        /* \"#utility.yul\":812:818   */\n      dup2\n        /* \"#utility.yul\":799:819   */\n      calldataload\n        /* \"#utility.yul\":790:819   */\n      swap1\n      pop\n        /* \"#utility.yul\":828:869   */\n      tag_70\n        /* \"#utility.yul\":863:868   */\n      dup2\n        /* \"#utility.yul\":828:869   */\n      tag_49\n      jump\t// in\n    tag_70:\n        /* \"#utility.yul\":720:875   */\n      swap3\n      swap2\n      pop\n      pop\n      jump\t// out\n        /* \"#utility.yul\":881:1226   */\n    tag_11:\n        /* \"#utility.yul\":948:954   */\n      0x00\n        /* \"#utility.yul\":997:999   */\n      0x20\n        /* \"#utility.yul\":985:994   */\n      dup3\n        /* \"#utility.yul\":976:983   */\n      dup5\n        /* \"#utility.yul\":972:995   */\n      sub\n        /* \"#utility.yul\":968:1000   */\n      slt\n        /* \"#utility.yul\":965:1084   */\n      iszero\n      tag_72\n      jumpi\n        /* \"#utility.yul\":1003:1082   */\n      tag_73\n      tag_45\n      jump\t// in\n    tag_73:\n        /* \"#utility.yul\":965:1084   */\n    tag_72:\n        /* \"#utility.yul\":1123:1124   */\n      0x00\n        /* \"#utility.yul\":1148:1209   */\n      tag_74\n        /* \"#utility.yul\":1201:1208   */\n      dup5\n        /* \"#utility.yul\":1192:1198   */\n      dup3\n        /* \"#utility.yul\":1181:1190   */\n      dup6\n        /* \"#utility.yul\":1177:1199   */\n      add\n        /* \"#utility.yul\":1148:1209   */\n      tag_50\n      jump\t// in\n    tag_74:\n        /* \"#utility.yul\":1138:1209   */\n      swap2\n      pop\n        /* \"#utility.yul\":1094:1219   */\n      pop\n        /* \"#utility.yul\":881:1226   */\n      swap3\n      swap2\n      pop\n      pop\n      jump\t// out\n        /* \"#utility.yul\":1232:1309   */\n    tag_51:\n        /* \"#utility.yul\":1269:1276   */\n      0x00\n        /* \"#utility.yul\":1298:1303   */\n      dup2\n        /* \"#utility.yul\":1287:1303   */\n      swap1\n      pop\n        /* \"#utility.yul\":1232:1309   */\n      swap2\n      swap1\n      pop\n      jump\t// out\n        /* \"#utility.yul\":1315:1433   */\n    tag_52:\n        /* \"#utility.yul\":1402:1426   */\n      tag_77\n        /* \"#utility.yul\":1420:1425   */\n      dup2\n        /* \"#utility.yul\":1402:1426   */\n      tag_51\n      jump\t// in\n    tag_77:\n        /* \"#utility.yul\":1397:1400   */\n      dup3\n        /* \"#utility.yul\":1390:1427   */\n      mstore\n        /* \"#utility.yul\":1315:1433   */\n      pop\n      pop\n      jump\t// out\n        /* \"#utility.yul\":1439:1661   */\n    tag_17:\n        /* \"#utility.yul\":1532:1536   */\n      0x00\n        /* \"#utility.yul\":1570:1572   */\n      0x20\n        /* \"#utility.yul\":1559:1568   */\n      dup3\n        /* \"#utility.yul\":1555:1573   */\n      add\n        /* \"#utility.yul\":1547:1573   */\n      swap1\n      pop\n        /* \"#utility.yul\":1583:1654   */\n      tag_79\n        /* \"#utility.yul\":1651:1652   */\n      0x00\n        /* \"#utility.yul\":1640:1649   */\n      dup4\n        /* \"#utility.yul\":1636:1653   */\n      add\n        /* \"#utility.yul\":1627:1633   */\n      dup5\n        /* \"#utility.yul\":1583:1654   */\n      tag_52\n      jump\t// in\n    tag_79:\n        /* \"#utility.yul\":1439:1661   */\n      swap3\n      swap2\n      pop\n      pop\n      jump\t// out\n        /* \"#utility.yul\":1667:1814   */\n    tag_53:\n        /* \"#utility.yul\":1768:1779   */\n      0x00\n        /* \"#utility.yul\":1805:1808   */\n      dup2\n        /* \"#utility.yul\":1790:1808   */\n      swap1\n      pop\n        /* \"#utility.yul\":1667:1814   */\n      swap3\n      swap2\n      pop\n      pop\n      jump\t// out\n        /* \"#utility.yul\":1820:1934   */\n    tag_54:\n      pop\n      jump\t// out\n        /* \"#utility.yul\":1940:2338   */\n    tag_55:\n        /* \"#utility.yul\":2099:2102   */\n      0x00\n        /* \"#utility.yul\":2120:2203   */\n      tag_83\n        /* \"#utility.yul\":2201:2202   */\n      0x00\n        /* \"#utility.yul\":2196:2199   */\n      dup4\n        /* \"#utility.yul\":2120:2203   */\n      tag_53\n      jump\t// in\n    tag_83:\n        /* \"#utility.yul\":2113:2203   */\n      swap2\n      pop\n        /* \"#utility.yul\":2212:2305   */\n      tag_84\n        /* \"#utility.yul\":2301:2304   */\n      dup3\n        /* \"#utility.yul\":2212:2305   */\n      tag_54\n      jump\t// in\n    tag_84:\n        /* \"#utility.yul\":2330:2331   */\n      0x00\n        /* \"#utility.yul\":2325:2328   */\n      dup3\n        /* \"#utility.yul\":2321:2332   */\n      add\n        /* \"#utility.yul\":2314:2332   */\n      swap1\n      pop\n        /* \"#utility.yul\":1940:2338   */\n      swap2\n      swap1\n      pop\n      jump\t// out\n        /* \"#utility.yul\":2344:2723   */\n    tag_27:\n        /* \"#utility.yul\":2528:2531   */\n      0x00\n        /* \"#utility.yul\":2550:2697   */\n      tag_86\n        /* \"#utility.yul\":2693:2696   */\n      dup3\n        /* \"#utility.yul\":2550:2697   */\n      tag_55\n      jump\t// in\n    tag_86:\n        /* \"#utility.yul\":2543:2697   */\n      swap2\n      pop\n        /* \"#utility.yul\":2714:2717   */\n      dup2\n        /* \"#utility.yul\":2707:2717   */\n      swap1\n      pop\n        /* \"#utility.yul\":2344:2723   */\n      swap2\n      swap1\n      pop\n      jump\t// out\n        /* \"#utility.yul\":2729:2898   */\n    tag_56:\n        /* \"#utility.yul\":2813:2824   */\n      0x00\n        /* \"#utility.yul\":2847:2853   */\n      dup3\n        /* \"#utility.yul\":2842:2845   */\n      dup3\n        /* \"#utility.yul\":2835:2854   */\n      mstore\n        /* \"#utility.yul\":2887:2891   */\n      0x20\n        /* \"#utility.yul\":2882:2885   */\n      dup3\n        /* \"#utility.yul\":2878:2892   */\n      add\n        /* \"#utility.yul\":2863:2892   */\n      swap1\n      pop\n        /* \"#utility.yul\":2729:2898   */\n      swap3\n      swap2\n      pop\n      pop\n      jump\t// out\n        /* \"#utility.yul\":2904:3076   */\n    tag_57:\n        /* \"#utility.yul\":3044:3068   */\n      0x7472616e73616374696f6e206973206661696c6c656400000000000000000000\n        /* \"#utility.yul\":3040:3041   */\n      0x00\n        /* \"#utility.yul\":3032:3038   */\n      dup3\n        /* \"#utility.yul\":3028:3042   */\n      add\n        /* \"#utility.yul\":3021:3069   */\n      mstore\n        /* \"#utility.yul\":2904:3076   */\n      pop\n      jump\t// out\n        /* \"#utility.yul\":3082:3448   */\n    tag_58:\n        /* \"#utility.yul\":3224:3227   */\n      0x00\n        /* \"#utility.yul\":3245:3312   */\n      tag_90\n        /* \"#utility.yul\":3309:3311   */\n      0x16\n        /* \"#utility.yul\":3304:3307   */\n      dup4\n        /* \"#utility.yul\":3245:3312   */\n      tag_56\n      jump\t// in\n    tag_90:\n        /* \"#utility.yul\":3238:3312   */\n      swap2\n      pop\n        /* \"#utility.yul\":3321:3414   */\n      tag_91\n        /* \"#utility.yul\":3410:3413   */\n      dup3\n        /* \"#utility.yul\":3321:3414   */\n      tag_57\n      jump\t// in\n    tag_91:\n        /* \"#utility.yul\":3439:3441   */\n      0x20\n        /* \"#utility.yul\":3434:3437   */\n      dup3\n        /* \"#utility.yul\":3430:3442   */\n      add\n        /* \"#utility.yul\":3423:3442   */\n      swap1\n      pop\n        /* \"#utility.yul\":3082:3448   */\n      swap2\n      swap1\n      pop\n      jump\t// out\n        /* \"#utility.yul\":3454:3873   */\n    tag_33:\n        /* \"#utility.yul\":3620:3624   */\n      0x00\n        /* \"#utility.yul\":3658:3660   */\n      0x20\n        /* \"#utility.yul\":3647:3656   */\n      dup3\n        /* \"#utility.yul\":3643:3661   */\n      add\n        /* \"#utility.yul\":3635:3661   */\n      swap1\n      pop\n        /* \"#utility.yul\":3707:3716   */\n      dup2\n        /* \"#utility.yul\":3701:3705   */\n      dup2\n        /* \"#utility.yul\":3697:3717   */\n      sub\n        /* \"#utility.yul\":3693:3694   */\n      0x00\n        /* \"#utility.yul\":3682:3691   */\n      dup4\n        /* \"#utility.yul\":3678:3695   */\n      add\n        /* \"#utility.yul\":3671:3718   */\n      mstore\n        /* \"#utility.yul\":3735:3866   */\n      tag_93\n        /* \"#utility.yul\":3861:3865   */\n      dup2\n        /* \"#utility.yul\":3735:3866   */\n      tag_58\n      jump\t// in\n    tag_93:\n        /* \"#utility.yul\":3727:3866   */\n      swap1\n      pop\n        /* \"#utility.yul\":3454:3873   */\n      swap2\n      swap1\n      pop\n      jump\t// out\n\n    auxdata: 0xa26469706673582212207f81e1e6ff2342a9e735cb78d1bcdeb2ccdd350c042631f777fa9c57639bb43664736f6c63430008120033\n}\n",
				"bytecode": {
					"linkReferences": {},
					"object": "608060405234801561001057600080fd5b506104af806100206000396000f3fe6080604052600436106100435760003560e01c806316453c411461004f578063a92315691461006b578063f43728c914610096578063fc32b81b146100b25761004a565b3661004a57005b600080fd5b61006960048036038101906100649190610355565b6100ce565b005b34801561007757600080fd5b506100806101b5565b60405161008d919061039b565b60405180910390f35b6100b060048036038101906100ab9190610355565b6101bd565b005b6100cc60048036038101906100c79190610355565b61023e565b005b7ff82c50f1848136e6c140b186ea0c768b7deda5efffe42c25e96336a90b26c744346040516100fd919061039b565b60405180910390a160008173ffffffffffffffffffffffffffffffffffffffff163460405161012b906103e7565b60006040518083038185875af1925050503d8060008114610168576040519150601f19603f3d011682016040523d82523d6000602084013e61016d565b606091505b50509050806101b1576040517f08c379a00000000000000000000000000000000000000000000000000000000081526004016101a890610459565b60405180910390fd5b5050565b600047905090565b7ff82c50f1848136e6c140b186ea0c768b7deda5efffe42c25e96336a90b26c744346040516101ec919061039b565b60405180910390a18073ffffffffffffffffffffffffffffffffffffffff166108fc349081150290604051600060405180830381858888f1935050505015801561023a573d6000803e3d6000fd5b5050565b7ff82c50f1848136e6c140b186ea0c768b7deda5efffe42c25e96336a90b26c7443460405161026d919061039b565b60405180910390a160008173ffffffffffffffffffffffffffffffffffffffff166108fc349081150290604051600060405180830381858888f193505050509050806102ee576040517f08c379a00000000000000000000000000000000000000000000000000000000081526004016102e590610459565b60405180910390fd5b5050565b600080fd5b600073ffffffffffffffffffffffffffffffffffffffff82169050919050565b6000610322826102f7565b9050919050565b61033281610317565b811461033d57600080fd5b50565b60008135905061034f81610329565b92915050565b60006020828403121561036b5761036a6102f2565b5b600061037984828501610340565b91505092915050565b6000819050919050565b61039581610382565b82525050565b60006020820190506103b0600083018461038c565b92915050565b600081905092915050565b50565b60006103d16000836103b6565b91506103dc826103c1565b600082019050919050565b60006103f2826103c4565b9150819050919050565b600082825260208201905092915050565b7f7472616e73616374696f6e206973206661696c6c656400000000000000000000600082015250565b60006104436016836103fc565b915061044e8261040d565b602082019050919050565b6000602082019050818103600083015261047281610436565b905091905056fea26469706673582212207f81e1e6ff2342a9e735cb78d1bcdeb2ccdd350c042631f777fa9c57639bb43664736f6c63430008120033",
					"opcodes": "PUSH1 0x80 PUSH1 0x40 MSTORE CALLVALUE DUP1 ISZERO PUSH2 0x10 JUMPI PUSH1 0x0 DUP1 REVERT JUMPDEST POP PUSH2 0x4AF DUP1 PUSH2 0x20 PUSH1 0x0 CODECOPY PUSH1 0x0 RETURN INVALID PUSH1 0x80 PUSH1 0x40 MSTORE PUSH1 0x4 CALLDATASIZE LT PUSH2 0x43 JUMPI PUSH1 0x0 CALLDATALOAD PUSH1 0xE0 SHR DUP1 PUSH4 0x16453C41 EQ PUSH2 0x4F JUMPI DUP1 PUSH4 0xA9231569 EQ PUSH2 0x6B JUMPI DUP1 PUSH4 0xF43728C9 EQ PUSH2 0x96 JUMPI DUP1 PUSH4 0xFC32B81B EQ PUSH2 0xB2 JUMPI PUSH2 0x4A JUMP JUMPDEST CALLDATASIZE PUSH2 0x4A JUMPI STOP JUMPDEST PUSH1 0x0 DUP1 REVERT JUMPDEST PUSH2 0x69 PUSH1 0x4 DUP1 CALLDATASIZE SUB DUP2 ADD SWAP1 PUSH2 0x64 SWAP2 SWAP1 PUSH2 0x355 JUMP JUMPDEST PUSH2 0xCE JUMP JUMPDEST STOP JUMPDEST CALLVALUE DUP1 ISZERO PUSH2 0x77 JUMPI PUSH1 0x0 DUP1 REVERT JUMPDEST POP PUSH2 0x80 PUSH2 0x1B5 JUMP JUMPDEST PUSH1 0x40 MLOAD PUSH2 0x8D SWAP2 SWAP1 PUSH2 0x39B JUMP JUMPDEST PUSH1 0x40 MLOAD DUP1 SWAP2 SUB SWAP1 RETURN JUMPDEST PUSH2 0xB0 PUSH1 0x4 DUP1 CALLDATASIZE SUB DUP2 ADD SWAP1 PUSH2 0xAB SWAP2 SWAP1 PUSH2 0x355 JUMP JUMPDEST PUSH2 0x1BD JUMP JUMPDEST STOP JUMPDEST PUSH2 0xCC PUSH1 0x4 DUP1 CALLDATASIZE SUB DUP2 ADD SWAP1 PUSH2 0xC7 SWAP2 SWAP1 PUSH2 0x355 JUMP JUMPDEST PUSH2 0x23E JUMP JUMPDEST STOP JUMPDEST PUSH32 0xF82C50F1848136E6C140B186EA0C768B7DEDA5EFFFE42C25E96336A90B26C744 CALLVALUE PUSH1 0x40 MLOAD PUSH2 0xFD SWAP2 SWAP1 PUSH2 0x39B JUMP JUMPDEST PUSH1 0x40 MLOAD DUP1 SWAP2 SUB SWAP1 LOG1 PUSH1 0x0 DUP2 PUSH20 0xFFFFFFFFFFFFFFFFFFFFFFFFFFFFFFFFFFFFFFFF AND CALLVALUE PUSH1 0x40 MLOAD PUSH2 0x12B SWAP1 PUSH2 0x3E7 JUMP JUMPDEST PUSH1 0x0 PUSH1 0x40 MLOAD DUP1 DUP4 SUB DUP2 DUP6 DUP8 GAS CALL SWAP3 POP POP POP RETURNDATASIZE DUP1 PUSH1 0x0 DUP2 EQ PUSH2 0x168 JUMPI PUSH1 0x40 MLOAD SWAP2 POP PUSH1 0x1F NOT PUSH1 0x3F RETURNDATASIZE ADD AND DUP3 ADD PUSH1 0x40 MSTORE RETURNDATASIZE DUP3 MSTORE RETURNDATASIZE PUSH1 0x0 PUSH1 0x20 DUP5 ADD RETURNDATACOPY PUSH2 0x16D JUMP JUMPDEST PUSH1 0x60 SWAP2 POP JUMPDEST POP POP SWAP1 POP DUP1 PUSH2 0x1B1 JUMPI PUSH1 0x40 MLOAD PUSH32 0x8C379A000000000000000000000000000000000000000000000000000000000 DUP2 MSTORE PUSH1 0x4 ADD PUSH2 0x1A8 SWAP1 PUSH2 0x459 JUMP JUMPDEST PUSH1 0x40 MLOAD DUP1 SWAP2 SUB SWAP1 REVERT JUMPDEST POP POP JUMP JUMPDEST PUSH1 0x0 SELFBALANCE SWAP1 POP SWAP1 JUMP JUMPDEST PUSH32 0xF82C50F1848136E6C140B186EA0C768B7DEDA5EFFFE42C25E96336A90B26C744 CALLVALUE PUSH1 0x40 MLOAD PUSH2 0x1EC SWAP2 SWAP1 PUSH2 0x39B JUMP JUMPDEST PUSH1 0x40 MLOAD DUP1 SWAP2 SUB SWAP1 LOG1 DUP1 PUSH20 0xFFFFFFFFFFFFFFFFFFFFFFFFFFFFFFFFFFFFFFFF AND PUSH2 0x8FC CALLVALUE SWAP1 DUP2 ISZERO MUL SWAP1 PUSH1 0x40 MLOAD PUSH1 0x0 PUSH1 0x40 MLOAD DUP1 DUP4 SUB DUP2 DUP6 DUP9 DUP9 CALL SWAP4 POP POP POP POP ISZERO DUP1 ISZERO PUSH2 0x23A JUMPI RETURNDATASIZE PUSH1 0x0 DUP1 RETURNDATACOPY RETURNDATASIZE PUSH1 0x0 REVERT JUMPDEST POP POP JUMP JUMPDEST PUSH32 0xF82C50F1848136E6C140B186EA0C768B7DEDA5EFFFE42C25E96336A90B26C744 CALLVALUE PUSH1 0x40 MLOAD PUSH2 0x26D SWAP2 SWAP1 PUSH2 0x39B JUMP JUMPDEST PUSH1 0x40 MLOAD DUP1 SWAP2 SUB SWAP1 LOG1 PUSH1 0x0 DUP2 PUSH20 0xFFFFFFFFFFFFFFFFFFFFFFFFFFFFFFFFFFFFFFFF AND PUSH2 0x8FC CALLVALUE SWAP1 DUP2 ISZERO MUL SWAP1 PUSH1 0x40 MLOAD PUSH1 0x0 PUSH1 0x40 MLOAD DUP1 DUP4 SUB DUP2 DUP6 DUP9 DUP9 CALL SWAP4 POP POP POP POP SWAP1 POP DUP1 PUSH2 0x2EE JUMPI PUSH1 0x40 MLOAD PUSH32 0x8C379A000000000000000000000000000000000000000000000000000000000 DUP2 MSTORE PUSH1 0x4 ADD PUSH2 0x2E5 SWAP1 PUSH2 0x459 JUMP JUMPDEST PUSH1 0x40 MLOAD DUP1 SWAP2 SUB SWAP1 REVERT JUMPDEST POP POP JUMP JUMPDEST PUSH1 0x0 DUP1 REVERT JUMPDEST PUSH1 0x0 PUSH20 0xFFFFFFFFFFFFFFFFFFFFFFFFFFFFFFFFFFFFFFFF DUP3 AND SWAP1 POP SWAP2 SWAP1 POP JUMP JUMPDEST PUSH1 0x0 PUSH2 0x322 DUP3 PUSH2 0x2F7 JUMP JUMPDEST SWAP1 POP SWAP2 SWAP1 POP JUMP JUMPDEST PUSH2 0x332 DUP2 PUSH2 0x317 JUMP JUMPDEST DUP2 EQ PUSH2 0x33D JUMPI PUSH1 0x0 DUP1 REVERT JUMPDEST POP JUMP JUMPDEST PUSH1 0x0 DUP2 CALLDATALOAD SWAP1 POP PUSH2 0x34F DUP2 PUSH2 0x329 JUMP JUMPDEST SWAP3 SWAP2 POP POP JUMP JUMPDEST PUSH1 0x0 PUSH1 0x20 DUP3 DUP5 SUB SLT ISZERO PUSH2 0x36B JUMPI PUSH2 0x36A PUSH2 0x2F2 JUMP JUMPDEST JUMPDEST PUSH1 0x0 PUSH2 0x379 DUP5 DUP3 DUP6 ADD PUSH2 0x340 JUMP JUMPDEST SWAP2 POP POP SWAP3 SWAP2 POP POP JUMP JUMPDEST PUSH1 0x0 DUP2 SWAP1 POP SWAP2 SWAP1 POP JUMP JUMPDEST PUSH2 0x395 DUP2 PUSH2 0x382 JUMP JUMPDEST DUP3 MSTORE POP POP JUMP JUMPDEST PUSH1 0x0 PUSH1 0x20 DUP3 ADD SWAP1 POP PUSH2 0x3B0 PUSH1 0x0 DUP4 ADD DUP5 PUSH2 0x38C JUMP JUMPDEST SWAP3 SWAP2 POP POP JUMP JUMPDEST PUSH1 0x0 DUP2 SWAP1 POP SWAP3 SWAP2 POP POP JUMP JUMPDEST POP JUMP JUMPDEST PUSH1 0x0 PUSH2 0x3D1 PUSH1 0x0 DUP4 PUSH2 0x3B6 JUMP JUMPDEST SWAP2 POP PUSH2 0x3DC DUP3 PUSH2 0x3C1 JUMP JUMPDEST PUSH1 0x0 DUP3 ADD SWAP1 POP SWAP2 SWAP1 POP JUMP JUMPDEST PUSH1 0x0 PUSH2 0x3F2 DUP3 PUSH2 0x3C4 JUMP JUMPDEST SWAP2 POP DUP2 SWAP1 POP SWAP2 SWAP1 POP JUMP JUMPDEST PUSH1 0x0 DUP3 DUP3 MSTORE PUSH1 0x20 DUP3 ADD SWAP1 POP SWAP3 SWAP2 POP POP JUMP JUMPDEST PUSH32 0x7472616E73616374696F6E206973206661696C6C656400000000000000000000 PUSH1 0x0 DUP3 ADD MSTORE POP JUMP JUMPDEST PUSH1 0x0 PUSH2 0x443 PUSH1 0x16 DUP4 PUSH2 0x3FC JUMP JUMPDEST SWAP2 POP PUSH2 0x44E DUP3 PUSH2 0x40D JUMP JUMPDEST PUSH1 0x20 DUP3 ADD SWAP1 POP SWAP2 SWAP1 POP JUMP JUMPDEST PUSH1 0x0 PUSH1 0x20 DUP3 ADD SWAP1 POP DUP2 DUP2 SUB PUSH1 0x0 DUP4 ADD MSTORE PUSH2 0x472 DUP2 PUSH2 0x436 JUMP JUMPDEST SWAP1 POP SWAP2 SWAP1 POP JUMP INVALID LOG2 PUSH5 0x6970667358 0x22 SLT KECCAK256 PUSH32 0x81E1E6FF2342A9E735CB78D1BCDEB2CCDD350C042631F777FA9C57639BB43664 PUSH20 0x6F6C634300081200330000000000000000000000 "
				},
				"gasEstimates": {
					"creation": {
						"codeDepositCost": "239800",
						"executionCost": "281",
						"totalCost": "240081"
					},
					"external": {
						"CALLetherTOaddress(address)": "infinite",
						"SENDetherTOaddress(address)": "infinite",
						"TRANSFERetherTOaddress(address)": "infinite",
						"checkBalane()": "339"
					}
				},
				"methodIdentifiers": {
					"CALLetherTOaddress(address)": "16453c41",
					"SENDetherTOaddress(address)": "fc32b81b",
					"TRANSFERetherTOaddress(address)": "f43728c9",
					"checkBalane()": "a9231569"
				}
			},
			"storageLayout": {
				"storage": [],
				"types": null
			},
			"userdoc": {
				"kind": "user",
				"methods": {},
				"version": 1
			}
		}
	}
}