{
	"37_datalocation.sol": {
		"dataLocation": {
			"abi": [
				{
					"inputs": [
						{
							"internalType": "string",
							"name": "",
							"type": "string"
						},
						{
							"internalType": "uint256[]",
							"name": "arr",
							"type": "uint256[]"
						}
					],
					"name": "CallData",
					"outputs": [],
					"stateMutability": "nonpayable",
					"type": "function"
				},
				{
					"inputs": [
						{
							"internalType": "string",
							"name": "",
							"type": "string"
						},
						{
							"internalType": "uint256[]",
							"name": "arr",
							"type": "uint256[]"
						}
					],
					"name": "Memory",
					"outputs": [],
					"stateMutability": "nonpayable",
					"type": "function"
				},
				{
					"inputs": [],
					"name": "Memory",
					"outputs": [],
					"stateMutability": "view",
					"type": "function"
				},
				{
					"inputs": [],
					"name": "Storage",
					"outputs": [],
					"stateMutability": "nonpayable",
					"type": "function"
				},
				{
					"inputs": [
						{
							"internalType": "uint256",
							"name": "",
							"type": "uint256"
						}
					],
					"name": "arr",
					"outputs": [
						{
							"internalType": "uint256",
							"name": "",
							"type": "uint256"
						}
					],
					"stateMutability": "view",
					"type": "function"
				},
				{
					"inputs": [
						{
							"internalType": "uint256[]",
							"name": "arr",
							"type": "uint256[]"
						}
					],
					"name": "getInCallData",
					"outputs": [],
					"stateMutability": "nonpayable",
					"type": "function"
				},
				{
					"inputs": [
						{
							"internalType": "uint256[]",
							"name": "arr",
							"type": "uint256[]"
						}
					],
					"name": "getInMemory",
					"outputs": [],
					"stateMutability": "nonpayable",
					"type": "function"
				}
			],
			"devdoc": {
				"kind": "dev",
				"methods": {},
				"version": 1
			},
			"evm": {
				"assembly": "    /* \"37_datalocation.sol\":600:1406  contract dataLocation {... */\n  mstore(0x40, 0x80)\n    /* \"37_datalocation.sol\":629:661  uint[] public arr = [1,3,7,9,11] */\n  mload(0x40)\n  dup1\n  0xa0\n  add\n  0x40\n  mstore\n  dup1\n    /* \"37_datalocation.sol\":650:651  1 */\n  0x01\n    /* \"37_datalocation.sol\":629:661  uint[] public arr = [1,3,7,9,11] */\n  0xff\n  and\n  dup2\n  mstore\n  0x20\n  add\n    /* \"37_datalocation.sol\":652:653  3 */\n  0x03\n    /* \"37_datalocation.sol\":629:661  uint[] public arr = [1,3,7,9,11] */\n  0xff\n  and\n  dup2\n  mstore\n  0x20\n  add\n    /* \"37_datalocation.sol\":654:655  7 */\n  0x07\n    /* \"37_datalocation.sol\":629:661  uint[] public arr = [1,3,7,9,11] */\n  0xff\n  and\n  dup2\n  mstore\n  0x20\n  add\n    /* \"37_datalocation.sol\":656:657  9 */\n  0x09\n    /* \"37_datalocation.sol\":629:661  uint[] public arr = [1,3,7,9,11] */\n  0xff\n  and\n  dup2\n  mstore\n  0x20\n  add\n    /* \"37_datalocation.sol\":658:660  11 */\n  0x0b\n    /* \"37_datalocation.sol\":629:661  uint[] public arr = [1,3,7,9,11] */\n  0xff\n  and\n  dup2\n  mstore\n  pop\n  0x00\n  swap1\n  0x05\n  tag_1\n  swap3\n  swap2\n  swap1\n  tag_2\n  jump\t// in\ntag_1:\n  pop\n    /* \"37_datalocation.sol\":600:1406  contract dataLocation {... */\n  callvalue\n  dup1\n  iszero\n  tag_3\n  jumpi\n  0x00\n  dup1\n  revert\ntag_3:\n  pop\n  jump(tag_4)\ntag_2:\n  dup3\n  dup1\n  sload\n  dup3\n  dup3\n  sstore\n  swap1\n  0x00\n  mstore\n  keccak256(0x00, 0x20)\n  swap1\n  dup2\n  add\n  swap3\n  dup3\n  iszero\n  tag_5\n  jumpi\n  swap2\n  0x20\n  mul\n  dup3\n  add\ntag_6:\n  dup3\n  dup2\n  gt\n  iszero\n  tag_7\n  jumpi\n  dup3\n  mload\n  dup3\n  swap1\n  0xff\n  and\n  swap1\n  sstore\n  swap2\n  0x20\n  add\n  swap2\n  swap1\n  0x01\n  add\n  swap1\n  jump(tag_6)\ntag_7:\ntag_5:\n  pop\n  swap1\n  pop\n  tag_8\n  swap2\n  swap1\n  tag_9\n  jump\t// in\ntag_8:\n  pop\n  swap1\n  jump\t// out\ntag_9:\ntag_10:\n  dup1\n  dup3\n  gt\n  iszero\n  tag_11\n  jumpi\n  0x00\n  dup2\n  0x00\n  swap1\n  sstore\n  pop\n  0x01\n  add\n  jump(tag_10)\ntag_11:\n  pop\n  swap1\n  jump\t// out\ntag_4:\n  dataSize(sub_0)\n  dup1\n  dataOffset(sub_0)\n  0x00\n  codecopy\n  0x00\n  return\nstop\n\nsub_0: assembly {\n        /* \"37_datalocation.sol\":600:1406  contract dataLocation {... */\n      mstore(0x40, 0x80)\n      callvalue\n      dup1\n      iszero\n      tag_1\n      jumpi\n      0x00\n      dup1\n      revert\n    tag_1:\n      pop\n      jumpi(tag_2, lt(calldatasize, 0x04))\n      shr(0xe0, calldataload(0x00))\n      dup1\n      0xa8fc48fa\n      gt\n      tag_10\n      jumpi\n      dup1\n      0xa8fc48fa\n      eq\n      tag_6\n      jumpi\n      dup1\n      0xc26da794\n      eq\n      tag_7\n      jumpi\n      dup1\n      0xd0197919\n      eq\n      tag_8\n      jumpi\n      dup1\n      0xee3711be\n      eq\n      tag_9\n      jumpi\n      jump(tag_2)\n    tag_10:\n      dup1\n      0x07b39a27\n      eq\n      tag_3\n      jumpi\n      dup1\n      0x2a3c0f58\n      eq\n      tag_4\n      jumpi\n      dup1\n      0x71e5ee5f\n      eq\n      tag_5\n      jumpi\n    tag_2:\n      0x00\n      dup1\n      revert\n        /* \"37_datalocation.sol\":1139:1266  function CallData(string calldata, uint[] calldata arr) public {... */\n    tag_3:\n      tag_11\n      0x04\n      dup1\n      calldatasize\n      sub\n      dup2\n      add\n      swap1\n      tag_12\n      swap2\n      swap1\n      tag_13\n      jump\t// in\n    tag_12:\n      tag_14\n      jump\t// in\n    tag_11:\n      stop\n        /* \"37_datalocation.sol\":1274:1332  function getInMemory(uint[] memory  arr) public {... */\n    tag_4:\n      tag_15\n      0x04\n      dup1\n      calldatasize\n      sub\n      dup2\n      add\n      swap1\n      tag_16\n      swap2\n      swap1\n      tag_17\n      jump\t// in\n    tag_16:\n      tag_18\n      jump\t// in\n    tag_15:\n      stop\n        /* \"37_datalocation.sol\":629:661  uint[] public arr = [1,3,7,9,11] */\n    tag_5:\n      tag_19\n      0x04\n      dup1\n      calldatasize\n      sub\n      dup2\n      add\n      swap1\n      tag_20\n      swap2\n      swap1\n      tag_21\n      jump\t// in\n    tag_20:\n      tag_22\n      jump\t// in\n    tag_19:\n      mload(0x40)\n      tag_23\n      swap2\n      swap1\n      tag_24\n      jump\t// in\n    tag_23:\n      mload(0x40)\n      dup1\n      swap2\n      sub\n      swap1\n      return\n        /* \"37_datalocation.sol\":1008:1131  function Memory(string memory, uint[] memory arr) public {... */\n    tag_6:\n      tag_25\n      0x04\n      dup1\n      calldatasize\n      sub\n      dup2\n      add\n      swap1\n      tag_26\n      swap2\n      swap1\n      tag_27\n      jump\t// in\n    tag_26:\n      tag_28\n      jump\t// in\n    tag_25:\n      stop\n        /* \"37_datalocation.sol\":808:962  function Memory() public view {... */\n    tag_7:\n      tag_29\n      tag_30\n      jump\t// in\n    tag_29:\n      stop\n        /* \"37_datalocation.sol\":1340:1401  function getInCallData(uint[] calldata arr) public {... */\n    tag_8:\n      tag_31\n      0x04\n      dup1\n      calldatasize\n      sub\n      dup2\n      add\n      swap1\n      tag_32\n      swap2\n      swap1\n      tag_33\n      jump\t// in\n    tag_32:\n      tag_34\n      jump\t// in\n    tag_31:\n      stop\n        /* \"37_datalocation.sol\":668:800  function Storage() public {... */\n    tag_9:\n      tag_35\n      tag_36\n      jump\t// in\n    tag_35:\n      stop\n        /* \"37_datalocation.sol\":1139:1266  function CallData(string calldata, uint[] calldata arr) public {... */\n    tag_14:\n        /* \"37_datalocation.sol\":1213:1229  getInMemory(arr) */\n      tag_38\n        /* \"37_datalocation.sol\":1225:1228  arr */\n      dup3\n      dup3\n        /* \"37_datalocation.sol\":1213:1229  getInMemory(arr) */\n      dup1\n      dup1\n      0x20\n      mul\n      0x20\n      add\n      mload(0x40)\n      swap1\n      dup2\n      add\n      0x40\n      mstore\n      dup1\n      swap4\n      swap3\n      swap2\n      swap1\n      dup2\n      dup2\n      mstore\n      0x20\n      add\n      dup4\n      dup4\n      0x20\n      mul\n      dup1\n      dup3\n      dup5\n      calldatacopy\n      0x00\n      dup2\n      dup5\n      add\n      mstore\n      not(0x1f)\n      0x1f\n      dup3\n      add\n      and\n      swap1\n      pop\n      dup1\n      dup4\n      add\n      swap3\n      pop\n      pop\n      pop\n      pop\n      pop\n      pop\n      pop\n        /* \"37_datalocation.sol\":1213:1224  getInMemory */\n      tag_18\n        /* \"37_datalocation.sol\":1213:1229  getInMemory(arr) */\n      jump\t// in\n    tag_38:\n        /* \"37_datalocation.sol\":1240:1258  getInCallData(arr) */\n      tag_39\n        /* \"37_datalocation.sol\":1254:1257  arr */\n      dup3\n      dup3\n        /* \"37_datalocation.sol\":1240:1253  getInCallData */\n      tag_34\n        /* \"37_datalocation.sol\":1240:1258  getInCallData(arr) */\n      jump\t// in\n    tag_39:\n        /* \"37_datalocation.sol\":1139:1266  function CallData(string calldata, uint[] calldata arr) public {... */\n      pop\n      pop\n      pop\n      pop\n      jump\t// out\n        /* \"37_datalocation.sol\":1274:1332  function getInMemory(uint[] memory  arr) public {... */\n    tag_18:\n      pop\n      jump\t// out\n        /* \"37_datalocation.sol\":629:661  uint[] public arr = [1,3,7,9,11] */\n    tag_22:\n      0x00\n      dup2\n      dup2\n      sload\n      dup2\n      lt\n      tag_41\n      jumpi\n      0x00\n      dup1\n      revert\n    tag_41:\n      swap1\n      0x00\n      mstore\n      keccak256(0x00, 0x20)\n      add\n      0x00\n      swap2\n      pop\n      swap1\n      pop\n      sload\n      dup2\n      jump\t// out\n        /* \"37_datalocation.sol\":1008:1131  function Memory(string memory, uint[] memory arr) public {... */\n    tag_28:\n        /* \"37_datalocation.sol\":1076:1092  getInMemory(arr) */\n      tag_44\n        /* \"37_datalocation.sol\":1088:1091  arr */\n      dup2\n        /* \"37_datalocation.sol\":1076:1087  getInMemory */\n      tag_18\n        /* \"37_datalocation.sol\":1076:1092  getInMemory(arr) */\n      jump\t// in\n    tag_44:\n        /* \"37_datalocation.sol\":1008:1131  function Memory(string memory, uint[] memory arr) public {... */\n      pop\n      pop\n      jump\t// out\n        /* \"37_datalocation.sol\":808:962  function Memory() public view {... */\n    tag_30:\n        /* \"37_datalocation.sol\":849:867  uint[] memory arrm */\n      0x00\n        /* \"37_datalocation.sol\":870:873  arr */\n      dup1\n        /* \"37_datalocation.sol\":849:873  uint[] memory arrm = arr */\n      dup1\n      sload\n      dup1\n      0x20\n      mul\n      0x20\n      add\n      mload(0x40)\n      swap1\n      dup2\n      add\n      0x40\n      mstore\n      dup1\n      swap3\n      swap2\n      swap1\n      dup2\n      dup2\n      mstore\n      0x20\n      add\n      dup3\n      dup1\n      sload\n      dup1\n      iszero\n      tag_46\n      jumpi\n      0x20\n      mul\n      dup3\n      add\n      swap2\n      swap1\n      0x00\n      mstore\n      keccak256(0x00, 0x20)\n      swap1\n    tag_47:\n      dup2\n      sload\n      dup2\n      mstore\n      0x20\n      add\n      swap1\n      0x01\n      add\n      swap1\n      dup1\n      dup4\n      gt\n      tag_47\n      jumpi\n    tag_46:\n      pop\n      pop\n      pop\n      pop\n      pop\n      swap1\n      pop\n        /* \"37_datalocation.sol\":951:954  999 */\n      0x03e7\n        /* \"37_datalocation.sol\":941:945  arrm */\n      dup2\n        /* \"37_datalocation.sol\":946:947  1 */\n      0x01\n        /* \"37_datalocation.sol\":941:948  arrm[1] */\n      dup2\n      mload\n      dup2\n      lt\n      tag_48\n      jumpi\n      tag_49\n      tag_50\n      jump\t// in\n    tag_49:\n    tag_48:\n      0x20\n      mul\n      0x20\n      add\n      add\n        /* \"37_datalocation.sol\":941:954  arrm[1] = 999 */\n      dup2\n      dup2\n      mstore\n      pop\n      pop\n        /* \"37_datalocation.sol\":838:962  {... */\n      pop\n        /* \"37_datalocation.sol\":808:962  function Memory() public view {... */\n      jump\t// out\n        /* \"37_datalocation.sol\":1340:1401  function getInCallData(uint[] calldata arr) public {... */\n    tag_34:\n      pop\n      pop\n      jump\t// out\n        /* \"37_datalocation.sol\":668:800  function Storage() public {... */\n    tag_36:\n        /* \"37_datalocation.sol\":705:724  uint[] storage arrs */\n      0x00\n        /* \"37_datalocation.sol\":790:792  99 */\n      0x63\n        /* \"37_datalocation.sol\":780:784  arrs */\n      dup2\n        /* \"37_datalocation.sol\":785:786  3 */\n      0x03\n        /* \"37_datalocation.sol\":780:787  arrs[3] */\n      dup2\n      sload\n      dup2\n      lt\n      tag_53\n      jumpi\n      tag_54\n      tag_50\n      jump\t// in\n    tag_54:\n    tag_53:\n      swap1\n      0x00\n      mstore\n      keccak256(0x00, 0x20)\n      add\n        /* \"37_datalocation.sol\":780:792  arrs[3] = 99 */\n      dup2\n      swap1\n      sstore\n      pop\n        /* \"37_datalocation.sol\":694:800  {... */\n      pop\n        /* \"37_datalocation.sol\":668:800  function Storage() public {... */\n      jump\t// out\n        /* \"#utility.yul\":7:82   */\n    tag_56:\n        /* \"#utility.yul\":40:46   */\n      0x00\n        /* \"#utility.yul\":73:75   */\n      0x40\n        /* \"#utility.yul\":67:76   */\n      mload\n        /* \"#utility.yul\":57:76   */\n      swap1\n      pop\n        /* \"#utility.yul\":7:82   */\n      swap1\n      jump\t// out\n        /* \"#utility.yul\":88:205   */\n    tag_57:\n        /* \"#utility.yul\":197:198   */\n      0x00\n        /* \"#utility.yul\":194:195   */\n      dup1\n        /* \"#utility.yul\":187:199   */\n      revert\n        /* \"#utility.yul\":211:328   */\n    tag_58:\n        /* \"#utility.yul\":320:321   */\n      0x00\n        /* \"#utility.yul\":317:318   */\n      dup1\n        /* \"#utility.yul\":310:322   */\n      revert\n        /* \"#utility.yul\":334:451   */\n    tag_59:\n        /* \"#utility.yul\":443:444   */\n      0x00\n        /* \"#utility.yul\":440:441   */\n      dup1\n        /* \"#utility.yul\":433:445   */\n      revert\n        /* \"#utility.yul\":457:574   */\n    tag_60:\n        /* \"#utility.yul\":566:567   */\n      0x00\n        /* \"#utility.yul\":563:564   */\n      dup1\n        /* \"#utility.yul\":556:568   */\n      revert\n        /* \"#utility.yul\":580:697   */\n    tag_61:\n        /* \"#utility.yul\":689:690   */\n      0x00\n        /* \"#utility.yul\":686:687   */\n      dup1\n        /* \"#utility.yul\":679:691   */\n      revert\n        /* \"#utility.yul\":717:1270   */\n    tag_62:\n        /* \"#utility.yul\":775:783   */\n      0x00\n        /* \"#utility.yul\":785:791   */\n      dup1\n        /* \"#utility.yul\":835:838   */\n      dup4\n        /* \"#utility.yul\":828:832   */\n      0x1f\n        /* \"#utility.yul\":820:826   */\n      dup5\n        /* \"#utility.yul\":816:833   */\n      add\n        /* \"#utility.yul\":812:839   */\n      slt\n        /* \"#utility.yul\":802:924   */\n      tag_88\n      jumpi\n        /* \"#utility.yul\":843:922   */\n      tag_89\n      tag_59\n      jump\t// in\n    tag_89:\n        /* \"#utility.yul\":802:924   */\n    tag_88:\n        /* \"#utility.yul\":956:962   */\n      dup3\n        /* \"#utility.yul\":943:963   */\n      calldataload\n        /* \"#utility.yul\":933:963   */\n      swap1\n      pop\n        /* \"#utility.yul\":986:1004   */\n      0xffffffffffffffff\n        /* \"#utility.yul\":978:984   */\n      dup2\n        /* \"#utility.yul\":975:1005   */\n      gt\n        /* \"#utility.yul\":972:1089   */\n      iszero\n      tag_90\n      jumpi\n        /* \"#utility.yul\":1008:1087   */\n      tag_91\n      tag_60\n      jump\t// in\n    tag_91:\n        /* \"#utility.yul\":972:1089   */\n    tag_90:\n        /* \"#utility.yul\":1122:1126   */\n      0x20\n        /* \"#utility.yul\":1114:1120   */\n      dup4\n        /* \"#utility.yul\":1110:1127   */\n      add\n        /* \"#utility.yul\":1098:1127   */\n      swap2\n      pop\n        /* \"#utility.yul\":1176:1179   */\n      dup4\n        /* \"#utility.yul\":1168:1172   */\n      0x01\n        /* \"#utility.yul\":1160:1166   */\n      dup3\n        /* \"#utility.yul\":1156:1173   */\n      mul\n        /* \"#utility.yul\":1146:1154   */\n      dup4\n        /* \"#utility.yul\":1142:1174   */\n      add\n        /* \"#utility.yul\":1139:1180   */\n      gt\n        /* \"#utility.yul\":1136:1264   */\n      iszero\n      tag_92\n      jumpi\n        /* \"#utility.yul\":1183:1262   */\n      tag_93\n      tag_61\n      jump\t// in\n    tag_93:\n        /* \"#utility.yul\":1136:1264   */\n    tag_92:\n        /* \"#utility.yul\":717:1270   */\n      swap3\n      pop\n      swap3\n      swap1\n      pop\n      jump\t// out\n        /* \"#utility.yul\":1293:1861   */\n    tag_63:\n        /* \"#utility.yul\":1366:1374   */\n      0x00\n        /* \"#utility.yul\":1376:1382   */\n      dup1\n        /* \"#utility.yul\":1426:1429   */\n      dup4\n        /* \"#utility.yul\":1419:1423   */\n      0x1f\n        /* \"#utility.yul\":1411:1417   */\n      dup5\n        /* \"#utility.yul\":1407:1424   */\n      add\n        /* \"#utility.yul\":1403:1430   */\n      slt\n        /* \"#utility.yul\":1393:1515   */\n      tag_95\n      jumpi\n        /* \"#utility.yul\":1434:1513   */\n      tag_96\n      tag_59\n      jump\t// in\n    tag_96:\n        /* \"#utility.yul\":1393:1515   */\n    tag_95:\n        /* \"#utility.yul\":1547:1553   */\n      dup3\n        /* \"#utility.yul\":1534:1554   */\n      calldataload\n        /* \"#utility.yul\":1524:1554   */\n      swap1\n      pop\n        /* \"#utility.yul\":1577:1595   */\n      0xffffffffffffffff\n        /* \"#utility.yul\":1569:1575   */\n      dup2\n        /* \"#utility.yul\":1566:1596   */\n      gt\n        /* \"#utility.yul\":1563:1680   */\n      iszero\n      tag_97\n      jumpi\n        /* \"#utility.yul\":1599:1678   */\n      tag_98\n      tag_60\n      jump\t// in\n    tag_98:\n        /* \"#utility.yul\":1563:1680   */\n    tag_97:\n        /* \"#utility.yul\":1713:1717   */\n      0x20\n        /* \"#utility.yul\":1705:1711   */\n      dup4\n        /* \"#utility.yul\":1701:1718   */\n      add\n        /* \"#utility.yul\":1689:1718   */\n      swap2\n      pop\n        /* \"#utility.yul\":1767:1770   */\n      dup4\n        /* \"#utility.yul\":1759:1763   */\n      0x20\n        /* \"#utility.yul\":1751:1757   */\n      dup3\n        /* \"#utility.yul\":1747:1764   */\n      mul\n        /* \"#utility.yul\":1737:1745   */\n      dup4\n        /* \"#utility.yul\":1733:1765   */\n      add\n        /* \"#utility.yul\":1730:1771   */\n      gt\n        /* \"#utility.yul\":1727:1855   */\n      iszero\n      tag_99\n      jumpi\n        /* \"#utility.yul\":1774:1853   */\n      tag_100\n      tag_61\n      jump\t// in\n    tag_100:\n        /* \"#utility.yul\":1727:1855   */\n    tag_99:\n        /* \"#utility.yul\":1293:1861   */\n      swap3\n      pop\n      swap3\n      swap1\n      pop\n      jump\t// out\n        /* \"#utility.yul\":1867:2771   */\n    tag_13:\n        /* \"#utility.yul\":1974:1980   */\n      0x00\n        /* \"#utility.yul\":1982:1988   */\n      dup1\n        /* \"#utility.yul\":1990:1996   */\n      0x00\n        /* \"#utility.yul\":1998:2004   */\n      dup1\n        /* \"#utility.yul\":2047:2049   */\n      0x40\n        /* \"#utility.yul\":2035:2044   */\n      dup6\n        /* \"#utility.yul\":2026:2033   */\n      dup8\n        /* \"#utility.yul\":2022:2045   */\n      sub\n        /* \"#utility.yul\":2018:2050   */\n      slt\n        /* \"#utility.yul\":2015:2134   */\n      iszero\n      tag_102\n      jumpi\n        /* \"#utility.yul\":2053:2132   */\n      tag_103\n      tag_57\n      jump\t// in\n    tag_103:\n        /* \"#utility.yul\":2015:2134   */\n    tag_102:\n        /* \"#utility.yul\":2201:2202   */\n      0x00\n        /* \"#utility.yul\":2190:2199   */\n      dup6\n        /* \"#utility.yul\":2186:2203   */\n      add\n        /* \"#utility.yul\":2173:2204   */\n      calldataload\n        /* \"#utility.yul\":2231:2249   */\n      0xffffffffffffffff\n        /* \"#utility.yul\":2223:2229   */\n      dup2\n        /* \"#utility.yul\":2220:2250   */\n      gt\n        /* \"#utility.yul\":2217:2334   */\n      iszero\n      tag_104\n      jumpi\n        /* \"#utility.yul\":2253:2332   */\n      tag_105\n      tag_58\n      jump\t// in\n    tag_105:\n        /* \"#utility.yul\":2217:2334   */\n    tag_104:\n        /* \"#utility.yul\":2366:2431   */\n      tag_106\n        /* \"#utility.yul\":2423:2430   */\n      dup8\n        /* \"#utility.yul\":2414:2420   */\n      dup3\n        /* \"#utility.yul\":2403:2412   */\n      dup9\n        /* \"#utility.yul\":2399:2421   */\n      add\n        /* \"#utility.yul\":2366:2431   */\n      tag_62\n      jump\t// in\n    tag_106:\n        /* \"#utility.yul\":2348:2431   */\n      swap5\n      pop\n      swap5\n      pop\n        /* \"#utility.yul\":2144:2441   */\n      pop\n        /* \"#utility.yul\":2508:2510   */\n      0x20\n        /* \"#utility.yul\":2497:2506   */\n      dup6\n        /* \"#utility.yul\":2493:2511   */\n      add\n        /* \"#utility.yul\":2480:2512   */\n      calldataload\n        /* \"#utility.yul\":2539:2557   */\n      0xffffffffffffffff\n        /* \"#utility.yul\":2531:2537   */\n      dup2\n        /* \"#utility.yul\":2528:2558   */\n      gt\n        /* \"#utility.yul\":2525:2642   */\n      iszero\n      tag_107\n      jumpi\n        /* \"#utility.yul\":2561:2640   */\n      tag_108\n      tag_58\n      jump\t// in\n    tag_108:\n        /* \"#utility.yul\":2525:2642   */\n    tag_107:\n        /* \"#utility.yul\":2674:2754   */\n      tag_109\n        /* \"#utility.yul\":2746:2753   */\n      dup8\n        /* \"#utility.yul\":2737:2743   */\n      dup3\n        /* \"#utility.yul\":2726:2735   */\n      dup9\n        /* \"#utility.yul\":2722:2744   */\n      add\n        /* \"#utility.yul\":2674:2754   */\n      tag_63\n      jump\t// in\n    tag_109:\n        /* \"#utility.yul\":2656:2754   */\n      swap3\n      pop\n      swap3\n      pop\n        /* \"#utility.yul\":2451:2764   */\n      pop\n        /* \"#utility.yul\":1867:2771   */\n      swap3\n      swap6\n      swap2\n      swap5\n      pop\n      swap3\n      pop\n      jump\t// out\n        /* \"#utility.yul\":2777:2879   */\n    tag_64:\n        /* \"#utility.yul\":2818:2824   */\n      0x00\n        /* \"#utility.yul\":2869:2871   */\n      0x1f\n        /* \"#utility.yul\":2865:2872   */\n      not\n        /* \"#utility.yul\":2860:2862   */\n      0x1f\n        /* \"#utility.yul\":2853:2858   */\n      dup4\n        /* \"#utility.yul\":2849:2863   */\n      add\n        /* \"#utility.yul\":2845:2873   */\n      and\n        /* \"#utility.yul\":2835:2873   */\n      swap1\n      pop\n        /* \"#utility.yul\":2777:2879   */\n      swap2\n      swap1\n      pop\n      jump\t// out\n        /* \"#utility.yul\":2885:3065   */\n    tag_65:\n        /* \"#utility.yul\":2933:3010   */\n      0x4e487b7100000000000000000000000000000000000000000000000000000000\n        /* \"#utility.yul\":2930:2931   */\n      0x00\n        /* \"#utility.yul\":2923:3011   */\n      mstore\n        /* \"#utility.yul\":3030:3034   */\n      0x41\n        /* \"#utility.yul\":3027:3028   */\n      0x04\n        /* \"#utility.yul\":3020:3035   */\n      mstore\n        /* \"#utility.yul\":3054:3058   */\n      0x24\n        /* \"#utility.yul\":3051:3052   */\n      0x00\n        /* \"#utility.yul\":3044:3059   */\n      revert\n        /* \"#utility.yul\":3071:3352   */\n    tag_66:\n        /* \"#utility.yul\":3154:3181   */\n      tag_113\n        /* \"#utility.yul\":3176:3180   */\n      dup3\n        /* \"#utility.yul\":3154:3181   */\n      tag_64\n      jump\t// in\n    tag_113:\n        /* \"#utility.yul\":3146:3152   */\n      dup2\n        /* \"#utility.yul\":3142:3182   */\n      add\n        /* \"#utility.yul\":3284:3290   */\n      dup2\n        /* \"#utility.yul\":3272:3282   */\n      dup2\n        /* \"#utility.yul\":3269:3291   */\n      lt\n        /* \"#utility.yul\":3248:3266   */\n      0xffffffffffffffff\n        /* \"#utility.yul\":3236:3246   */\n      dup3\n        /* \"#utility.yul\":3233:3267   */\n      gt\n        /* \"#utility.yul\":3230:3292   */\n      or\n        /* \"#utility.yul\":3227:3315   */\n      iszero\n      tag_114\n      jumpi\n        /* \"#utility.yul\":3295:3313   */\n      tag_115\n      tag_65\n      jump\t// in\n    tag_115:\n        /* \"#utility.yul\":3227:3315   */\n    tag_114:\n        /* \"#utility.yul\":3335:3345   */\n      dup1\n        /* \"#utility.yul\":3331:3333   */\n      0x40\n        /* \"#utility.yul\":3324:3346   */\n      mstore\n        /* \"#utility.yul\":3114:3352   */\n      pop\n        /* \"#utility.yul\":3071:3352   */\n      pop\n      pop\n      jump\t// out\n        /* \"#utility.yul\":3358:3487   */\n    tag_67:\n        /* \"#utility.yul\":3392:3398   */\n      0x00\n        /* \"#utility.yul\":3419:3439   */\n      tag_117\n      tag_56\n      jump\t// in\n    tag_117:\n        /* \"#utility.yul\":3409:3439   */\n      swap1\n      pop\n        /* \"#utility.yul\":3448:3481   */\n      tag_118\n        /* \"#utility.yul\":3476:3480   */\n      dup3\n        /* \"#utility.yul\":3468:3474   */\n      dup3\n        /* \"#utility.yul\":3448:3481   */\n      tag_66\n      jump\t// in\n    tag_118:\n        /* \"#utility.yul\":3358:3487   */\n      swap2\n      swap1\n      pop\n      jump\t// out\n        /* \"#utility.yul\":3493:3804   */\n    tag_68:\n        /* \"#utility.yul\":3570:3574   */\n      0x00\n        /* \"#utility.yul\":3660:3678   */\n      0xffffffffffffffff\n        /* \"#utility.yul\":3652:3658   */\n      dup3\n        /* \"#utility.yul\":3649:3679   */\n      gt\n        /* \"#utility.yul\":3646:3702   */\n      iszero\n      tag_120\n      jumpi\n        /* \"#utility.yul\":3682:3700   */\n      tag_121\n      tag_65\n      jump\t// in\n    tag_121:\n        /* \"#utility.yul\":3646:3702   */\n    tag_120:\n        /* \"#utility.yul\":3732:3736   */\n      0x20\n        /* \"#utility.yul\":3724:3730   */\n      dup3\n        /* \"#utility.yul\":3720:3737   */\n      mul\n        /* \"#utility.yul\":3712:3737   */\n      swap1\n      pop\n        /* \"#utility.yul\":3792:3796   */\n      0x20\n        /* \"#utility.yul\":3786:3790   */\n      dup2\n        /* \"#utility.yul\":3782:3797   */\n      add\n        /* \"#utility.yul\":3774:3797   */\n      swap1\n      pop\n        /* \"#utility.yul\":3493:3804   */\n      swap2\n      swap1\n      pop\n      jump\t// out\n        /* \"#utility.yul\":3810:3887   */\n    tag_69:\n        /* \"#utility.yul\":3847:3854   */\n      0x00\n        /* \"#utility.yul\":3876:3881   */\n      dup2\n        /* \"#utility.yul\":3865:3881   */\n      swap1\n      pop\n        /* \"#utility.yul\":3810:3887   */\n      swap2\n      swap1\n      pop\n      jump\t// out\n        /* \"#utility.yul\":3893:4015   */\n    tag_70:\n        /* \"#utility.yul\":3966:3990   */\n      tag_124\n        /* \"#utility.yul\":3984:3989   */\n      dup2\n        /* \"#utility.yul\":3966:3990   */\n      tag_69\n      jump\t// in\n    tag_124:\n        /* \"#utility.yul\":3959:3964   */\n      dup2\n        /* \"#utility.yul\":3956:3991   */\n      eq\n        /* \"#utility.yul\":3946:4009   */\n      tag_125\n      jumpi\n        /* \"#utility.yul\":4005:4006   */\n      0x00\n        /* \"#utility.yul\":4002:4003   */\n      dup1\n        /* \"#utility.yul\":3995:4007   */\n      revert\n        /* \"#utility.yul\":3946:4009   */\n    tag_125:\n        /* \"#utility.yul\":3893:4015   */\n      pop\n      jump\t// out\n        /* \"#utility.yul\":4021:4160   */\n    tag_71:\n        /* \"#utility.yul\":4067:4072   */\n      0x00\n        /* \"#utility.yul\":4105:4111   */\n      dup2\n        /* \"#utility.yul\":4092:4112   */\n      calldataload\n        /* \"#utility.yul\":4083:4112   */\n      swap1\n      pop\n        /* \"#utility.yul\":4121:4154   */\n      tag_127\n        /* \"#utility.yul\":4148:4153   */\n      dup2\n        /* \"#utility.yul\":4121:4154   */\n      tag_70\n      jump\t// in\n    tag_127:\n        /* \"#utility.yul\":4021:4160   */\n      swap3\n      swap2\n      pop\n      pop\n      jump\t// out\n        /* \"#utility.yul\":4183:4893   */\n    tag_72:\n        /* \"#utility.yul\":4279:4284   */\n      0x00\n        /* \"#utility.yul\":4304:4385   */\n      tag_129\n        /* \"#utility.yul\":4320:4384   */\n      tag_130\n        /* \"#utility.yul\":4377:4383   */\n      dup5\n        /* \"#utility.yul\":4320:4384   */\n      tag_68\n      jump\t// in\n    tag_130:\n        /* \"#utility.yul\":4304:4385   */\n      tag_67\n      jump\t// in\n    tag_129:\n        /* \"#utility.yul\":4295:4385   */\n      swap1\n      pop\n        /* \"#utility.yul\":4405:4410   */\n      dup1\n        /* \"#utility.yul\":4434:4440   */\n      dup4\n        /* \"#utility.yul\":4427:4432   */\n      dup3\n        /* \"#utility.yul\":4420:4441   */\n      mstore\n        /* \"#utility.yul\":4468:4472   */\n      0x20\n        /* \"#utility.yul\":4461:4466   */\n      dup3\n        /* \"#utility.yul\":4457:4473   */\n      add\n        /* \"#utility.yul\":4450:4473   */\n      swap1\n      pop\n        /* \"#utility.yul\":4521:4525   */\n      0x20\n        /* \"#utility.yul\":4513:4519   */\n      dup5\n        /* \"#utility.yul\":4509:4526   */\n      mul\n        /* \"#utility.yul\":4501:4507   */\n      dup4\n        /* \"#utility.yul\":4497:4527   */\n      add\n        /* \"#utility.yul\":4550:4553   */\n      dup6\n        /* \"#utility.yul\":4542:4548   */\n      dup2\n        /* \"#utility.yul\":4539:4554   */\n      gt\n        /* \"#utility.yul\":4536:4658   */\n      iszero\n      tag_131\n      jumpi\n        /* \"#utility.yul\":4569:4648   */\n      tag_132\n      tag_61\n      jump\t// in\n    tag_132:\n        /* \"#utility.yul\":4536:4658   */\n    tag_131:\n        /* \"#utility.yul\":4684:4690   */\n      dup4\n        /* \"#utility.yul\":4667:4887   */\n    tag_133:\n        /* \"#utility.yul\":4701:4707   */\n      dup2\n        /* \"#utility.yul\":4696:4699   */\n      dup2\n        /* \"#utility.yul\":4693:4708   */\n      lt\n        /* \"#utility.yul\":4667:4887   */\n      iszero\n      tag_135\n      jumpi\n        /* \"#utility.yul\":4776:4779   */\n      dup1\n        /* \"#utility.yul\":4805:4842   */\n      tag_136\n        /* \"#utility.yul\":4838:4841   */\n      dup9\n        /* \"#utility.yul\":4826:4836   */\n      dup3\n        /* \"#utility.yul\":4805:4842   */\n      tag_71\n      jump\t// in\n    tag_136:\n        /* \"#utility.yul\":4800:4803   */\n      dup5\n        /* \"#utility.yul\":4793:4843   */\n      mstore\n        /* \"#utility.yul\":4872:4876   */\n      0x20\n        /* \"#utility.yul\":4867:4870   */\n      dup5\n        /* \"#utility.yul\":4863:4877   */\n      add\n        /* \"#utility.yul\":4856:4877   */\n      swap4\n      pop\n        /* \"#utility.yul\":4743:4887   */\n      pop\n        /* \"#utility.yul\":4727:4731   */\n      0x20\n        /* \"#utility.yul\":4722:4725   */\n      dup2\n        /* \"#utility.yul\":4718:4732   */\n      add\n        /* \"#utility.yul\":4711:4732   */\n      swap1\n      pop\n        /* \"#utility.yul\":4667:4887   */\n      jump(tag_133)\n    tag_135:\n        /* \"#utility.yul\":4671:4692   */\n      pop\n        /* \"#utility.yul\":4285:4893   */\n      pop\n      pop\n        /* \"#utility.yul\":4183:4893   */\n      swap4\n      swap3\n      pop\n      pop\n      pop\n      jump\t// out\n        /* \"#utility.yul\":4916:5286   */\n    tag_73:\n        /* \"#utility.yul\":4987:4992   */\n      0x00\n        /* \"#utility.yul\":5036:5039   */\n      dup3\n        /* \"#utility.yul\":5029:5033   */\n      0x1f\n        /* \"#utility.yul\":5021:5027   */\n      dup4\n        /* \"#utility.yul\":5017:5034   */\n      add\n        /* \"#utility.yul\":5013:5040   */\n      slt\n        /* \"#utility.yul\":5003:5125   */\n      tag_138\n      jumpi\n        /* \"#utility.yul\":5044:5123   */\n      tag_139\n      tag_59\n      jump\t// in\n    tag_139:\n        /* \"#utility.yul\":5003:5125   */\n    tag_138:\n        /* \"#utility.yul\":5161:5167   */\n      dup2\n        /* \"#utility.yul\":5148:5168   */\n      calldataload\n        /* \"#utility.yul\":5186:5280   */\n      tag_140\n        /* \"#utility.yul\":5276:5279   */\n      dup5\n        /* \"#utility.yul\":5268:5274   */\n      dup3\n        /* \"#utility.yul\":5261:5265   */\n      0x20\n        /* \"#utility.yul\":5253:5259   */\n      dup7\n        /* \"#utility.yul\":5249:5266   */\n      add\n        /* \"#utility.yul\":5186:5280   */\n      tag_72\n      jump\t// in\n    tag_140:\n        /* \"#utility.yul\":5177:5280   */\n      swap2\n      pop\n        /* \"#utility.yul\":4993:5286   */\n      pop\n        /* \"#utility.yul\":4916:5286   */\n      swap3\n      swap2\n      pop\n      pop\n      jump\t// out\n        /* \"#utility.yul\":5292:5831   */\n    tag_17:\n        /* \"#utility.yul\":5376:5382   */\n      0x00\n        /* \"#utility.yul\":5425:5427   */\n      0x20\n        /* \"#utility.yul\":5413:5422   */\n      dup3\n        /* \"#utility.yul\":5404:5411   */\n      dup5\n        /* \"#utility.yul\":5400:5423   */\n      sub\n        /* \"#utility.yul\":5396:5428   */\n      slt\n        /* \"#utility.yul\":5393:5512   */\n      iszero\n      tag_142\n      jumpi\n        /* \"#utility.yul\":5431:5510   */\n      tag_143\n      tag_57\n      jump\t// in\n    tag_143:\n        /* \"#utility.yul\":5393:5512   */\n    tag_142:\n        /* \"#utility.yul\":5579:5580   */\n      0x00\n        /* \"#utility.yul\":5568:5577   */\n      dup3\n        /* \"#utility.yul\":5564:5581   */\n      add\n        /* \"#utility.yul\":5551:5582   */\n      calldataload\n        /* \"#utility.yul\":5609:5627   */\n      0xffffffffffffffff\n        /* \"#utility.yul\":5601:5607   */\n      dup2\n        /* \"#utility.yul\":5598:5628   */\n      gt\n        /* \"#utility.yul\":5595:5712   */\n      iszero\n      tag_144\n      jumpi\n        /* \"#utility.yul\":5631:5710   */\n      tag_145\n      tag_58\n      jump\t// in\n    tag_145:\n        /* \"#utility.yul\":5595:5712   */\n    tag_144:\n        /* \"#utility.yul\":5736:5814   */\n      tag_146\n        /* \"#utility.yul\":5806:5813   */\n      dup5\n        /* \"#utility.yul\":5797:5803   */\n      dup3\n        /* \"#utility.yul\":5786:5795   */\n      dup6\n        /* \"#utility.yul\":5782:5804   */\n      add\n        /* \"#utility.yul\":5736:5814   */\n      tag_73\n      jump\t// in\n    tag_146:\n        /* \"#utility.yul\":5726:5814   */\n      swap2\n      pop\n        /* \"#utility.yul\":5522:5824   */\n      pop\n        /* \"#utility.yul\":5292:5831   */\n      swap3\n      swap2\n      pop\n      pop\n      jump\t// out\n        /* \"#utility.yul\":5837:6166   */\n    tag_21:\n        /* \"#utility.yul\":5896:5902   */\n      0x00\n        /* \"#utility.yul\":5945:5947   */\n      0x20\n        /* \"#utility.yul\":5933:5942   */\n      dup3\n        /* \"#utility.yul\":5924:5931   */\n      dup5\n        /* \"#utility.yul\":5920:5943   */\n      sub\n        /* \"#utility.yul\":5916:5948   */\n      slt\n        /* \"#utility.yul\":5913:6032   */\n      iszero\n      tag_148\n      jumpi\n        /* \"#utility.yul\":5951:6030   */\n      tag_149\n      tag_57\n      jump\t// in\n    tag_149:\n        /* \"#utility.yul\":5913:6032   */\n    tag_148:\n        /* \"#utility.yul\":6071:6072   */\n      0x00\n        /* \"#utility.yul\":6096:6149   */\n      tag_150\n        /* \"#utility.yul\":6141:6148   */\n      dup5\n        /* \"#utility.yul\":6132:6138   */\n      dup3\n        /* \"#utility.yul\":6121:6130   */\n      dup6\n        /* \"#utility.yul\":6117:6139   */\n      add\n        /* \"#utility.yul\":6096:6149   */\n      tag_71\n      jump\t// in\n    tag_150:\n        /* \"#utility.yul\":6086:6149   */\n      swap2\n      pop\n        /* \"#utility.yul\":6042:6159   */\n      pop\n        /* \"#utility.yul\":5837:6166   */\n      swap3\n      swap2\n      pop\n      pop\n      jump\t// out\n        /* \"#utility.yul\":6172:6290   */\n    tag_74:\n        /* \"#utility.yul\":6259:6283   */\n      tag_152\n        /* \"#utility.yul\":6277:6282   */\n      dup2\n        /* \"#utility.yul\":6259:6283   */\n      tag_69\n      jump\t// in\n    tag_152:\n        /* \"#utility.yul\":6254:6257   */\n      dup3\n        /* \"#utility.yul\":6247:6284   */\n      mstore\n        /* \"#utility.yul\":6172:6290   */\n      pop\n      pop\n      jump\t// out\n        /* \"#utility.yul\":6296:6518   */\n    tag_24:\n        /* \"#utility.yul\":6389:6393   */\n      0x00\n        /* \"#utility.yul\":6427:6429   */\n      0x20\n        /* \"#utility.yul\":6416:6425   */\n      dup3\n        /* \"#utility.yul\":6412:6430   */\n      add\n        /* \"#utility.yul\":6404:6430   */\n      swap1\n      pop\n        /* \"#utility.yul\":6440:6511   */\n      tag_154\n        /* \"#utility.yul\":6508:6509   */\n      0x00\n        /* \"#utility.yul\":6497:6506   */\n      dup4\n        /* \"#utility.yul\":6493:6510   */\n      add\n        /* \"#utility.yul\":6484:6490   */\n      dup5\n        /* \"#utility.yul\":6440:6511   */\n      tag_74\n      jump\t// in\n    tag_154:\n        /* \"#utility.yul\":6296:6518   */\n      swap3\n      swap2\n      pop\n      pop\n      jump\t// out\n        /* \"#utility.yul\":6524:6641   */\n    tag_75:\n        /* \"#utility.yul\":6633:6634   */\n      0x00\n        /* \"#utility.yul\":6630:6631   */\n      dup1\n        /* \"#utility.yul\":6623:6635   */\n      revert\n        /* \"#utility.yul\":6647:6955   */\n    tag_76:\n        /* \"#utility.yul\":6709:6713   */\n      0x00\n        /* \"#utility.yul\":6799:6817   */\n      0xffffffffffffffff\n        /* \"#utility.yul\":6791:6797   */\n      dup3\n        /* \"#utility.yul\":6788:6818   */\n      gt\n        /* \"#utility.yul\":6785:6841   */\n      iszero\n      tag_157\n      jumpi\n        /* \"#utility.yul\":6821:6839   */\n      tag_158\n      tag_65\n      jump\t// in\n    tag_158:\n        /* \"#utility.yul\":6785:6841   */\n    tag_157:\n        /* \"#utility.yul\":6859:6888   */\n      tag_159\n        /* \"#utility.yul\":6881:6887   */\n      dup3\n        /* \"#utility.yul\":6859:6888   */\n      tag_64\n      jump\t// in\n    tag_159:\n        /* \"#utility.yul\":6851:6888   */\n      swap1\n      pop\n        /* \"#utility.yul\":6943:6947   */\n      0x20\n        /* \"#utility.yul\":6937:6941   */\n      dup2\n        /* \"#utility.yul\":6933:6948   */\n      add\n        /* \"#utility.yul\":6925:6948   */\n      swap1\n      pop\n        /* \"#utility.yul\":6647:6955   */\n      swap2\n      swap1\n      pop\n      jump\t// out\n        /* \"#utility.yul\":6961:7107   */\n    tag_77:\n        /* \"#utility.yul\":7058:7064   */\n      dup3\n        /* \"#utility.yul\":7053:7056   */\n      dup2\n        /* \"#utility.yul\":7048:7051   */\n      dup4\n        /* \"#utility.yul\":7035:7065   */\n      calldatacopy\n        /* \"#utility.yul\":7099:7100   */\n      0x00\n        /* \"#utility.yul\":7090:7096   */\n      dup4\n        /* \"#utility.yul\":7085:7088   */\n      dup4\n        /* \"#utility.yul\":7081:7097   */\n      add\n        /* \"#utility.yul\":7074:7101   */\n      mstore\n        /* \"#utility.yul\":6961:7107   */\n      pop\n      pop\n      pop\n      jump\t// out\n        /* \"#utility.yul\":7113:7538   */\n    tag_78:\n        /* \"#utility.yul\":7191:7196   */\n      0x00\n        /* \"#utility.yul\":7216:7282   */\n      tag_162\n        /* \"#utility.yul\":7232:7281   */\n      tag_163\n        /* \"#utility.yul\":7274:7280   */\n      dup5\n        /* \"#utility.yul\":7232:7281   */\n      tag_76\n      jump\t// in\n    tag_163:\n        /* \"#utility.yul\":7216:7282   */\n      tag_67\n      jump\t// in\n    tag_162:\n        /* \"#utility.yul\":7207:7282   */\n      swap1\n      pop\n        /* \"#utility.yul\":7305:7311   */\n      dup3\n        /* \"#utility.yul\":7298:7303   */\n      dup2\n        /* \"#utility.yul\":7291:7312   */\n      mstore\n        /* \"#utility.yul\":7343:7347   */\n      0x20\n        /* \"#utility.yul\":7336:7341   */\n      dup2\n        /* \"#utility.yul\":7332:7348   */\n      add\n        /* \"#utility.yul\":7381:7384   */\n      dup5\n        /* \"#utility.yul\":7372:7378   */\n      dup5\n        /* \"#utility.yul\":7367:7370   */\n      dup5\n        /* \"#utility.yul\":7363:7379   */\n      add\n        /* \"#utility.yul\":7360:7385   */\n      gt\n        /* \"#utility.yul\":7357:7469   */\n      iszero\n      tag_164\n      jumpi\n        /* \"#utility.yul\":7388:7467   */\n      tag_165\n      tag_75\n      jump\t// in\n    tag_165:\n        /* \"#utility.yul\":7357:7469   */\n    tag_164:\n        /* \"#utility.yul\":7478:7532   */\n      tag_166\n        /* \"#utility.yul\":7525:7531   */\n      dup5\n        /* \"#utility.yul\":7520:7523   */\n      dup3\n        /* \"#utility.yul\":7515:7518   */\n      dup6\n        /* \"#utility.yul\":7478:7532   */\n      tag_77\n      jump\t// in\n    tag_166:\n        /* \"#utility.yul\":7197:7538   */\n      pop\n        /* \"#utility.yul\":7113:7538   */\n      swap4\n      swap3\n      pop\n      pop\n      pop\n      jump\t// out\n        /* \"#utility.yul\":7558:7898   */\n    tag_79:\n        /* \"#utility.yul\":7614:7619   */\n      0x00\n        /* \"#utility.yul\":7663:7666   */\n      dup3\n        /* \"#utility.yul\":7656:7660   */\n      0x1f\n        /* \"#utility.yul\":7648:7654   */\n      dup4\n        /* \"#utility.yul\":7644:7661   */\n      add\n        /* \"#utility.yul\":7640:7667   */\n      slt\n        /* \"#utility.yul\":7630:7752   */\n      tag_168\n      jumpi\n        /* \"#utility.yul\":7671:7750   */\n      tag_169\n      tag_59\n      jump\t// in\n    tag_169:\n        /* \"#utility.yul\":7630:7752   */\n    tag_168:\n        /* \"#utility.yul\":7788:7794   */\n      dup2\n        /* \"#utility.yul\":7775:7795   */\n      calldataload\n        /* \"#utility.yul\":7813:7892   */\n      tag_170\n        /* \"#utility.yul\":7888:7891   */\n      dup5\n        /* \"#utility.yul\":7880:7886   */\n      dup3\n        /* \"#utility.yul\":7873:7877   */\n      0x20\n        /* \"#utility.yul\":7865:7871   */\n      dup7\n        /* \"#utility.yul\":7861:7878   */\n      add\n        /* \"#utility.yul\":7813:7892   */\n      tag_78\n      jump\t// in\n    tag_170:\n        /* \"#utility.yul\":7804:7892   */\n      swap2\n      pop\n        /* \"#utility.yul\":7620:7898   */\n      pop\n        /* \"#utility.yul\":7558:7898   */\n      swap3\n      swap2\n      pop\n      pop\n      jump\t// out\n        /* \"#utility.yul\":7904:8768   */\n    tag_27:\n        /* \"#utility.yul\":8007:8013   */\n      0x00\n        /* \"#utility.yul\":8015:8021   */\n      dup1\n        /* \"#utility.yul\":8064:8066   */\n      0x40\n        /* \"#utility.yul\":8052:8061   */\n      dup4\n        /* \"#utility.yul\":8043:8050   */\n      dup6\n        /* \"#utility.yul\":8039:8062   */\n      sub\n        /* \"#utility.yul\":8035:8067   */\n      slt\n        /* \"#utility.yul\":8032:8151   */\n      iszero\n      tag_172\n      jumpi\n        /* \"#utility.yul\":8070:8149   */\n      tag_173\n      tag_57\n      jump\t// in\n    tag_173:\n        /* \"#utility.yul\":8032:8151   */\n    tag_172:\n        /* \"#utility.yul\":8218:8219   */\n      0x00\n        /* \"#utility.yul\":8207:8216   */\n      dup4\n        /* \"#utility.yul\":8203:8220   */\n      add\n        /* \"#utility.yul\":8190:8221   */\n      calldataload\n        /* \"#utility.yul\":8248:8266   */\n      0xffffffffffffffff\n        /* \"#utility.yul\":8240:8246   */\n      dup2\n        /* \"#utility.yul\":8237:8267   */\n      gt\n        /* \"#utility.yul\":8234:8351   */\n      iszero\n      tag_174\n      jumpi\n        /* \"#utility.yul\":8270:8349   */\n      tag_175\n      tag_58\n      jump\t// in\n    tag_175:\n        /* \"#utility.yul\":8234:8351   */\n    tag_174:\n        /* \"#utility.yul\":8375:8438   */\n      tag_176\n        /* \"#utility.yul\":8430:8437   */\n      dup6\n        /* \"#utility.yul\":8421:8427   */\n      dup3\n        /* \"#utility.yul\":8410:8419   */\n      dup7\n        /* \"#utility.yul\":8406:8428   */\n      add\n        /* \"#utility.yul\":8375:8438   */\n      tag_79\n      jump\t// in\n    tag_176:\n        /* \"#utility.yul\":8365:8438   */\n      swap3\n      pop\n        /* \"#utility.yul\":8161:8448   */\n      pop\n        /* \"#utility.yul\":8515:8517   */\n      0x20\n        /* \"#utility.yul\":8504:8513   */\n      dup4\n        /* \"#utility.yul\":8500:8518   */\n      add\n        /* \"#utility.yul\":8487:8519   */\n      calldataload\n        /* \"#utility.yul\":8546:8564   */\n      0xffffffffffffffff\n        /* \"#utility.yul\":8538:8544   */\n      dup2\n        /* \"#utility.yul\":8535:8565   */\n      gt\n        /* \"#utility.yul\":8532:8649   */\n      iszero\n      tag_177\n      jumpi\n        /* \"#utility.yul\":8568:8647   */\n      tag_178\n      tag_58\n      jump\t// in\n    tag_178:\n        /* \"#utility.yul\":8532:8649   */\n    tag_177:\n        /* \"#utility.yul\":8673:8751   */\n      tag_179\n        /* \"#utility.yul\":8743:8750   */\n      dup6\n        /* \"#utility.yul\":8734:8740   */\n      dup3\n        /* \"#utility.yul\":8723:8732   */\n      dup7\n        /* \"#utility.yul\":8719:8741   */\n      add\n        /* \"#utility.yul\":8673:8751   */\n      tag_73\n      jump\t// in\n    tag_179:\n        /* \"#utility.yul\":8663:8751   */\n      swap2\n      pop\n        /* \"#utility.yul\":8458:8761   */\n      pop\n        /* \"#utility.yul\":7904:8768   */\n      swap3\n      pop\n      swap3\n      swap1\n      pop\n      jump\t// out\n        /* \"#utility.yul\":8774:9333   */\n    tag_33:\n        /* \"#utility.yul\":8860:8866   */\n      0x00\n        /* \"#utility.yul\":8868:8874   */\n      dup1\n        /* \"#utility.yul\":8917:8919   */\n      0x20\n        /* \"#utility.yul\":8905:8914   */\n      dup4\n        /* \"#utility.yul\":8896:8903   */\n      dup6\n        /* \"#utility.yul\":8892:8915   */\n      sub\n        /* \"#utility.yul\":8888:8920   */\n      slt\n        /* \"#utility.yul\":8885:9004   */\n      iszero\n      tag_181\n      jumpi\n        /* \"#utility.yul\":8923:9002   */\n      tag_182\n      tag_57\n      jump\t// in\n    tag_182:\n        /* \"#utility.yul\":8885:9004   */\n    tag_181:\n        /* \"#utility.yul\":9071:9072   */\n      0x00\n        /* \"#utility.yul\":9060:9069   */\n      dup4\n        /* \"#utility.yul\":9056:9073   */\n      add\n        /* \"#utility.yul\":9043:9074   */\n      calldataload\n        /* \"#utility.yul\":9101:9119   */\n      0xffffffffffffffff\n        /* \"#utility.yul\":9093:9099   */\n      dup2\n        /* \"#utility.yul\":9090:9120   */\n      gt\n        /* \"#utility.yul\":9087:9204   */\n      iszero\n      tag_183\n      jumpi\n        /* \"#utility.yul\":9123:9202   */\n      tag_184\n      tag_58\n      jump\t// in\n    tag_184:\n        /* \"#utility.yul\":9087:9204   */\n    tag_183:\n        /* \"#utility.yul\":9236:9316   */\n      tag_185\n        /* \"#utility.yul\":9308:9315   */\n      dup6\n        /* \"#utility.yul\":9299:9305   */\n      dup3\n        /* \"#utility.yul\":9288:9297   */\n      dup7\n        /* \"#utility.yul\":9284:9306   */\n      add\n        /* \"#utility.yul\":9236:9316   */\n      tag_63\n      jump\t// in\n    tag_185:\n        /* \"#utility.yul\":9218:9316   */\n      swap3\n      pop\n      swap3\n      pop\n        /* \"#utility.yul\":9014:9326   */\n      pop\n        /* \"#utility.yul\":8774:9333   */\n      swap3\n      pop\n      swap3\n      swap1\n      pop\n      jump\t// out\n        /* \"#utility.yul\":9339:9519   */\n    tag_50:\n        /* \"#utility.yul\":9387:9464   */\n      0x4e487b7100000000000000000000000000000000000000000000000000000000\n        /* \"#utility.yul\":9384:9385   */\n      0x00\n        /* \"#utility.yul\":9377:9465   */\n      mstore\n        /* \"#utility.yul\":9484:9488   */\n      0x32\n        /* \"#utility.yul\":9481:9482   */\n      0x04\n        /* \"#utility.yul\":9474:9489   */\n      mstore\n        /* \"#utility.yul\":9508:9512   */\n      0x24\n        /* \"#utility.yul\":9505:9506   */\n      0x00\n        /* \"#utility.yul\":9498:9513   */\n      revert\n\n    auxdata: 0xa26469706673582212200f055327aeed788a93c51ead58cd7467b2bf84d6dd3563e64ddbbd5e4f913d2464736f6c63430008120033\n}\n",
				"bytecode": {
					"linkReferences": {},
					"object": "60806040526040518060a00160405280600160ff168152602001600360ff168152602001600760ff168152602001600960ff168152602001600b60ff16815250600090600561004f929190610062565b5034801561005c57600080fd5b506100d1565b8280548282559060005260206000209081019282156100a3579160200282015b828111156100a2578251829060ff16905591602001919060010190610082565b5b5090506100b091906100b4565b5090565b5b808211156100cd5760008160009055506001016100b5565b5090565b6107bf806100e06000396000f3fe608060405234801561001057600080fd5b506004361061007d5760003560e01c8063a8fc48fa1161005b578063a8fc48fa146100ea578063c26da79414610106578063d019791914610110578063ee3711be1461012c5761007d565b806307b39a27146100825780632a3c0f581461009e57806371e5ee5f146100ba575b600080fd5b61009c6004803603810190610097919061033a565b610136565b005b6100b860048036038101906100b39190610540565b610190565b005b6100d460048036038101906100cf9190610589565b610193565b6040516100e191906105c5565b60405180910390f35b61010460048036038101906100ff9190610695565b6101b7565b005b61010e6101c4565b005b61012a6004803603810190610125919061070d565b61023e565b005b610134610242565b005b610180828280806020026020016040519081016040528093929190818152602001838360200280828437600081840152601f19601f82011690508083019250505050505050610190565b61018a828261023e565b50505050565b50565b600081815481106101a357600080fd5b906000526020600020016000915090505481565b6101c081610190565b5050565b60008080548060200260200160405190810160405280929190818152602001828054801561021157602002820191906000526020600020905b8154815260200190600101908083116101fd575b505050505090506103e78160018151811061022f5761022e61075a565b5b60200260200101818152505050565b5050565b600060638160038154811061025a5761025961075a565b5b906000526020600020018190555050565b6000604051905090565b600080fd5b600080fd5b600080fd5b600080fd5b600080fd5b60008083601f8401126102a4576102a361027f565b5b8235905067ffffffffffffffff8111156102c1576102c0610284565b5b6020830191508360018202830111156102dd576102dc610289565b5b9250929050565b60008083601f8401126102fa576102f961027f565b5b8235905067ffffffffffffffff81111561031757610316610284565b5b60208301915083602082028301111561033357610332610289565b5b9250929050565b6000806000806040858703121561035457610353610275565b5b600085013567ffffffffffffffff8111156103725761037161027a565b5b61037e8782880161028e565b9450945050602085013567ffffffffffffffff8111156103a1576103a061027a565b5b6103ad878288016102e4565b925092505092959194509250565b6000601f19601f8301169050919050565b7f4e487b7100000000000000000000000000000000000000000000000000000000600052604160045260246000fd5b610404826103bb565b810181811067ffffffffffffffff82111715610423576104226103cc565b5b80604052505050565b600061043661026b565b905061044282826103fb565b919050565b600067ffffffffffffffff821115610462576104616103cc565b5b602082029050602081019050919050565b6000819050919050565b61048681610473565b811461049157600080fd5b50565b6000813590506104a38161047d565b92915050565b60006104bc6104b784610447565b61042c565b905080838252602082019050602084028301858111156104df576104de610289565b5b835b8181101561050857806104f48882610494565b8452602084019350506020810190506104e1565b5050509392505050565b600082601f8301126105275761052661027f565b5b81356105378482602086016104a9565b91505092915050565b60006020828403121561055657610555610275565b5b600082013567ffffffffffffffff8111156105745761057361027a565b5b61058084828501610512565b91505092915050565b60006020828403121561059f5761059e610275565b5b60006105ad84828501610494565b91505092915050565b6105bf81610473565b82525050565b60006020820190506105da60008301846105b6565b92915050565b600080fd5b600067ffffffffffffffff821115610600576105ff6103cc565b5b610609826103bb565b9050602081019050919050565b82818337600083830152505050565b6000610638610633846105e5565b61042c565b905082815260208101848484011115610654576106536105e0565b5b61065f848285610616565b509392505050565b600082601f83011261067c5761067b61027f565b5b813561068c848260208601610625565b91505092915050565b600080604083850312156106ac576106ab610275565b5b600083013567ffffffffffffffff8111156106ca576106c961027a565b5b6106d685828601610667565b925050602083013567ffffffffffffffff8111156106f7576106f661027a565b5b61070385828601610512565b9150509250929050565b6000806020838503121561072457610723610275565b5b600083013567ffffffffffffffff8111156107425761074161027a565b5b61074e858286016102e4565b92509250509250929050565b7f4e487b7100000000000000000000000000000000000000000000000000000000600052603260045260246000fdfea26469706673582212200f055327aeed788a93c51ead58cd7467b2bf84d6dd3563e64ddbbd5e4f913d2464736f6c63430008120033",
					"opcodes": "PUSH1 0x80 PUSH1 0x40 MSTORE PUSH1 0x40 MLOAD DUP1 PUSH1 0xA0 ADD PUSH1 0x40 MSTORE DUP1 PUSH1 0x1 PUSH1 0xFF AND DUP2 MSTORE PUSH1 0x20 ADD PUSH1 0x3 PUSH1 0xFF AND DUP2 MSTORE PUSH1 0x20 ADD PUSH1 0x7 PUSH1 0xFF AND DUP2 MSTORE PUSH1 0x20 ADD PUSH1 0x9 PUSH1 0xFF AND DUP2 MSTORE PUSH1 0x20 ADD PUSH1 0xB PUSH1 0xFF AND DUP2 MSTORE POP PUSH1 0x0 SWAP1 PUSH1 0x5 PUSH2 0x4F SWAP3 SWAP2 SWAP1 PUSH2 0x62 JUMP JUMPDEST POP CALLVALUE DUP1 ISZERO PUSH2 0x5C JUMPI PUSH1 0x0 DUP1 REVERT JUMPDEST POP PUSH2 0xD1 JUMP JUMPDEST DUP3 DUP1 SLOAD DUP3 DUP3 SSTORE SWAP1 PUSH1 0x0 MSTORE PUSH1 0x20 PUSH1 0x0 KECCAK256 SWAP1 DUP2 ADD SWAP3 DUP3 ISZERO PUSH2 0xA3 JUMPI SWAP2 PUSH1 0x20 MUL DUP3 ADD JUMPDEST DUP3 DUP2 GT ISZERO PUSH2 0xA2 JUMPI DUP3 MLOAD DUP3 SWAP1 PUSH1 0xFF AND SWAP1 SSTORE SWAP2 PUSH1 0x20 ADD SWAP2 SWAP1 PUSH1 0x1 ADD SWAP1 PUSH2 0x82 JUMP JUMPDEST JUMPDEST POP SWAP1 POP PUSH2 0xB0 SWAP2 SWAP1 PUSH2 0xB4 JUMP JUMPDEST POP SWAP1 JUMP JUMPDEST JUMPDEST DUP1 DUP3 GT ISZERO PUSH2 0xCD JUMPI PUSH1 0x0 DUP2 PUSH1 0x0 SWAP1 SSTORE POP PUSH1 0x1 ADD PUSH2 0xB5 JUMP JUMPDEST POP SWAP1 JUMP JUMPDEST PUSH2 0x7BF DUP1 PUSH2 0xE0 PUSH1 0x0 CODECOPY PUSH1 0x0 RETURN INVALID PUSH1 0x80 PUSH1 0x40 MSTORE CALLVALUE DUP1 ISZERO PUSH2 0x10 JUMPI PUSH1 0x0 DUP1 REVERT JUMPDEST POP PUSH1 0x4 CALLDATASIZE LT PUSH2 0x7D JUMPI PUSH1 0x0 CALLDATALOAD PUSH1 0xE0 SHR DUP1 PUSH4 0xA8FC48FA GT PUSH2 0x5B JUMPI DUP1 PUSH4 0xA8FC48FA EQ PUSH2 0xEA JUMPI DUP1 PUSH4 0xC26DA794 EQ PUSH2 0x106 JUMPI DUP1 PUSH4 0xD0197919 EQ PUSH2 0x110 JUMPI DUP1 PUSH4 0xEE3711BE EQ PUSH2 0x12C JUMPI PUSH2 0x7D JUMP JUMPDEST DUP1 PUSH4 0x7B39A27 EQ PUSH2 0x82 JUMPI DUP1 PUSH4 0x2A3C0F58 EQ PUSH2 0x9E JUMPI DUP1 PUSH4 0x71E5EE5F EQ PUSH2 0xBA JUMPI JUMPDEST PUSH1 0x0 DUP1 REVERT JUMPDEST PUSH2 0x9C PUSH1 0x4 DUP1 CALLDATASIZE SUB DUP2 ADD SWAP1 PUSH2 0x97 SWAP2 SWAP1 PUSH2 0x33A JUMP JUMPDEST PUSH2 0x136 JUMP JUMPDEST STOP JUMPDEST PUSH2 0xB8 PUSH1 0x4 DUP1 CALLDATASIZE SUB DUP2 ADD SWAP1 PUSH2 0xB3 SWAP2 SWAP1 PUSH2 0x540 JUMP JUMPDEST PUSH2 0x190 JUMP JUMPDEST STOP JUMPDEST PUSH2 0xD4 PUSH1 0x4 DUP1 CALLDATASIZE SUB DUP2 ADD SWAP1 PUSH2 0xCF SWAP2 SWAP1 PUSH2 0x589 JUMP JUMPDEST PUSH2 0x193 JUMP JUMPDEST PUSH1 0x40 MLOAD PUSH2 0xE1 SWAP2 SWAP1 PUSH2 0x5C5 JUMP JUMPDEST PUSH1 0x40 MLOAD DUP1 SWAP2 SUB SWAP1 RETURN JUMPDEST PUSH2 0x104 PUSH1 0x4 DUP1 CALLDATASIZE SUB DUP2 ADD SWAP1 PUSH2 0xFF SWAP2 SWAP1 PUSH2 0x695 JUMP JUMPDEST PUSH2 0x1B7 JUMP JUMPDEST STOP JUMPDEST PUSH2 0x10E PUSH2 0x1C4 JUMP JUMPDEST STOP JUMPDEST PUSH2 0x12A PUSH1 0x4 DUP1 CALLDATASIZE SUB DUP2 ADD SWAP1 PUSH2 0x125 SWAP2 SWAP1 PUSH2 0x70D JUMP JUMPDEST PUSH2 0x23E JUMP JUMPDEST STOP JUMPDEST PUSH2 0x134 PUSH2 0x242 JUMP JUMPDEST STOP JUMPDEST PUSH2 0x180 DUP3 DUP3 DUP1 DUP1 PUSH1 0x20 MUL PUSH1 0x20 ADD PUSH1 0x40 MLOAD SWAP1 DUP2 ADD PUSH1 0x40 MSTORE DUP1 SWAP4 SWAP3 SWAP2 SWAP1 DUP2 DUP2 MSTORE PUSH1 0x20 ADD DUP4 DUP4 PUSH1 0x20 MUL DUP1 DUP3 DUP5 CALLDATACOPY PUSH1 0x0 DUP2 DUP5 ADD MSTORE PUSH1 0x1F NOT PUSH1 0x1F DUP3 ADD AND SWAP1 POP DUP1 DUP4 ADD SWAP3 POP POP POP POP POP POP POP PUSH2 0x190 JUMP JUMPDEST PUSH2 0x18A DUP3 DUP3 PUSH2 0x23E JUMP JUMPDEST POP POP POP POP JUMP JUMPDEST POP JUMP JUMPDEST PUSH1 0x0 DUP2 DUP2 SLOAD DUP2 LT PUSH2 0x1A3 JUMPI PUSH1 0x0 DUP1 REVERT JUMPDEST SWAP1 PUSH1 0x0 MSTORE PUSH1 0x20 PUSH1 0x0 KECCAK256 ADD PUSH1 0x0 SWAP2 POP SWAP1 POP SLOAD DUP2 JUMP JUMPDEST PUSH2 0x1C0 DUP2 PUSH2 0x190 JUMP JUMPDEST POP POP JUMP JUMPDEST PUSH1 0x0 DUP1 DUP1 SLOAD DUP1 PUSH1 0x20 MUL PUSH1 0x20 ADD PUSH1 0x40 MLOAD SWAP1 DUP2 ADD PUSH1 0x40 MSTORE DUP1 SWAP3 SWAP2 SWAP1 DUP2 DUP2 MSTORE PUSH1 0x20 ADD DUP3 DUP1 SLOAD DUP1 ISZERO PUSH2 0x211 JUMPI PUSH1 0x20 MUL DUP3 ADD SWAP2 SWAP1 PUSH1 0x0 MSTORE PUSH1 0x20 PUSH1 0x0 KECCAK256 SWAP1 JUMPDEST DUP2 SLOAD DUP2 MSTORE PUSH1 0x20 ADD SWAP1 PUSH1 0x1 ADD SWAP1 DUP1 DUP4 GT PUSH2 0x1FD JUMPI JUMPDEST POP POP POP POP POP SWAP1 POP PUSH2 0x3E7 DUP2 PUSH1 0x1 DUP2 MLOAD DUP2 LT PUSH2 0x22F JUMPI PUSH2 0x22E PUSH2 0x75A JUMP JUMPDEST JUMPDEST PUSH1 0x20 MUL PUSH1 0x20 ADD ADD DUP2 DUP2 MSTORE POP POP POP JUMP JUMPDEST POP POP JUMP JUMPDEST PUSH1 0x0 PUSH1 0x63 DUP2 PUSH1 0x3 DUP2 SLOAD DUP2 LT PUSH2 0x25A JUMPI PUSH2 0x259 PUSH2 0x75A JUMP JUMPDEST JUMPDEST SWAP1 PUSH1 0x0 MSTORE PUSH1 0x20 PUSH1 0x0 KECCAK256 ADD DUP2 SWAP1 SSTORE POP POP JUMP JUMPDEST PUSH1 0x0 PUSH1 0x40 MLOAD SWAP1 POP SWAP1 JUMP JUMPDEST PUSH1 0x0 DUP1 REVERT JUMPDEST PUSH1 0x0 DUP1 REVERT JUMPDEST PUSH1 0x0 DUP1 REVERT JUMPDEST PUSH1 0x0 DUP1 REVERT JUMPDEST PUSH1 0x0 DUP1 REVERT JUMPDEST PUSH1 0x0 DUP1 DUP4 PUSH1 0x1F DUP5 ADD SLT PUSH2 0x2A4 JUMPI PUSH2 0x2A3 PUSH2 0x27F JUMP JUMPDEST JUMPDEST DUP3 CALLDATALOAD SWAP1 POP PUSH8 0xFFFFFFFFFFFFFFFF DUP2 GT ISZERO PUSH2 0x2C1 JUMPI PUSH2 0x2C0 PUSH2 0x284 JUMP JUMPDEST JUMPDEST PUSH1 0x20 DUP4 ADD SWAP2 POP DUP4 PUSH1 0x1 DUP3 MUL DUP4 ADD GT ISZERO PUSH2 0x2DD JUMPI PUSH2 0x2DC PUSH2 0x289 JUMP JUMPDEST JUMPDEST SWAP3 POP SWAP3 SWAP1 POP JUMP JUMPDEST PUSH1 0x0 DUP1 DUP4 PUSH1 0x1F DUP5 ADD SLT PUSH2 0x2FA JUMPI PUSH2 0x2F9 PUSH2 0x27F JUMP JUMPDEST JUMPDEST DUP3 CALLDATALOAD SWAP1 POP PUSH8 0xFFFFFFFFFFFFFFFF DUP2 GT ISZERO PUSH2 0x317 JUMPI PUSH2 0x316 PUSH2 0x284 JUMP JUMPDEST JUMPDEST PUSH1 0x20 DUP4 ADD SWAP2 POP DUP4 PUSH1 0x20 DUP3 MUL DUP4 ADD GT ISZERO PUSH2 0x333 JUMPI PUSH2 0x332 PUSH2 0x289 JUMP JUMPDEST JUMPDEST SWAP3 POP SWAP3 SWAP1 POP JUMP JUMPDEST PUSH1 0x0 DUP1 PUSH1 0x0 DUP1 PUSH1 0x40 DUP6 DUP8 SUB SLT ISZERO PUSH2 0x354 JUMPI PUSH2 0x353 PUSH2 0x275 JUMP JUMPDEST JUMPDEST PUSH1 0x0 DUP6 ADD CALLDATALOAD PUSH8 0xFFFFFFFFFFFFFFFF DUP2 GT ISZERO PUSH2 0x372 JUMPI PUSH2 0x371 PUSH2 0x27A JUMP JUMPDEST JUMPDEST PUSH2 0x37E DUP8 DUP3 DUP9 ADD PUSH2 0x28E JUMP JUMPDEST SWAP5 POP SWAP5 POP POP PUSH1 0x20 DUP6 ADD CALLDATALOAD PUSH8 0xFFFFFFFFFFFFFFFF DUP2 GT ISZERO PUSH2 0x3A1 JUMPI PUSH2 0x3A0 PUSH2 0x27A JUMP JUMPDEST JUMPDEST PUSH2 0x3AD DUP8 DUP3 DUP9 ADD PUSH2 0x2E4 JUMP JUMPDEST SWAP3 POP SWAP3 POP POP SWAP3 SWAP6 SWAP2 SWAP5 POP SWAP3 POP JUMP JUMPDEST PUSH1 0x0 PUSH1 0x1F NOT PUSH1 0x1F DUP4 ADD AND SWAP1 POP SWAP2 SWAP1 POP JUMP JUMPDEST PUSH32 0x4E487B7100000000000000000000000000000000000000000000000000000000 PUSH1 0x0 MSTORE PUSH1 0x41 PUSH1 0x4 MSTORE PUSH1 0x24 PUSH1 0x0 REVERT JUMPDEST PUSH2 0x404 DUP3 PUSH2 0x3BB JUMP JUMPDEST DUP2 ADD DUP2 DUP2 LT PUSH8 0xFFFFFFFFFFFFFFFF DUP3 GT OR ISZERO PUSH2 0x423 JUMPI PUSH2 0x422 PUSH2 0x3CC JUMP JUMPDEST JUMPDEST DUP1 PUSH1 0x40 MSTORE POP POP POP JUMP JUMPDEST PUSH1 0x0 PUSH2 0x436 PUSH2 0x26B JUMP JUMPDEST SWAP1 POP PUSH2 0x442 DUP3 DUP3 PUSH2 0x3FB JUMP JUMPDEST SWAP2 SWAP1 POP JUMP JUMPDEST PUSH1 0x0 PUSH8 0xFFFFFFFFFFFFFFFF DUP3 GT ISZERO PUSH2 0x462 JUMPI PUSH2 0x461 PUSH2 0x3CC JUMP JUMPDEST JUMPDEST PUSH1 0x20 DUP3 MUL SWAP1 POP PUSH1 0x20 DUP2 ADD SWAP1 POP SWAP2 SWAP1 POP JUMP JUMPDEST PUSH1 0x0 DUP2 SWAP1 POP SWAP2 SWAP1 POP JUMP JUMPDEST PUSH2 0x486 DUP2 PUSH2 0x473 JUMP JUMPDEST DUP2 EQ PUSH2 0x491 JUMPI PUSH1 0x0 DUP1 REVERT JUMPDEST POP JUMP JUMPDEST PUSH1 0x0 DUP2 CALLDATALOAD SWAP1 POP PUSH2 0x4A3 DUP2 PUSH2 0x47D JUMP JUMPDEST SWAP3 SWAP2 POP POP JUMP JUMPDEST PUSH1 0x0 PUSH2 0x4BC PUSH2 0x4B7 DUP5 PUSH2 0x447 JUMP JUMPDEST PUSH2 0x42C JUMP JUMPDEST SWAP1 POP DUP1 DUP4 DUP3 MSTORE PUSH1 0x20 DUP3 ADD SWAP1 POP PUSH1 0x20 DUP5 MUL DUP4 ADD DUP6 DUP2 GT ISZERO PUSH2 0x4DF JUMPI PUSH2 0x4DE PUSH2 0x289 JUMP JUMPDEST JUMPDEST DUP4 JUMPDEST DUP2 DUP2 LT ISZERO PUSH2 0x508 JUMPI DUP1 PUSH2 0x4F4 DUP9 DUP3 PUSH2 0x494 JUMP JUMPDEST DUP5 MSTORE PUSH1 0x20 DUP5 ADD SWAP4 POP POP PUSH1 0x20 DUP2 ADD SWAP1 POP PUSH2 0x4E1 JUMP JUMPDEST POP POP POP SWAP4 SWAP3 POP POP POP JUMP JUMPDEST PUSH1 0x0 DUP3 PUSH1 0x1F DUP4 ADD SLT PUSH2 0x527 JUMPI PUSH2 0x526 PUSH2 0x27F JUMP JUMPDEST JUMPDEST DUP2 CALLDATALOAD PUSH2 0x537 DUP5 DUP3 PUSH1 0x20 DUP7 ADD PUSH2 0x4A9 JUMP JUMPDEST SWAP2 POP POP SWAP3 SWAP2 POP POP JUMP JUMPDEST PUSH1 0x0 PUSH1 0x20 DUP3 DUP5 SUB SLT ISZERO PUSH2 0x556 JUMPI PUSH2 0x555 PUSH2 0x275 JUMP JUMPDEST JUMPDEST PUSH1 0x0 DUP3 ADD CALLDATALOAD PUSH8 0xFFFFFFFFFFFFFFFF DUP2 GT ISZERO PUSH2 0x574 JUMPI PUSH2 0x573 PUSH2 0x27A JUMP JUMPDEST JUMPDEST PUSH2 0x580 DUP5 DUP3 DUP6 ADD PUSH2 0x512 JUMP JUMPDEST SWAP2 POP POP SWAP3 SWAP2 POP POP JUMP JUMPDEST PUSH1 0x0 PUSH1 0x20 DUP3 DUP5 SUB SLT ISZERO PUSH2 0x59F JUMPI PUSH2 0x59E PUSH2 0x275 JUMP JUMPDEST JUMPDEST PUSH1 0x0 PUSH2 0x5AD DUP5 DUP3 DUP6 ADD PUSH2 0x494 JUMP JUMPDEST SWAP2 POP POP SWAP3 SWAP2 POP POP JUMP JUMPDEST PUSH2 0x5BF DUP2 PUSH2 0x473 JUMP JUMPDEST DUP3 MSTORE POP POP JUMP JUMPDEST PUSH1 0x0 PUSH1 0x20 DUP3 ADD SWAP1 POP PUSH2 0x5DA PUSH1 0x0 DUP4 ADD DUP5 PUSH2 0x5B6 JUMP JUMPDEST SWAP3 SWAP2 POP POP JUMP JUMPDEST PUSH1 0x0 DUP1 REVERT JUMPDEST PUSH1 0x0 PUSH8 0xFFFFFFFFFFFFFFFF DUP3 GT ISZERO PUSH2 0x600 JUMPI PUSH2 0x5FF PUSH2 0x3CC JUMP JUMPDEST JUMPDEST PUSH2 0x609 DUP3 PUSH2 0x3BB JUMP JUMPDEST SWAP1 POP PUSH1 0x20 DUP2 ADD SWAP1 POP SWAP2 SWAP1 POP JUMP JUMPDEST DUP3 DUP2 DUP4 CALLDATACOPY PUSH1 0x0 DUP4 DUP4 ADD MSTORE POP POP POP JUMP JUMPDEST PUSH1 0x0 PUSH2 0x638 PUSH2 0x633 DUP5 PUSH2 0x5E5 JUMP JUMPDEST PUSH2 0x42C JUMP JUMPDEST SWAP1 POP DUP3 DUP2 MSTORE PUSH1 0x20 DUP2 ADD DUP5 DUP5 DUP5 ADD GT ISZERO PUSH2 0x654 JUMPI PUSH2 0x653 PUSH2 0x5E0 JUMP JUMPDEST JUMPDEST PUSH2 0x65F DUP5 DUP3 DUP6 PUSH2 0x616 JUMP JUMPDEST POP SWAP4 SWAP3 POP POP POP JUMP JUMPDEST PUSH1 0x0 DUP3 PUSH1 0x1F DUP4 ADD SLT PUSH2 0x67C JUMPI PUSH2 0x67B PUSH2 0x27F JUMP JUMPDEST JUMPDEST DUP2 CALLDATALOAD PUSH2 0x68C DUP5 DUP3 PUSH1 0x20 DUP7 ADD PUSH2 0x625 JUMP JUMPDEST SWAP2 POP POP SWAP3 SWAP2 POP POP JUMP JUMPDEST PUSH1 0x0 DUP1 PUSH1 0x40 DUP4 DUP6 SUB SLT ISZERO PUSH2 0x6AC JUMPI PUSH2 0x6AB PUSH2 0x275 JUMP JUMPDEST JUMPDEST PUSH1 0x0 DUP4 ADD CALLDATALOAD PUSH8 0xFFFFFFFFFFFFFFFF DUP2 GT ISZERO PUSH2 0x6CA JUMPI PUSH2 0x6C9 PUSH2 0x27A JUMP JUMPDEST JUMPDEST PUSH2 0x6D6 DUP6 DUP3 DUP7 ADD PUSH2 0x667 JUMP JUMPDEST SWAP3 POP POP PUSH1 0x20 DUP4 ADD CALLDATALOAD PUSH8 0xFFFFFFFFFFFFFFFF DUP2 GT ISZERO PUSH2 0x6F7 JUMPI PUSH2 0x6F6 PUSH2 0x27A JUMP JUMPDEST JUMPDEST PUSH2 0x703 DUP6 DUP3 DUP7 ADD PUSH2 0x512 JUMP JUMPDEST SWAP2 POP POP SWAP3 POP SWAP3 SWAP1 POP JUMP JUMPDEST PUSH1 0x0 DUP1 PUSH1 0x20 DUP4 DUP6 SUB SLT ISZERO PUSH2 0x724 JUMPI PUSH2 0x723 PUSH2 0x275 JUMP JUMPDEST JUMPDEST PUSH1 0x0 DUP4 ADD CALLDATALOAD PUSH8 0xFFFFFFFFFFFFFFFF DUP2 GT ISZERO PUSH2 0x742 JUMPI PUSH2 0x741 PUSH2 0x27A JUMP JUMPDEST JUMPDEST PUSH2 0x74E DUP6 DUP3 DUP7 ADD PUSH2 0x2E4 JUMP JUMPDEST SWAP3 POP SWAP3 POP POP SWAP3 POP SWAP3 SWAP1 POP JUMP JUMPDEST PUSH32 0x4E487B7100000000000000000000000000000000000000000000000000000000 PUSH1 0x0 MSTORE PUSH1 0x32 PUSH1 0x4 MSTORE PUSH1 0x24 PUSH1 0x0 REVERT INVALID LOG2 PUSH5 0x6970667358 0x22 SLT KECCAK256 0xF SDIV MSTORE8 0x27 0xAE 0xED PUSH25 0x8A93C51EAD58CD7467B2BF84D6DD3563E64DDBBD5E4F913D24 PUSH5 0x736F6C6343 STOP ADDMOD SLT STOP CALLER "
				},
				"gasEstimates": {
					"creation": {
						"codeDepositCost": "396600",
						"executionCost": "infinite",
						"totalCost": "infinite"
					},
					"external": {
						"CallData(string,uint256[])": "infinite",
						"Memory()": "infinite",
						"Memory(string,uint256[])": "infinite",
						"Storage()": "24509",
						"arr(uint256)": "infinite",
						"getInCallData(uint256[])": "518",
						"getInMemory(uint256[])": "infinite"
					}
				},
				"methodIdentifiers": {
					"CallData(string,uint256[])": "07b39a27",
					"Memory()": "c26da794",
					"Memory(string,uint256[])": "a8fc48fa",
					"Storage()": "ee3711be",
					"arr(uint256)": "71e5ee5f",
					"getInCallData(uint256[])": "d0197919",
					"getInMemory(uint256[])": "2a3c0f58"
				}
			},
			"storageLayout": {
				"storage": [
					{
						"astId": 10,
						"contract": "37_datalocation.sol:dataLocation",
						"label": "arr",
						"offset": 0,
						"slot": "0",
						"type": "t_array(t_uint256)dyn_storage"
					}
				],
				"types": {
					"t_array(t_uint256)dyn_storage": {
						"base": "t_uint256",
						"encoding": "dynamic_array",
						"label": "uint256[]",
						"numberOfBytes": "32"
					},
					"t_uint256": {
						"encoding": "inplace",
						"label": "uint256",
						"numberOfBytes": "32"
					}
				}
			},
			"userdoc": {
				"kind": "user",
				"methods": {},
				"version": 1
			}
		}
	}
}