{
	"7_viewPureSimple.sol": {
		"viewPureAndSimple": {
			"abi": [
				{
					"inputs": [],
					"name": "age",
					"outputs": [
						{
							"internalType": "uint256",
							"name": "",
							"type": "uint256"
						}
					],
					"stateMutability": "view",
					"type": "function"
				},
				{
					"inputs": [],
					"name": "dummy",
					"outputs": [
						{
							"internalType": "uint256",
							"name": "",
							"type": "uint256"
						}
					],
					"stateMutability": "view",
					"type": "function"
				},
				{
					"inputs": [
						{
							"internalType": "uint256",
							"name": "_x",
							"type": "uint256"
						}
					],
					"name": "pureFunciton_another",
					"outputs": [
						{
							"internalType": "uint256",
							"name": "",
							"type": "uint256"
						}
					],
					"stateMutability": "pure",
					"type": "function"
				},
				{
					"inputs": [],
					"name": "pureFunciton_one",
					"outputs": [
						{
							"internalType": "uint256",
							"name": "",
							"type": "uint256"
						}
					],
					"stateMutability": "pure",
					"type": "function"
				},
				{
					"inputs": [],
					"name": "simpleFunciton",
					"outputs": [],
					"stateMutability": "nonpayable",
					"type": "function"
				},
				{
					"inputs": [],
					"name": "viewFunction",
					"outputs": [
						{
							"internalType": "uint256",
							"name": "",
							"type": "uint256"
						}
					],
					"stateMutability": "view",
					"type": "function"
				}
			],
			"devdoc": {
				"kind": "dev",
				"methods": {},
				"version": 1
			},
			"evm": {
				"assembly": "    /* \"7_viewPureSimple.sol\":310:939  contract viewPureAndSimple{... */\n  mstore(0x40, 0x80)\n    /* \"7_viewPureSimple.sol\":361:363  20 */\n  0x14\n    /* \"7_viewPureSimple.sol\":343:363  uint public age = 20 */\n  0x00\n  sstore\n    /* \"7_viewPureSimple.sol\":310:939  contract viewPureAndSimple{... */\n  callvalue\n  dup1\n  iszero\n  tag_1\n  jumpi\n  0x00\n  dup1\n  revert\ntag_1:\n  pop\n  dataSize(sub_0)\n  dup1\n  dataOffset(sub_0)\n  0x00\n  codecopy\n  0x00\n  return\nstop\n\nsub_0: assembly {\n        /* \"7_viewPureSimple.sol\":310:939  contract viewPureAndSimple{... */\n      mstore(0x40, 0x80)\n      callvalue\n      dup1\n      iszero\n      tag_1\n      jumpi\n      0x00\n      dup1\n      revert\n    tag_1:\n      pop\n      jumpi(tag_2, lt(calldatasize, 0x04))\n      shr(0xe0, calldataload(0x00))\n      dup1\n      0x262a9dff\n      eq\n      tag_3\n      jumpi\n      dup1\n      0x32e43a11\n      eq\n      tag_4\n      jumpi\n      dup1\n      0x47e957ee\n      eq\n      tag_5\n      jumpi\n      dup1\n      0x67d00ed1\n      eq\n      tag_6\n      jumpi\n      dup1\n      0xc29dcc80\n      eq\n      tag_7\n      jumpi\n      dup1\n      0xed36b3d8\n      eq\n      tag_8\n      jumpi\n    tag_2:\n      0x00\n      dup1\n      revert\n        /* \"7_viewPureSimple.sol\":343:363  uint public age = 20 */\n    tag_3:\n      tag_9\n      tag_10\n      jump\t// in\n    tag_9:\n      mload(0x40)\n      tag_11\n      swap2\n      swap1\n      tag_12\n      jump\t// in\n    tag_11:\n      mload(0x40)\n      dup1\n      swap2\n      sub\n      swap1\n      return\n        /* \"7_viewPureSimple.sol\":861:934  function dummy() public view returns(uint){... */\n    tag_4:\n      tag_13\n      tag_14\n      jump\t// in\n    tag_13:\n      mload(0x40)\n      tag_15\n      swap2\n      swap1\n      tag_12\n      jump\t// in\n    tag_15:\n      mload(0x40)\n      dup1\n      swap2\n      sub\n      swap1\n      return\n        /* \"7_viewPureSimple.sol\":561:642  function pureFunciton_one() public pure returns(uint) {... */\n    tag_5:\n      tag_16\n      tag_17\n      jump\t// in\n    tag_16:\n      mload(0x40)\n      tag_18\n      swap2\n      swap1\n      tag_12\n      jump\t// in\n    tag_18:\n      mload(0x40)\n      dup1\n      swap2\n      sub\n      swap1\n      return\n        /* \"7_viewPureSimple.sol\":650:743  function pureFunciton_another(uint _x) public pure returns(uint) {... */\n    tag_6:\n      tag_19\n      0x04\n      dup1\n      calldatasize\n      sub\n      dup2\n      add\n      swap1\n      tag_20\n      swap2\n      swap1\n      tag_21\n      jump\t// in\n    tag_20:\n      tag_22\n      jump\t// in\n    tag_19:\n      mload(0x40)\n      tag_23\n      swap2\n      swap1\n      tag_12\n      jump\t// in\n    tag_23:\n      mload(0x40)\n      dup1\n      swap2\n      sub\n      swap1\n      return\n        /* \"7_viewPureSimple.sol\":789:853  function simpleFunciton() public {... */\n    tag_7:\n      tag_24\n      tag_25\n      jump\t// in\n    tag_24:\n      stop\n        /* \"7_viewPureSimple.sol\":391:524  function viewFunction() public view returns(uint) {... */\n    tag_8:\n      tag_26\n      tag_27\n      jump\t// in\n    tag_26:\n      mload(0x40)\n      tag_28\n      swap2\n      swap1\n      tag_12\n      jump\t// in\n    tag_28:\n      mload(0x40)\n      dup1\n      swap2\n      sub\n      swap1\n      return\n        /* \"7_viewPureSimple.sol\":343:363  uint public age = 20 */\n    tag_10:\n      sload(0x00)\n      dup2\n      jump\t// out\n        /* \"7_viewPureSimple.sol\":861:934  function dummy() public view returns(uint){... */\n    tag_14:\n        /* \"7_viewPureSimple.sol\":898:902  uint */\n      0x00\n        /* \"7_viewPureSimple.sol\":924:926  10 */\n      0x0a\n        /* \"7_viewPureSimple.sol\":920:923  age */\n      sload(0x00)\n        /* \"7_viewPureSimple.sol\":920:926  age+10 */\n      tag_30\n      swap2\n      swap1\n      tag_31\n      jump\t// in\n    tag_30:\n        /* \"7_viewPureSimple.sol\":913:926  return age+10 */\n      swap1\n      pop\n        /* \"7_viewPureSimple.sol\":861:934  function dummy() public view returns(uint){... */\n      swap1\n      jump\t// out\n        /* \"7_viewPureSimple.sol\":561:642  function pureFunciton_one() public pure returns(uint) {... */\n    tag_17:\n        /* \"7_viewPureSimple.sol\":609:613  uint */\n      0x00\n        /* \"7_viewPureSimple.sol\":633:634  1 */\n      0x01\n        /* \"7_viewPureSimple.sol\":626:634  return 1 */\n      swap1\n      pop\n        /* \"7_viewPureSimple.sol\":561:642  function pureFunciton_one() public pure returns(uint) {... */\n      swap1\n      jump\t// out\n        /* \"7_viewPureSimple.sol\":650:743  function pureFunciton_another(uint _x) public pure returns(uint) {... */\n    tag_22:\n        /* \"7_viewPureSimple.sol\":709:713  uint */\n      0x00\n        /* \"7_viewPureSimple.sol\":733:735  _x */\n      dup2\n        /* \"7_viewPureSimple.sol\":726:735  return _x */\n      swap1\n      pop\n        /* \"7_viewPureSimple.sol\":650:743  function pureFunciton_another(uint _x) public pure returns(uint) {... */\n      swap2\n      swap1\n      pop\n      jump\t// out\n        /* \"7_viewPureSimple.sol\":789:853  function simpleFunciton() public {... */\n    tag_25:\n        /* \"7_viewPureSimple.sol\":843:845  10 */\n      0x0a\n        /* \"7_viewPureSimple.sol\":839:842  age */\n      sload(0x00)\n        /* \"7_viewPureSimple.sol\":839:845  age+10 */\n      tag_35\n      swap2\n      swap1\n      tag_31\n      jump\t// in\n    tag_35:\n        /* \"7_viewPureSimple.sol\":833:836  age */\n      0x00\n        /* \"7_viewPureSimple.sol\":833:845  age = age+10 */\n      dup2\n      swap1\n      sstore\n      pop\n        /* \"7_viewPureSimple.sol\":789:853  function simpleFunciton() public {... */\n      jump\t// out\n        /* \"7_viewPureSimple.sol\":391:524  function viewFunction() public view returns(uint) {... */\n    tag_27:\n        /* \"7_viewPureSimple.sol\":435:439  uint */\n      0x00\n        /* \"7_viewPureSimple.sol\":459:462  age */\n      dup1\n      sload\n        /* \"7_viewPureSimple.sol\":452:462  return age */\n      swap1\n      pop\n        /* \"7_viewPureSimple.sol\":391:524  function viewFunction() public view returns(uint) {... */\n      swap1\n      jump\t// out\n        /* \"#utility.yul\":7:84   */\n    tag_37:\n        /* \"#utility.yul\":44:51   */\n      0x00\n        /* \"#utility.yul\":73:78   */\n      dup2\n        /* \"#utility.yul\":62:78   */\n      swap1\n      pop\n        /* \"#utility.yul\":7:84   */\n      swap2\n      swap1\n      pop\n      jump\t// out\n        /* \"#utility.yul\":90:208   */\n    tag_38:\n        /* \"#utility.yul\":177:201   */\n      tag_48\n        /* \"#utility.yul\":195:200   */\n      dup2\n        /* \"#utility.yul\":177:201   */\n      tag_37\n      jump\t// in\n    tag_48:\n        /* \"#utility.yul\":172:175   */\n      dup3\n        /* \"#utility.yul\":165:202   */\n      mstore\n        /* \"#utility.yul\":90:208   */\n      pop\n      pop\n      jump\t// out\n        /* \"#utility.yul\":214:436   */\n    tag_12:\n        /* \"#utility.yul\":307:311   */\n      0x00\n        /* \"#utility.yul\":345:347   */\n      0x20\n        /* \"#utility.yul\":334:343   */\n      dup3\n        /* \"#utility.yul\":330:348   */\n      add\n        /* \"#utility.yul\":322:348   */\n      swap1\n      pop\n        /* \"#utility.yul\":358:429   */\n      tag_50\n        /* \"#utility.yul\":426:427   */\n      0x00\n        /* \"#utility.yul\":415:424   */\n      dup4\n        /* \"#utility.yul\":411:428   */\n      add\n        /* \"#utility.yul\":402:408   */\n      dup5\n        /* \"#utility.yul\":358:429   */\n      tag_38\n      jump\t// in\n    tag_50:\n        /* \"#utility.yul\":214:436   */\n      swap3\n      swap2\n      pop\n      pop\n      jump\t// out\n        /* \"#utility.yul\":523:640   */\n    tag_40:\n        /* \"#utility.yul\":632:633   */\n      0x00\n        /* \"#utility.yul\":629:630   */\n      dup1\n        /* \"#utility.yul\":622:634   */\n      revert\n        /* \"#utility.yul\":769:891   */\n    tag_42:\n        /* \"#utility.yul\":842:866   */\n      tag_55\n        /* \"#utility.yul\":860:865   */\n      dup2\n        /* \"#utility.yul\":842:866   */\n      tag_37\n      jump\t// in\n    tag_55:\n        /* \"#utility.yul\":835:840   */\n      dup2\n        /* \"#utility.yul\":832:867   */\n      eq\n        /* \"#utility.yul\":822:885   */\n      tag_56\n      jumpi\n        /* \"#utility.yul\":881:882   */\n      0x00\n        /* \"#utility.yul\":878:879   */\n      dup1\n        /* \"#utility.yul\":871:883   */\n      revert\n        /* \"#utility.yul\":822:885   */\n    tag_56:\n        /* \"#utility.yul\":769:891   */\n      pop\n      jump\t// out\n        /* \"#utility.yul\":897:1036   */\n    tag_43:\n        /* \"#utility.yul\":943:948   */\n      0x00\n        /* \"#utility.yul\":981:987   */\n      dup2\n        /* \"#utility.yul\":968:988   */\n      calldataload\n        /* \"#utility.yul\":959:988   */\n      swap1\n      pop\n        /* \"#utility.yul\":997:1030   */\n      tag_58\n        /* \"#utility.yul\":1024:1029   */\n      dup2\n        /* \"#utility.yul\":997:1030   */\n      tag_42\n      jump\t// in\n    tag_58:\n        /* \"#utility.yul\":897:1036   */\n      swap3\n      swap2\n      pop\n      pop\n      jump\t// out\n        /* \"#utility.yul\":1042:1371   */\n    tag_21:\n        /* \"#utility.yul\":1101:1107   */\n      0x00\n        /* \"#utility.yul\":1150:1152   */\n      0x20\n        /* \"#utility.yul\":1138:1147   */\n      dup3\n        /* \"#utility.yul\":1129:1136   */\n      dup5\n        /* \"#utility.yul\":1125:1148   */\n      sub\n        /* \"#utility.yul\":1121:1153   */\n      slt\n        /* \"#utility.yul\":1118:1237   */\n      iszero\n      tag_60\n      jumpi\n        /* \"#utility.yul\":1156:1235   */\n      tag_61\n      tag_40\n      jump\t// in\n    tag_61:\n        /* \"#utility.yul\":1118:1237   */\n    tag_60:\n        /* \"#utility.yul\":1276:1277   */\n      0x00\n        /* \"#utility.yul\":1301:1354   */\n      tag_62\n        /* \"#utility.yul\":1346:1353   */\n      dup5\n        /* \"#utility.yul\":1337:1343   */\n      dup3\n        /* \"#utility.yul\":1326:1335   */\n      dup6\n        /* \"#utility.yul\":1322:1344   */\n      add\n        /* \"#utility.yul\":1301:1354   */\n      tag_43\n      jump\t// in\n    tag_62:\n        /* \"#utility.yul\":1291:1354   */\n      swap2\n      pop\n        /* \"#utility.yul\":1247:1364   */\n      pop\n        /* \"#utility.yul\":1042:1371   */\n      swap3\n      swap2\n      pop\n      pop\n      jump\t// out\n        /* \"#utility.yul\":1377:1557   */\n    tag_44:\n        /* \"#utility.yul\":1425:1502   */\n      0x4e487b7100000000000000000000000000000000000000000000000000000000\n        /* \"#utility.yul\":1422:1423   */\n      0x00\n        /* \"#utility.yul\":1415:1503   */\n      mstore\n        /* \"#utility.yul\":1522:1526   */\n      0x11\n        /* \"#utility.yul\":1519:1520   */\n      0x04\n        /* \"#utility.yul\":1512:1527   */\n      mstore\n        /* \"#utility.yul\":1546:1550   */\n      0x24\n        /* \"#utility.yul\":1543:1544   */\n      0x00\n        /* \"#utility.yul\":1536:1551   */\n      revert\n        /* \"#utility.yul\":1563:1754   */\n    tag_31:\n        /* \"#utility.yul\":1603:1606   */\n      0x00\n        /* \"#utility.yul\":1622:1642   */\n      tag_65\n        /* \"#utility.yul\":1640:1641   */\n      dup3\n        /* \"#utility.yul\":1622:1642   */\n      tag_37\n      jump\t// in\n    tag_65:\n        /* \"#utility.yul\":1617:1642   */\n      swap2\n      pop\n        /* \"#utility.yul\":1656:1676   */\n      tag_66\n        /* \"#utility.yul\":1674:1675   */\n      dup4\n        /* \"#utility.yul\":1656:1676   */\n      tag_37\n      jump\t// in\n    tag_66:\n        /* \"#utility.yul\":1651:1676   */\n      swap3\n      pop\n        /* \"#utility.yul\":1699:1700   */\n      dup3\n        /* \"#utility.yul\":1696:1697   */\n      dup3\n        /* \"#utility.yul\":1692:1701   */\n      add\n        /* \"#utility.yul\":1685:1701   */\n      swap1\n      pop\n        /* \"#utility.yul\":1720:1723   */\n      dup1\n        /* \"#utility.yul\":1717:1718   */\n      dup3\n        /* \"#utility.yul\":1714:1724   */\n      gt\n        /* \"#utility.yul\":1711:1747   */\n      iszero\n      tag_67\n      jumpi\n        /* \"#utility.yul\":1727:1745   */\n      tag_68\n      tag_44\n      jump\t// in\n    tag_68:\n        /* \"#utility.yul\":1711:1747   */\n    tag_67:\n        /* \"#utility.yul\":1563:1754   */\n      swap3\n      swap2\n      pop\n      pop\n      jump\t// out\n\n    auxdata: 0xa264697066735822122019e6cb3bee38ae7360f1c914524c81946e9f3203855c6f9e2cbc24903c9cb2e064736f6c63430008120033\n}\n",
				"bytecode": {
					"linkReferences": {},
					"object": "6080604052601460005534801561001557600080fd5b50610293806100256000396000f3fe608060405234801561001057600080fd5b50600436106100625760003560e01c8063262a9dff1461006757806332e43a111461008557806347e957ee146100a357806367d00ed1146100c1578063c29dcc80146100f1578063ed36b3d8146100fb575b600080fd5b61006f610119565b60405161007c9190610181565b60405180910390f35b61008d61011f565b60405161009a9190610181565b60405180910390f35b6100ab610135565b6040516100b89190610181565b60405180910390f35b6100db60048036038101906100d691906101cd565b61013e565b6040516100e89190610181565b60405180910390f35b6100f9610148565b005b61010361015f565b6040516101109190610181565b60405180910390f35b60005481565b6000600a6000546101309190610229565b905090565b60006001905090565b6000819050919050565b600a6000546101579190610229565b600081905550565b60008054905090565b6000819050919050565b61017b81610168565b82525050565b60006020820190506101966000830184610172565b92915050565b600080fd5b6101aa81610168565b81146101b557600080fd5b50565b6000813590506101c7816101a1565b92915050565b6000602082840312156101e3576101e261019c565b5b60006101f1848285016101b8565b91505092915050565b7f4e487b7100000000000000000000000000000000000000000000000000000000600052601160045260246000fd5b600061023482610168565b915061023f83610168565b9250828201905080821115610257576102566101fa565b5b9291505056fea264697066735822122019e6cb3bee38ae7360f1c914524c81946e9f3203855c6f9e2cbc24903c9cb2e064736f6c63430008120033",
					"opcodes": "PUSH1 0x80 PUSH1 0x40 MSTORE PUSH1 0x14 PUSH1 0x0 SSTORE CALLVALUE DUP1 ISZERO PUSH2 0x15 JUMPI PUSH1 0x0 DUP1 REVERT JUMPDEST POP PUSH2 0x293 DUP1 PUSH2 0x25 PUSH1 0x0 CODECOPY PUSH1 0x0 RETURN INVALID PUSH1 0x80 PUSH1 0x40 MSTORE CALLVALUE DUP1 ISZERO PUSH2 0x10 JUMPI PUSH1 0x0 DUP1 REVERT JUMPDEST POP PUSH1 0x4 CALLDATASIZE LT PUSH2 0x62 JUMPI PUSH1 0x0 CALLDATALOAD PUSH1 0xE0 SHR DUP1 PUSH4 0x262A9DFF EQ PUSH2 0x67 JUMPI DUP1 PUSH4 0x32E43A11 EQ PUSH2 0x85 JUMPI DUP1 PUSH4 0x47E957EE EQ PUSH2 0xA3 JUMPI DUP1 PUSH4 0x67D00ED1 EQ PUSH2 0xC1 JUMPI DUP1 PUSH4 0xC29DCC80 EQ PUSH2 0xF1 JUMPI DUP1 PUSH4 0xED36B3D8 EQ PUSH2 0xFB JUMPI JUMPDEST PUSH1 0x0 DUP1 REVERT JUMPDEST PUSH2 0x6F PUSH2 0x119 JUMP JUMPDEST PUSH1 0x40 MLOAD PUSH2 0x7C SWAP2 SWAP1 PUSH2 0x181 JUMP JUMPDEST PUSH1 0x40 MLOAD DUP1 SWAP2 SUB SWAP1 RETURN JUMPDEST PUSH2 0x8D PUSH2 0x11F JUMP JUMPDEST PUSH1 0x40 MLOAD PUSH2 0x9A SWAP2 SWAP1 PUSH2 0x181 JUMP JUMPDEST PUSH1 0x40 MLOAD DUP1 SWAP2 SUB SWAP1 RETURN JUMPDEST PUSH2 0xAB PUSH2 0x135 JUMP JUMPDEST PUSH1 0x40 MLOAD PUSH2 0xB8 SWAP2 SWAP1 PUSH2 0x181 JUMP JUMPDEST PUSH1 0x40 MLOAD DUP1 SWAP2 SUB SWAP1 RETURN JUMPDEST PUSH2 0xDB PUSH1 0x4 DUP1 CALLDATASIZE SUB DUP2 ADD SWAP1 PUSH2 0xD6 SWAP2 SWAP1 PUSH2 0x1CD JUMP JUMPDEST PUSH2 0x13E JUMP JUMPDEST PUSH1 0x40 MLOAD PUSH2 0xE8 SWAP2 SWAP1 PUSH2 0x181 JUMP JUMPDEST PUSH1 0x40 MLOAD DUP1 SWAP2 SUB SWAP1 RETURN JUMPDEST PUSH2 0xF9 PUSH2 0x148 JUMP JUMPDEST STOP JUMPDEST PUSH2 0x103 PUSH2 0x15F JUMP JUMPDEST PUSH1 0x40 MLOAD PUSH2 0x110 SWAP2 SWAP1 PUSH2 0x181 JUMP JUMPDEST PUSH1 0x40 MLOAD DUP1 SWAP2 SUB SWAP1 RETURN JUMPDEST PUSH1 0x0 SLOAD DUP2 JUMP JUMPDEST PUSH1 0x0 PUSH1 0xA PUSH1 0x0 SLOAD PUSH2 0x130 SWAP2 SWAP1 PUSH2 0x229 JUMP JUMPDEST SWAP1 POP SWAP1 JUMP JUMPDEST PUSH1 0x0 PUSH1 0x1 SWAP1 POP SWAP1 JUMP JUMPDEST PUSH1 0x0 DUP2 SWAP1 POP SWAP2 SWAP1 POP JUMP JUMPDEST PUSH1 0xA PUSH1 0x0 SLOAD PUSH2 0x157 SWAP2 SWAP1 PUSH2 0x229 JUMP JUMPDEST PUSH1 0x0 DUP2 SWAP1 SSTORE POP JUMP JUMPDEST PUSH1 0x0 DUP1 SLOAD SWAP1 POP SWAP1 JUMP JUMPDEST PUSH1 0x0 DUP2 SWAP1 POP SWAP2 SWAP1 POP JUMP JUMPDEST PUSH2 0x17B DUP2 PUSH2 0x168 JUMP JUMPDEST DUP3 MSTORE POP POP JUMP JUMPDEST PUSH1 0x0 PUSH1 0x20 DUP3 ADD SWAP1 POP PUSH2 0x196 PUSH1 0x0 DUP4 ADD DUP5 PUSH2 0x172 JUMP JUMPDEST SWAP3 SWAP2 POP POP JUMP JUMPDEST PUSH1 0x0 DUP1 REVERT JUMPDEST PUSH2 0x1AA DUP2 PUSH2 0x168 JUMP JUMPDEST DUP2 EQ PUSH2 0x1B5 JUMPI PUSH1 0x0 DUP1 REVERT JUMPDEST POP JUMP JUMPDEST PUSH1 0x0 DUP2 CALLDATALOAD SWAP1 POP PUSH2 0x1C7 DUP2 PUSH2 0x1A1 JUMP JUMPDEST SWAP3 SWAP2 POP POP JUMP JUMPDEST PUSH1 0x0 PUSH1 0x20 DUP3 DUP5 SUB SLT ISZERO PUSH2 0x1E3 JUMPI PUSH2 0x1E2 PUSH2 0x19C JUMP JUMPDEST JUMPDEST PUSH1 0x0 PUSH2 0x1F1 DUP5 DUP3 DUP6 ADD PUSH2 0x1B8 JUMP JUMPDEST SWAP2 POP POP SWAP3 SWAP2 POP POP JUMP JUMPDEST PUSH32 0x4E487B7100000000000000000000000000000000000000000000000000000000 PUSH1 0x0 MSTORE PUSH1 0x11 PUSH1 0x4 MSTORE PUSH1 0x24 PUSH1 0x0 REVERT JUMPDEST PUSH1 0x0 PUSH2 0x234 DUP3 PUSH2 0x168 JUMP JUMPDEST SWAP2 POP PUSH2 0x23F DUP4 PUSH2 0x168 JUMP JUMPDEST SWAP3 POP DUP3 DUP3 ADD SWAP1 POP DUP1 DUP3 GT ISZERO PUSH2 0x257 JUMPI PUSH2 0x256 PUSH2 0x1FA JUMP JUMPDEST JUMPDEST SWAP3 SWAP2 POP POP JUMP INVALID LOG2 PUSH5 0x6970667358 0x22 SLT KECCAK256 NOT 0xE6 0xCB EXTCODESIZE 0xEE CODESIZE 0xAE PUSH20 0x60F1C914524C81946E9F3203855C6F9E2CBC2490 EXTCODECOPY SWAP13 0xB2 0xE0 PUSH5 0x736F6C6343 STOP ADDMOD SLT STOP CALLER "
				},
				"gasEstimates": {
					"creation": {
						"codeDepositCost": "131800",
						"executionCost": "22283",
						"totalCost": "154083"
					},
					"external": {
						"age()": "2407",
						"dummy()": "infinite",
						"pureFunciton_another(uint256)": "infinite",
						"pureFunciton_one()": "359",
						"simpleFunciton()": "infinite",
						"viewFunction()": "2525"
					}
				},
				"methodIdentifiers": {
					"age()": "262a9dff",
					"dummy()": "32e43a11",
					"pureFunciton_another(uint256)": "67d00ed1",
					"pureFunciton_one()": "47e957ee",
					"simpleFunciton()": "c29dcc80",
					"viewFunction()": "ed36b3d8"
				}
			},
			"storageLayout": {
				"storage": [
					{
						"astId": 4,
						"contract": "7_viewPureSimple.sol:viewPureAndSimple",
						"label": "age",
						"offset": 0,
						"slot": "0",
						"type": "t_uint256"
					}
				],
				"types": {
					"t_uint256": {
						"encoding": "inplace",
						"label": "uint256",
						"numberOfBytes": "32"
					}
				}
			},
			"userdoc": {
				"kind": "user",
				"methods": {},
				"version": 1
			}
		}
	}
}