{
	"29_callingParentFunctionInChild.sol": {
		"B": {
			"abi": [
				{
					"anonymous": false,
					"inputs": [
						{
							"indexed": false,
							"internalType": "string",
							"name": "name",
							"type": "string"
						},
						{
							"indexed": false,
							"internalType": "uint256",
							"name": "age",
							"type": "uint256"
						}
					],
					"name": "log",
					"type": "event"
				},
				{
					"inputs": [],
					"name": "fun1",
					"outputs": [],
					"stateMutability": "nonpayable",
					"type": "function"
				},
				{
					"inputs": [],
					"name": "fun2",
					"outputs": [],
					"stateMutability": "nonpayable",
					"type": "function"
				}
			],
			"devdoc": {
				"kind": "dev",
				"methods": {},
				"version": 1
			},
			"evm": {
				"assembly": "    /* \"29_callingParentFunctionInChild.sol\":436:878  contract B is A{... */\n  mstore(0x40, 0x80)\n  callvalue\n  dup1\n  iszero\n  tag_1\n  jumpi\n  0x00\n  dup1\n  revert\ntag_1:\n  pop\n  dataSize(sub_0)\n  dup1\n  dataOffset(sub_0)\n  0x00\n  codecopy\n  0x00\n  return\nstop\n\nsub_0: assembly {\n        /* \"29_callingParentFunctionInChild.sol\":436:878  contract B is A{... */\n      mstore(0x40, 0x80)\n      callvalue\n      dup1\n      iszero\n      tag_1\n      jumpi\n      0x00\n      dup1\n      revert\n    tag_1:\n      pop\n      jumpi(tag_2, lt(calldatasize, 0x04))\n      shr(0xe0, calldataload(0x00))\n      dup1\n      0x157b5167\n      eq\n      tag_3\n      jumpi\n      dup1\n      0x446a45b7\n      eq\n      tag_4\n      jumpi\n    tag_2:\n      0x00\n      dup1\n      revert\n        /* \"29_callingParentFunctionInChild.sol\":655:875  function fun2() public override virtual{... */\n    tag_3:\n      tag_5\n      tag_6\n      jump\t// in\n    tag_5:\n      stop\n        /* \"29_callingParentFunctionInChild.sol\":458:647  function fun1() public override virtual{... */\n    tag_4:\n      tag_7\n      tag_8\n      jump\t// in\n    tag_7:\n      stop\n        /* \"29_callingParentFunctionInChild.sol\":655:875  function fun2() public override virtual{... */\n    tag_6:\n        /* \"29_callingParentFunctionInChild.sol\":710:743  log(\"From Contract B - fun2\", 23) */\n      0xb60e72ccf6d57ab53eb84d7e94a9545806ed7f93c4d5673f11a64f03471e584e\n        /* \"29_callingParentFunctionInChild.sol\":740:742  23 */\n      0x17\n        /* \"29_callingParentFunctionInChild.sol\":710:743  log(\"From Contract B - fun2\", 23) */\n      mload(0x40)\n      tag_10\n      swap2\n      swap1\n      tag_11\n      jump\t// in\n    tag_10:\n      mload(0x40)\n      dup1\n      swap2\n      sub\n      swap1\n      log1\n        /* \"29_callingParentFunctionInChild.sol\":754:766  super.fun2() */\n      tag_12\n        /* \"29_callingParentFunctionInChild.sol\":754:764  super.fun2 */\n      tag_13\n        /* \"29_callingParentFunctionInChild.sol\":754:766  super.fun2() */\n      jump\t// in\n    tag_12:\n        /* \"29_callingParentFunctionInChild.sol\":655:875  function fun2() public override virtual{... */\n      jump\t// out\n        /* \"29_callingParentFunctionInChild.sol\":458:647  function fun1() public override virtual{... */\n    tag_8:\n        /* \"29_callingParentFunctionInChild.sol\":513:546  log(\"From Contract B - fun1\", 21) */\n      0xb60e72ccf6d57ab53eb84d7e94a9545806ed7f93c4d5673f11a64f03471e584e\n        /* \"29_callingParentFunctionInChild.sol\":543:545  21 */\n      0x15\n        /* \"29_callingParentFunctionInChild.sol\":513:546  log(\"From Contract B - fun1\", 21) */\n      mload(0x40)\n      tag_15\n      swap2\n      swap1\n      tag_16\n      jump\t// in\n    tag_15:\n      mload(0x40)\n      dup1\n      swap2\n      sub\n      swap1\n      log1\n        /* \"29_callingParentFunctionInChild.sol\":558:566  A.fun1() */\n      tag_17\n        /* \"29_callingParentFunctionInChild.sol\":558:564  A.fun1 */\n      tag_18\n        /* \"29_callingParentFunctionInChild.sol\":558:566  A.fun1() */\n      jump\t// in\n    tag_17:\n        /* \"29_callingParentFunctionInChild.sol\":458:647  function fun1() public override virtual{... */\n      jump\t// out\n        /* \"29_callingParentFunctionInChild.sol\":342:429  function fun2() public virtual{... */\n    tag_13:\n        /* \"29_callingParentFunctionInChild.sol\":388:421  log(\"From Contract A - fun2\", 23) */\n      0xb60e72ccf6d57ab53eb84d7e94a9545806ed7f93c4d5673f11a64f03471e584e\n        /* \"29_callingParentFunctionInChild.sol\":418:420  23 */\n      0x17\n        /* \"29_callingParentFunctionInChild.sol\":388:421  log(\"From Contract A - fun2\", 23) */\n      mload(0x40)\n      tag_20\n      swap2\n      swap1\n      tag_21\n      jump\t// in\n    tag_20:\n      mload(0x40)\n      dup1\n      swap2\n      sub\n      swap1\n      log1\n        /* \"29_callingParentFunctionInChild.sol\":342:429  function fun2() public virtual{... */\n      jump\t// out\n        /* \"29_callingParentFunctionInChild.sol\":247:334  function fun1() public virtual{... */\n    tag_18:\n        /* \"29_callingParentFunctionInChild.sol\":293:326  log(\"From Contract A - fun1\", 21) */\n      0xb60e72ccf6d57ab53eb84d7e94a9545806ed7f93c4d5673f11a64f03471e584e\n        /* \"29_callingParentFunctionInChild.sol\":323:325  21 */\n      0x15\n        /* \"29_callingParentFunctionInChild.sol\":293:326  log(\"From Contract A - fun1\", 21) */\n      mload(0x40)\n      tag_23\n      swap2\n      swap1\n      tag_24\n      jump\t// in\n    tag_23:\n      mload(0x40)\n      dup1\n      swap2\n      sub\n      swap1\n      log1\n        /* \"29_callingParentFunctionInChild.sol\":247:334  function fun1() public virtual{... */\n      jump\t// out\n        /* \"#utility.yul\":7:176   */\n    tag_25:\n        /* \"#utility.yul\":91:102   */\n      0x00\n        /* \"#utility.yul\":125:131   */\n      dup3\n        /* \"#utility.yul\":120:123   */\n      dup3\n        /* \"#utility.yul\":113:132   */\n      mstore\n        /* \"#utility.yul\":165:169   */\n      0x20\n        /* \"#utility.yul\":160:163   */\n      dup3\n        /* \"#utility.yul\":156:170   */\n      add\n        /* \"#utility.yul\":141:170   */\n      swap1\n      pop\n        /* \"#utility.yul\":7:176   */\n      swap3\n      swap2\n      pop\n      pop\n      jump\t// out\n        /* \"#utility.yul\":182:354   */\n    tag_26:\n        /* \"#utility.yul\":322:346   */\n      0x46726f6d20436f6e74726163742042202d2066756e3200000000000000000000\n        /* \"#utility.yul\":318:319   */\n      0x00\n        /* \"#utility.yul\":310:316   */\n      dup3\n        /* \"#utility.yul\":306:320   */\n      add\n        /* \"#utility.yul\":299:347   */\n      mstore\n        /* \"#utility.yul\":182:354   */\n      pop\n      jump\t// out\n        /* \"#utility.yul\":360:726   */\n    tag_27:\n        /* \"#utility.yul\":502:505   */\n      0x00\n        /* \"#utility.yul\":523:590   */\n      tag_46\n        /* \"#utility.yul\":587:589   */\n      0x16\n        /* \"#utility.yul\":582:585   */\n      dup4\n        /* \"#utility.yul\":523:590   */\n      tag_25\n      jump\t// in\n    tag_46:\n        /* \"#utility.yul\":516:590   */\n      swap2\n      pop\n        /* \"#utility.yul\":599:692   */\n      tag_47\n        /* \"#utility.yul\":688:691   */\n      dup3\n        /* \"#utility.yul\":599:692   */\n      tag_26\n      jump\t// in\n    tag_47:\n        /* \"#utility.yul\":717:719   */\n      0x20\n        /* \"#utility.yul\":712:715   */\n      dup3\n        /* \"#utility.yul\":708:720   */\n      add\n        /* \"#utility.yul\":701:720   */\n      swap1\n      pop\n        /* \"#utility.yul\":360:726   */\n      swap2\n      swap1\n      pop\n      jump\t// out\n        /* \"#utility.yul\":732:818   */\n    tag_28:\n        /* \"#utility.yul\":778:785   */\n      0x00\n        /* \"#utility.yul\":807:812   */\n      dup2\n        /* \"#utility.yul\":796:812   */\n      swap1\n      pop\n        /* \"#utility.yul\":732:818   */\n      swap2\n      swap1\n      pop\n      jump\t// out\n        /* \"#utility.yul\":824:901   */\n    tag_29:\n        /* \"#utility.yul\":861:868   */\n      0x00\n        /* \"#utility.yul\":890:895   */\n      dup2\n        /* \"#utility.yul\":879:895   */\n      swap1\n      pop\n        /* \"#utility.yul\":824:901   */\n      swap2\n      swap1\n      pop\n      jump\t// out\n        /* \"#utility.yul\":907:967   */\n    tag_30:\n        /* \"#utility.yul\":935:938   */\n      0x00\n        /* \"#utility.yul\":956:961   */\n      dup2\n        /* \"#utility.yul\":949:961   */\n      swap1\n      pop\n        /* \"#utility.yul\":907:967   */\n      swap2\n      swap1\n      pop\n      jump\t// out\n        /* \"#utility.yul\":973:1133   */\n    tag_31:\n        /* \"#utility.yul\":1032:1041   */\n      0x00\n        /* \"#utility.yul\":1065:1127   */\n      tag_52\n        /* \"#utility.yul\":1083:1126   */\n      tag_53\n        /* \"#utility.yul\":1092:1125   */\n      tag_54\n        /* \"#utility.yul\":1119:1124   */\n      dup5\n        /* \"#utility.yul\":1092:1125   */\n      tag_28\n      jump\t// in\n    tag_54:\n        /* \"#utility.yul\":1083:1126   */\n      tag_30\n      jump\t// in\n    tag_53:\n        /* \"#utility.yul\":1065:1127   */\n      tag_29\n      jump\t// in\n    tag_52:\n        /* \"#utility.yul\":1052:1127   */\n      swap1\n      pop\n        /* \"#utility.yul\":973:1133   */\n      swap2\n      swap1\n      pop\n      jump\t// out\n        /* \"#utility.yul\":1139:1288   */\n    tag_32:\n        /* \"#utility.yul\":1235:1281   */\n      tag_56\n        /* \"#utility.yul\":1275:1280   */\n      dup2\n        /* \"#utility.yul\":1235:1281   */\n      tag_31\n      jump\t// in\n    tag_56:\n        /* \"#utility.yul\":1230:1233   */\n      dup3\n        /* \"#utility.yul\":1223:1282   */\n      mstore\n        /* \"#utility.yul\":1139:1288   */\n      pop\n      pop\n      jump\t// out\n        /* \"#utility.yul\":1294:1841   */\n    tag_11:\n        /* \"#utility.yul\":1497:1501   */\n      0x00\n        /* \"#utility.yul\":1535:1537   */\n      0x40\n        /* \"#utility.yul\":1524:1533   */\n      dup3\n        /* \"#utility.yul\":1520:1538   */\n      add\n        /* \"#utility.yul\":1512:1538   */\n      swap1\n      pop\n        /* \"#utility.yul\":1584:1593   */\n      dup2\n        /* \"#utility.yul\":1578:1582   */\n      dup2\n        /* \"#utility.yul\":1574:1594   */\n      sub\n        /* \"#utility.yul\":1570:1571   */\n      0x00\n        /* \"#utility.yul\":1559:1568   */\n      dup4\n        /* \"#utility.yul\":1555:1572   */\n      add\n        /* \"#utility.yul\":1548:1595   */\n      mstore\n        /* \"#utility.yul\":1612:1743   */\n      tag_58\n        /* \"#utility.yul\":1738:1742   */\n      dup2\n        /* \"#utility.yul\":1612:1743   */\n      tag_27\n      jump\t// in\n    tag_58:\n        /* \"#utility.yul\":1604:1743   */\n      swap1\n      pop\n        /* \"#utility.yul\":1753:1834   */\n      tag_59\n        /* \"#utility.yul\":1830:1832   */\n      0x20\n        /* \"#utility.yul\":1819:1828   */\n      dup4\n        /* \"#utility.yul\":1815:1833   */\n      add\n        /* \"#utility.yul\":1806:1812   */\n      dup5\n        /* \"#utility.yul\":1753:1834   */\n      tag_32\n      jump\t// in\n    tag_59:\n        /* \"#utility.yul\":1294:1841   */\n      swap3\n      swap2\n      pop\n      pop\n      jump\t// out\n        /* \"#utility.yul\":1847:2019   */\n    tag_33:\n        /* \"#utility.yul\":1987:2011   */\n      0x46726f6d20436f6e74726163742042202d2066756e3100000000000000000000\n        /* \"#utility.yul\":1983:1984   */\n      0x00\n        /* \"#utility.yul\":1975:1981   */\n      dup3\n        /* \"#utility.yul\":1971:1985   */\n      add\n        /* \"#utility.yul\":1964:2012   */\n      mstore\n        /* \"#utility.yul\":1847:2019   */\n      pop\n      jump\t// out\n        /* \"#utility.yul\":2025:2391   */\n    tag_34:\n        /* \"#utility.yul\":2167:2170   */\n      0x00\n        /* \"#utility.yul\":2188:2255   */\n      tag_62\n        /* \"#utility.yul\":2252:2254   */\n      0x16\n        /* \"#utility.yul\":2247:2250   */\n      dup4\n        /* \"#utility.yul\":2188:2255   */\n      tag_25\n      jump\t// in\n    tag_62:\n        /* \"#utility.yul\":2181:2255   */\n      swap2\n      pop\n        /* \"#utility.yul\":2264:2357   */\n      tag_63\n        /* \"#utility.yul\":2353:2356   */\n      dup3\n        /* \"#utility.yul\":2264:2357   */\n      tag_33\n      jump\t// in\n    tag_63:\n        /* \"#utility.yul\":2382:2384   */\n      0x20\n        /* \"#utility.yul\":2377:2380   */\n      dup3\n        /* \"#utility.yul\":2373:2385   */\n      add\n        /* \"#utility.yul\":2366:2385   */\n      swap1\n      pop\n        /* \"#utility.yul\":2025:2391   */\n      swap2\n      swap1\n      pop\n      jump\t// out\n        /* \"#utility.yul\":2397:2483   */\n    tag_35:\n        /* \"#utility.yul\":2443:2450   */\n      0x00\n        /* \"#utility.yul\":2472:2477   */\n      dup2\n        /* \"#utility.yul\":2461:2477   */\n      swap1\n      pop\n        /* \"#utility.yul\":2397:2483   */\n      swap2\n      swap1\n      pop\n      jump\t// out\n        /* \"#utility.yul\":2489:2649   */\n    tag_36:\n        /* \"#utility.yul\":2548:2557   */\n      0x00\n        /* \"#utility.yul\":2581:2643   */\n      tag_66\n        /* \"#utility.yul\":2599:2642   */\n      tag_67\n        /* \"#utility.yul\":2608:2641   */\n      tag_68\n        /* \"#utility.yul\":2635:2640   */\n      dup5\n        /* \"#utility.yul\":2608:2641   */\n      tag_35\n      jump\t// in\n    tag_68:\n        /* \"#utility.yul\":2599:2642   */\n      tag_30\n      jump\t// in\n    tag_67:\n        /* \"#utility.yul\":2581:2643   */\n      tag_29\n      jump\t// in\n    tag_66:\n        /* \"#utility.yul\":2568:2643   */\n      swap1\n      pop\n        /* \"#utility.yul\":2489:2649   */\n      swap2\n      swap1\n      pop\n      jump\t// out\n        /* \"#utility.yul\":2655:2804   */\n    tag_37:\n        /* \"#utility.yul\":2751:2797   */\n      tag_70\n        /* \"#utility.yul\":2791:2796   */\n      dup2\n        /* \"#utility.yul\":2751:2797   */\n      tag_36\n      jump\t// in\n    tag_70:\n        /* \"#utility.yul\":2746:2749   */\n      dup3\n        /* \"#utility.yul\":2739:2798   */\n      mstore\n        /* \"#utility.yul\":2655:2804   */\n      pop\n      pop\n      jump\t// out\n        /* \"#utility.yul\":2810:3357   */\n    tag_16:\n        /* \"#utility.yul\":3013:3017   */\n      0x00\n        /* \"#utility.yul\":3051:3053   */\n      0x40\n        /* \"#utility.yul\":3040:3049   */\n      dup3\n        /* \"#utility.yul\":3036:3054   */\n      add\n        /* \"#utility.yul\":3028:3054   */\n      swap1\n      pop\n        /* \"#utility.yul\":3100:3109   */\n      dup2\n        /* \"#utility.yul\":3094:3098   */\n      dup2\n        /* \"#utility.yul\":3090:3110   */\n      sub\n        /* \"#utility.yul\":3086:3087   */\n      0x00\n        /* \"#utility.yul\":3075:3084   */\n      dup4\n        /* \"#utility.yul\":3071:3088   */\n      add\n        /* \"#utility.yul\":3064:3111   */\n      mstore\n        /* \"#utility.yul\":3128:3259   */\n      tag_72\n        /* \"#utility.yul\":3254:3258   */\n      dup2\n        /* \"#utility.yul\":3128:3259   */\n      tag_34\n      jump\t// in\n    tag_72:\n        /* \"#utility.yul\":3120:3259   */\n      swap1\n      pop\n        /* \"#utility.yul\":3269:3350   */\n      tag_73\n        /* \"#utility.yul\":3346:3348   */\n      0x20\n        /* \"#utility.yul\":3335:3344   */\n      dup4\n        /* \"#utility.yul\":3331:3349   */\n      add\n        /* \"#utility.yul\":3322:3328   */\n      dup5\n        /* \"#utility.yul\":3269:3350   */\n      tag_37\n      jump\t// in\n    tag_73:\n        /* \"#utility.yul\":2810:3357   */\n      swap3\n      swap2\n      pop\n      pop\n      jump\t// out\n        /* \"#utility.yul\":3363:3535   */\n    tag_38:\n        /* \"#utility.yul\":3503:3527   */\n      0x46726f6d20436f6e74726163742041202d2066756e3200000000000000000000\n        /* \"#utility.yul\":3499:3500   */\n      0x00\n        /* \"#utility.yul\":3491:3497   */\n      dup3\n        /* \"#utility.yul\":3487:3501   */\n      add\n        /* \"#utility.yul\":3480:3528   */\n      mstore\n        /* \"#utility.yul\":3363:3535   */\n      pop\n      jump\t// out\n        /* \"#utility.yul\":3541:3907   */\n    tag_39:\n        /* \"#utility.yul\":3683:3686   */\n      0x00\n        /* \"#utility.yul\":3704:3771   */\n      tag_76\n        /* \"#utility.yul\":3768:3770   */\n      0x16\n        /* \"#utility.yul\":3763:3766   */\n      dup4\n        /* \"#utility.yul\":3704:3771   */\n      tag_25\n      jump\t// in\n    tag_76:\n        /* \"#utility.yul\":3697:3771   */\n      swap2\n      pop\n        /* \"#utility.yul\":3780:3873   */\n      tag_77\n        /* \"#utility.yul\":3869:3872   */\n      dup3\n        /* \"#utility.yul\":3780:3873   */\n      tag_38\n      jump\t// in\n    tag_77:\n        /* \"#utility.yul\":3898:3900   */\n      0x20\n        /* \"#utility.yul\":3893:3896   */\n      dup3\n        /* \"#utility.yul\":3889:3901   */\n      add\n        /* \"#utility.yul\":3882:3901   */\n      swap1\n      pop\n        /* \"#utility.yul\":3541:3907   */\n      swap2\n      swap1\n      pop\n      jump\t// out\n        /* \"#utility.yul\":3913:4460   */\n    tag_21:\n        /* \"#utility.yul\":4116:4120   */\n      0x00\n        /* \"#utility.yul\":4154:4156   */\n      0x40\n        /* \"#utility.yul\":4143:4152   */\n      dup3\n        /* \"#utility.yul\":4139:4157   */\n      add\n        /* \"#utility.yul\":4131:4157   */\n      swap1\n      pop\n        /* \"#utility.yul\":4203:4212   */\n      dup2\n        /* \"#utility.yul\":4197:4201   */\n      dup2\n        /* \"#utility.yul\":4193:4213   */\n      sub\n        /* \"#utility.yul\":4189:4190   */\n      0x00\n        /* \"#utility.yul\":4178:4187   */\n      dup4\n        /* \"#utility.yul\":4174:4191   */\n      add\n        /* \"#utility.yul\":4167:4214   */\n      mstore\n        /* \"#utility.yul\":4231:4362   */\n      tag_79\n        /* \"#utility.yul\":4357:4361   */\n      dup2\n        /* \"#utility.yul\":4231:4362   */\n      tag_39\n      jump\t// in\n    tag_79:\n        /* \"#utility.yul\":4223:4362   */\n      swap1\n      pop\n        /* \"#utility.yul\":4372:4453   */\n      tag_80\n        /* \"#utility.yul\":4449:4451   */\n      0x20\n        /* \"#utility.yul\":4438:4447   */\n      dup4\n        /* \"#utility.yul\":4434:4452   */\n      add\n        /* \"#utility.yul\":4425:4431   */\n      dup5\n        /* \"#utility.yul\":4372:4453   */\n      tag_32\n      jump\t// in\n    tag_80:\n        /* \"#utility.yul\":3913:4460   */\n      swap3\n      swap2\n      pop\n      pop\n      jump\t// out\n        /* \"#utility.yul\":4466:4638   */\n    tag_40:\n        /* \"#utility.yul\":4606:4630   */\n      0x46726f6d20436f6e74726163742041202d2066756e3100000000000000000000\n        /* \"#utility.yul\":4602:4603   */\n      0x00\n        /* \"#utility.yul\":4594:4600   */\n      dup3\n        /* \"#utility.yul\":4590:4604   */\n      add\n        /* \"#utility.yul\":4583:4631   */\n      mstore\n        /* \"#utility.yul\":4466:4638   */\n      pop\n      jump\t// out\n        /* \"#utility.yul\":4644:5010   */\n    tag_41:\n        /* \"#utility.yul\":4786:4789   */\n      0x00\n        /* \"#utility.yul\":4807:4874   */\n      tag_83\n        /* \"#utility.yul\":4871:4873   */\n      0x16\n        /* \"#utility.yul\":4866:4869   */\n      dup4\n        /* \"#utility.yul\":4807:4874   */\n      tag_25\n      jump\t// in\n    tag_83:\n        /* \"#utility.yul\":4800:4874   */\n      swap2\n      pop\n        /* \"#utility.yul\":4883:4976   */\n      tag_84\n        /* \"#utility.yul\":4972:4975   */\n      dup3\n        /* \"#utility.yul\":4883:4976   */\n      tag_40\n      jump\t// in\n    tag_84:\n        /* \"#utility.yul\":5001:5003   */\n      0x20\n        /* \"#utility.yul\":4996:4999   */\n      dup3\n        /* \"#utility.yul\":4992:5004   */\n      add\n        /* \"#utility.yul\":4985:5004   */\n      swap1\n      pop\n        /* \"#utility.yul\":4644:5010   */\n      swap2\n      swap1\n      pop\n      jump\t// out\n        /* \"#utility.yul\":5016:5563   */\n    tag_24:\n        /* \"#utility.yul\":5219:5223   */\n      0x00\n        /* \"#utility.yul\":5257:5259   */\n      0x40\n        /* \"#utility.yul\":5246:5255   */\n      dup3\n        /* \"#utility.yul\":5242:5260   */\n      add\n        /* \"#utility.yul\":5234:5260   */\n      swap1\n      pop\n        /* \"#utility.yul\":5306:5315   */\n      dup2\n        /* \"#utility.yul\":5300:5304   */\n      dup2\n        /* \"#utility.yul\":5296:5316   */\n      sub\n        /* \"#utility.yul\":5292:5293   */\n      0x00\n        /* \"#utility.yul\":5281:5290   */\n      dup4\n        /* \"#utility.yul\":5277:5294   */\n      add\n        /* \"#utility.yul\":5270:5317   */\n      mstore\n        /* \"#utility.yul\":5334:5465   */\n      tag_86\n        /* \"#utility.yul\":5460:5464   */\n      dup2\n        /* \"#utility.yul\":5334:5465   */\n      tag_41\n      jump\t// in\n    tag_86:\n        /* \"#utility.yul\":5326:5465   */\n      swap1\n      pop\n        /* \"#utility.yul\":5475:5556   */\n      tag_87\n        /* \"#utility.yul\":5552:5554   */\n      0x20\n        /* \"#utility.yul\":5541:5550   */\n      dup4\n        /* \"#utility.yul\":5537:5555   */\n      add\n        /* \"#utility.yul\":5528:5534   */\n      dup5\n        /* \"#utility.yul\":5475:5556   */\n      tag_37\n      jump\t// in\n    tag_87:\n        /* \"#utility.yul\":5016:5563   */\n      swap3\n      swap2\n      pop\n      pop\n      jump\t// out\n\n    auxdata: 0xa26469706673582212201f0965cf4f5fa01191ea3eeec1d66328cdb0cd1e836116db27c2a15bccd4929864736f6c63430008120033\n}\n",
				"bytecode": {
					"linkReferences": {},
					"object": "608060405234801561001057600080fd5b50610400806100206000396000f3fe608060405234801561001057600080fd5b50600436106100365760003560e01c8063157b51671461003b578063446a45b714610045575b600080fd5b61004361004f565b005b61004d610091565b005b7fb60e72ccf6d57ab53eb84d7e94a9545806ed7f93c4d5673f11a64f03471e584e601760405161007f91906101f3565b60405180910390a161008f6100d3565b565b7fb60e72ccf6d57ab53eb84d7e94a9545806ed7f93c4d5673f11a64f03471e584e60156040516100c191906102a8565b60405180910390a16100d161010d565b565b7fb60e72ccf6d57ab53eb84d7e94a9545806ed7f93c4d5673f11a64f03471e584e60176040516101039190610322565b60405180910390a1565b7fb60e72ccf6d57ab53eb84d7e94a9545806ed7f93c4d5673f11a64f03471e584e601560405161013d919061039c565b60405180910390a1565b600082825260208201905092915050565b7f46726f6d20436f6e74726163742042202d2066756e3200000000000000000000600082015250565b600061018e601683610147565b915061019982610158565b602082019050919050565b6000819050919050565b6000819050919050565b6000819050919050565b60006101dd6101d86101d3846101a4565b6101b8565b6101ae565b9050919050565b6101ed816101c2565b82525050565b6000604082019050818103600083015261020c81610181565b905061021b60208301846101e4565b92915050565b7f46726f6d20436f6e74726163742042202d2066756e3100000000000000000000600082015250565b6000610257601683610147565b915061026282610221565b602082019050919050565b6000819050919050565b600061029261028d6102888461026d565b6101b8565b6101ae565b9050919050565b6102a281610277565b82525050565b600060408201905081810360008301526102c18161024a565b90506102d06020830184610299565b92915050565b7f46726f6d20436f6e74726163742041202d2066756e3200000000000000000000600082015250565b600061030c601683610147565b9150610317826102d6565b602082019050919050565b6000604082019050818103600083015261033b816102ff565b905061034a60208301846101e4565b92915050565b7f46726f6d20436f6e74726163742041202d2066756e3100000000000000000000600082015250565b6000610386601683610147565b915061039182610350565b602082019050919050565b600060408201905081810360008301526103b581610379565b90506103c46020830184610299565b9291505056fea26469706673582212201f0965cf4f5fa01191ea3eeec1d66328cdb0cd1e836116db27c2a15bccd4929864736f6c63430008120033",
					"opcodes": "PUSH1 0x80 PUSH1 0x40 MSTORE CALLVALUE DUP1 ISZERO PUSH2 0x10 JUMPI PUSH1 0x0 DUP1 REVERT JUMPDEST POP PUSH2 0x400 DUP1 PUSH2 0x20 PUSH1 0x0 CODECOPY PUSH1 0x0 RETURN INVALID PUSH1 0x80 PUSH1 0x40 MSTORE CALLVALUE DUP1 ISZERO PUSH2 0x10 JUMPI PUSH1 0x0 DUP1 REVERT JUMPDEST POP PUSH1 0x4 CALLDATASIZE LT PUSH2 0x36 JUMPI PUSH1 0x0 CALLDATALOAD PUSH1 0xE0 SHR DUP1 PUSH4 0x157B5167 EQ PUSH2 0x3B JUMPI DUP1 PUSH4 0x446A45B7 EQ PUSH2 0x45 JUMPI JUMPDEST PUSH1 0x0 DUP1 REVERT JUMPDEST PUSH2 0x43 PUSH2 0x4F JUMP JUMPDEST STOP JUMPDEST PUSH2 0x4D PUSH2 0x91 JUMP JUMPDEST STOP JUMPDEST PUSH32 0xB60E72CCF6D57AB53EB84D7E94A9545806ED7F93C4D5673F11A64F03471E584E PUSH1 0x17 PUSH1 0x40 MLOAD PUSH2 0x7F SWAP2 SWAP1 PUSH2 0x1F3 JUMP JUMPDEST PUSH1 0x40 MLOAD DUP1 SWAP2 SUB SWAP1 LOG1 PUSH2 0x8F PUSH2 0xD3 JUMP JUMPDEST JUMP JUMPDEST PUSH32 0xB60E72CCF6D57AB53EB84D7E94A9545806ED7F93C4D5673F11A64F03471E584E PUSH1 0x15 PUSH1 0x40 MLOAD PUSH2 0xC1 SWAP2 SWAP1 PUSH2 0x2A8 JUMP JUMPDEST PUSH1 0x40 MLOAD DUP1 SWAP2 SUB SWAP1 LOG1 PUSH2 0xD1 PUSH2 0x10D JUMP JUMPDEST JUMP JUMPDEST PUSH32 0xB60E72CCF6D57AB53EB84D7E94A9545806ED7F93C4D5673F11A64F03471E584E PUSH1 0x17 PUSH1 0x40 MLOAD PUSH2 0x103 SWAP2 SWAP1 PUSH2 0x322 JUMP JUMPDEST PUSH1 0x40 MLOAD DUP1 SWAP2 SUB SWAP1 LOG1 JUMP JUMPDEST PUSH32 0xB60E72CCF6D57AB53EB84D7E94A9545806ED7F93C4D5673F11A64F03471E584E PUSH1 0x15 PUSH1 0x40 MLOAD PUSH2 0x13D SWAP2 SWAP1 PUSH2 0x39C JUMP JUMPDEST PUSH1 0x40 MLOAD DUP1 SWAP2 SUB SWAP1 LOG1 JUMP JUMPDEST PUSH1 0x0 DUP3 DUP3 MSTORE PUSH1 0x20 DUP3 ADD SWAP1 POP SWAP3 SWAP2 POP POP JUMP JUMPDEST PUSH32 0x46726F6D20436F6E74726163742042202D2066756E3200000000000000000000 PUSH1 0x0 DUP3 ADD MSTORE POP JUMP JUMPDEST PUSH1 0x0 PUSH2 0x18E PUSH1 0x16 DUP4 PUSH2 0x147 JUMP JUMPDEST SWAP2 POP PUSH2 0x199 DUP3 PUSH2 0x158 JUMP JUMPDEST PUSH1 0x20 DUP3 ADD SWAP1 POP SWAP2 SWAP1 POP JUMP JUMPDEST PUSH1 0x0 DUP2 SWAP1 POP SWAP2 SWAP1 POP JUMP JUMPDEST PUSH1 0x0 DUP2 SWAP1 POP SWAP2 SWAP1 POP JUMP JUMPDEST PUSH1 0x0 DUP2 SWAP1 POP SWAP2 SWAP1 POP JUMP JUMPDEST PUSH1 0x0 PUSH2 0x1DD PUSH2 0x1D8 PUSH2 0x1D3 DUP5 PUSH2 0x1A4 JUMP JUMPDEST PUSH2 0x1B8 JUMP JUMPDEST PUSH2 0x1AE JUMP JUMPDEST SWAP1 POP SWAP2 SWAP1 POP JUMP JUMPDEST PUSH2 0x1ED DUP2 PUSH2 0x1C2 JUMP JUMPDEST DUP3 MSTORE POP POP JUMP JUMPDEST PUSH1 0x0 PUSH1 0x40 DUP3 ADD SWAP1 POP DUP2 DUP2 SUB PUSH1 0x0 DUP4 ADD MSTORE PUSH2 0x20C DUP2 PUSH2 0x181 JUMP JUMPDEST SWAP1 POP PUSH2 0x21B PUSH1 0x20 DUP4 ADD DUP5 PUSH2 0x1E4 JUMP JUMPDEST SWAP3 SWAP2 POP POP JUMP JUMPDEST PUSH32 0x46726F6D20436F6E74726163742042202D2066756E3100000000000000000000 PUSH1 0x0 DUP3 ADD MSTORE POP JUMP JUMPDEST PUSH1 0x0 PUSH2 0x257 PUSH1 0x16 DUP4 PUSH2 0x147 JUMP JUMPDEST SWAP2 POP PUSH2 0x262 DUP3 PUSH2 0x221 JUMP JUMPDEST PUSH1 0x20 DUP3 ADD SWAP1 POP SWAP2 SWAP1 POP JUMP JUMPDEST PUSH1 0x0 DUP2 SWAP1 POP SWAP2 SWAP1 POP JUMP JUMPDEST PUSH1 0x0 PUSH2 0x292 PUSH2 0x28D PUSH2 0x288 DUP5 PUSH2 0x26D JUMP JUMPDEST PUSH2 0x1B8 JUMP JUMPDEST PUSH2 0x1AE JUMP JUMPDEST SWAP1 POP SWAP2 SWAP1 POP JUMP JUMPDEST PUSH2 0x2A2 DUP2 PUSH2 0x277 JUMP JUMPDEST DUP3 MSTORE POP POP JUMP JUMPDEST PUSH1 0x0 PUSH1 0x40 DUP3 ADD SWAP1 POP DUP2 DUP2 SUB PUSH1 0x0 DUP4 ADD MSTORE PUSH2 0x2C1 DUP2 PUSH2 0x24A JUMP JUMPDEST SWAP1 POP PUSH2 0x2D0 PUSH1 0x20 DUP4 ADD DUP5 PUSH2 0x299 JUMP JUMPDEST SWAP3 SWAP2 POP POP JUMP JUMPDEST PUSH32 0x46726F6D20436F6E74726163742041202D2066756E3200000000000000000000 PUSH1 0x0 DUP3 ADD MSTORE POP JUMP JUMPDEST PUSH1 0x0 PUSH2 0x30C PUSH1 0x16 DUP4 PUSH2 0x147 JUMP JUMPDEST SWAP2 POP PUSH2 0x317 DUP3 PUSH2 0x2D6 JUMP JUMPDEST PUSH1 0x20 DUP3 ADD SWAP1 POP SWAP2 SWAP1 POP JUMP JUMPDEST PUSH1 0x0 PUSH1 0x40 DUP3 ADD SWAP1 POP DUP2 DUP2 SUB PUSH1 0x0 DUP4 ADD MSTORE PUSH2 0x33B DUP2 PUSH2 0x2FF JUMP JUMPDEST SWAP1 POP PUSH2 0x34A PUSH1 0x20 DUP4 ADD DUP5 PUSH2 0x1E4 JUMP JUMPDEST SWAP3 SWAP2 POP POP JUMP JUMPDEST PUSH32 0x46726F6D20436F6E74726163742041202D2066756E3100000000000000000000 PUSH1 0x0 DUP3 ADD MSTORE POP JUMP JUMPDEST PUSH1 0x0 PUSH2 0x386 PUSH1 0x16 DUP4 PUSH2 0x147 JUMP JUMPDEST SWAP2 POP PUSH2 0x391 DUP3 PUSH2 0x350 JUMP JUMPDEST PUSH1 0x20 DUP3 ADD SWAP1 POP SWAP2 SWAP1 POP JUMP JUMPDEST PUSH1 0x0 PUSH1 0x40 DUP3 ADD SWAP1 POP DUP2 DUP2 SUB PUSH1 0x0 DUP4 ADD MSTORE PUSH2 0x3B5 DUP2 PUSH2 0x379 JUMP JUMPDEST SWAP1 POP PUSH2 0x3C4 PUSH1 0x20 DUP4 ADD DUP5 PUSH2 0x299 JUMP JUMPDEST SWAP3 SWAP2 POP POP JUMP INVALID LOG2 PUSH5 0x6970667358 0x22 SLT KECCAK256 0x1F MULMOD PUSH6 0xCF4F5FA01191 0xEA RETURNDATACOPY 0xEE 0xC1 0xD6 PUSH4 0x28CDB0CD 0x1E DUP4 PUSH2 0x16DB 0x27 0xC2 LOG1 JUMPDEST 0xCC 0xD4 SWAP3 SWAP9 PUSH5 0x736F6C6343 STOP ADDMOD SLT STOP CALLER "
				},
				"gasEstimates": {
					"creation": {
						"codeDepositCost": "204800",
						"executionCost": "245",
						"totalCost": "205045"
					},
					"external": {
						"fun1()": "infinite",
						"fun2()": "infinite"
					}
				},
				"methodIdentifiers": {
					"fun1()": "446a45b7",
					"fun2()": "157b5167"
				}
			},
			"storageLayout": {
				"storage": [],
				"types": null
			},
			"userdoc": {
				"kind": "user",
				"methods": {},
				"version": 1
			}
		}
	}
}