{
	"29_callingParentFunctionInChild.sol": {
		"A": {
			"abi": [
				{
					"anonymous": false,
					"inputs": [
						{
							"indexed": false,
							"internalType": "string",
							"name": "name",
							"type": "string"
						},
						{
							"indexed": false,
							"internalType": "uint256",
							"name": "age",
							"type": "uint256"
						}
					],
					"name": "log",
					"type": "event"
				},
				{
					"inputs": [],
					"name": "fun1",
					"outputs": [],
					"stateMutability": "nonpayable",
					"type": "function"
				},
				{
					"inputs": [],
					"name": "fun2",
					"outputs": [],
					"stateMutability": "nonpayable",
					"type": "function"
				}
			],
			"devdoc": {
				"kind": "dev",
				"methods": {},
				"version": 1
			},
			"evm": {
				"assembly": "    /* \"29_callingParentFunctionInChild.sol\":191:432  contract A{... */\n  mstore(0x40, 0x80)\n  callvalue\n  dup1\n  iszero\n  tag_1\n  jumpi\n  0x00\n  dup1\n  revert\ntag_1:\n  pop\n  dataSize(sub_0)\n  dup1\n  dataOffset(sub_0)\n  0x00\n  codecopy\n  0x00\n  return\nstop\n\nsub_0: assembly {\n        /* \"29_callingParentFunctionInChild.sol\":191:432  contract A{... */\n      mstore(0x40, 0x80)\n      callvalue\n      dup1\n      iszero\n      tag_1\n      jumpi\n      0x00\n      dup1\n      revert\n    tag_1:\n      pop\n      jumpi(tag_2, lt(calldatasize, 0x04))\n      shr(0xe0, calldataload(0x00))\n      dup1\n      0x157b5167\n      eq\n      tag_3\n      jumpi\n      dup1\n      0x446a45b7\n      eq\n      tag_4\n      jumpi\n    tag_2:\n      0x00\n      dup1\n      revert\n        /* \"29_callingParentFunctionInChild.sol\":342:429  function fun2() public virtual{... */\n    tag_3:\n      tag_5\n      tag_6\n      jump\t// in\n    tag_5:\n      stop\n        /* \"29_callingParentFunctionInChild.sol\":247:334  function fun1() public virtual{... */\n    tag_4:\n      tag_7\n      tag_8\n      jump\t// in\n    tag_7:\n      stop\n        /* \"29_callingParentFunctionInChild.sol\":342:429  function fun2() public virtual{... */\n    tag_6:\n        /* \"29_callingParentFunctionInChild.sol\":388:421  log(\"From Contract A - fun2\", 23) */\n      0xb60e72ccf6d57ab53eb84d7e94a9545806ed7f93c4d5673f11a64f03471e584e\n        /* \"29_callingParentFunctionInChild.sol\":418:420  23 */\n      0x17\n        /* \"29_callingParentFunctionInChild.sol\":388:421  log(\"From Contract A - fun2\", 23) */\n      mload(0x40)\n      tag_10\n      swap2\n      swap1\n      tag_11\n      jump\t// in\n    tag_10:\n      mload(0x40)\n      dup1\n      swap2\n      sub\n      swap1\n      log1\n        /* \"29_callingParentFunctionInChild.sol\":342:429  function fun2() public virtual{... */\n      jump\t// out\n        /* \"29_callingParentFunctionInChild.sol\":247:334  function fun1() public virtual{... */\n    tag_8:\n        /* \"29_callingParentFunctionInChild.sol\":293:326  log(\"From Contract A - fun1\", 21) */\n      0xb60e72ccf6d57ab53eb84d7e94a9545806ed7f93c4d5673f11a64f03471e584e\n        /* \"29_callingParentFunctionInChild.sol\":323:325  21 */\n      0x15\n        /* \"29_callingParentFunctionInChild.sol\":293:326  log(\"From Contract A - fun1\", 21) */\n      mload(0x40)\n      tag_13\n      swap2\n      swap1\n      tag_14\n      jump\t// in\n    tag_13:\n      mload(0x40)\n      dup1\n      swap2\n      sub\n      swap1\n      log1\n        /* \"29_callingParentFunctionInChild.sol\":247:334  function fun1() public virtual{... */\n      jump\t// out\n        /* \"#utility.yul\":7:176   */\n    tag_15:\n        /* \"#utility.yul\":91:102   */\n      0x00\n        /* \"#utility.yul\":125:131   */\n      dup3\n        /* \"#utility.yul\":120:123   */\n      dup3\n        /* \"#utility.yul\":113:132   */\n      mstore\n        /* \"#utility.yul\":165:169   */\n      0x20\n        /* \"#utility.yul\":160:163   */\n      dup3\n        /* \"#utility.yul\":156:170   */\n      add\n        /* \"#utility.yul\":141:170   */\n      swap1\n      pop\n        /* \"#utility.yul\":7:176   */\n      swap3\n      swap2\n      pop\n      pop\n      jump\t// out\n        /* \"#utility.yul\":182:354   */\n    tag_16:\n        /* \"#utility.yul\":322:346   */\n      0x46726f6d20436f6e74726163742041202d2066756e3200000000000000000000\n        /* \"#utility.yul\":318:319   */\n      0x00\n        /* \"#utility.yul\":310:316   */\n      dup3\n        /* \"#utility.yul\":306:320   */\n      add\n        /* \"#utility.yul\":299:347   */\n      mstore\n        /* \"#utility.yul\":182:354   */\n      pop\n      jump\t// out\n        /* \"#utility.yul\":360:726   */\n    tag_17:\n        /* \"#utility.yul\":502:505   */\n      0x00\n        /* \"#utility.yul\":523:590   */\n      tag_32\n        /* \"#utility.yul\":587:589   */\n      0x16\n        /* \"#utility.yul\":582:585   */\n      dup4\n        /* \"#utility.yul\":523:590   */\n      tag_15\n      jump\t// in\n    tag_32:\n        /* \"#utility.yul\":516:590   */\n      swap2\n      pop\n        /* \"#utility.yul\":599:692   */\n      tag_33\n        /* \"#utility.yul\":688:691   */\n      dup3\n        /* \"#utility.yul\":599:692   */\n      tag_16\n      jump\t// in\n    tag_33:\n        /* \"#utility.yul\":717:719   */\n      0x20\n        /* \"#utility.yul\":712:715   */\n      dup3\n        /* \"#utility.yul\":708:720   */\n      add\n        /* \"#utility.yul\":701:720   */\n      swap1\n      pop\n        /* \"#utility.yul\":360:726   */\n      swap2\n      swap1\n      pop\n      jump\t// out\n        /* \"#utility.yul\":732:818   */\n    tag_18:\n        /* \"#utility.yul\":778:785   */\n      0x00\n        /* \"#utility.yul\":807:812   */\n      dup2\n        /* \"#utility.yul\":796:812   */\n      swap1\n      pop\n        /* \"#utility.yul\":732:818   */\n      swap2\n      swap1\n      pop\n      jump\t// out\n        /* \"#utility.yul\":824:901   */\n    tag_19:\n        /* \"#utility.yul\":861:868   */\n      0x00\n        /* \"#utility.yul\":890:895   */\n      dup2\n        /* \"#utility.yul\":879:895   */\n      swap1\n      pop\n        /* \"#utility.yul\":824:901   */\n      swap2\n      swap1\n      pop\n      jump\t// out\n        /* \"#utility.yul\":907:967   */\n    tag_20:\n        /* \"#utility.yul\":935:938   */\n      0x00\n        /* \"#utility.yul\":956:961   */\n      dup2\n        /* \"#utility.yul\":949:961   */\n      swap1\n      pop\n        /* \"#utility.yul\":907:967   */\n      swap2\n      swap1\n      pop\n      jump\t// out\n        /* \"#utility.yul\":973:1133   */\n    tag_21:\n        /* \"#utility.yul\":1032:1041   */\n      0x00\n        /* \"#utility.yul\":1065:1127   */\n      tag_38\n        /* \"#utility.yul\":1083:1126   */\n      tag_39\n        /* \"#utility.yul\":1092:1125   */\n      tag_40\n        /* \"#utility.yul\":1119:1124   */\n      dup5\n        /* \"#utility.yul\":1092:1125   */\n      tag_18\n      jump\t// in\n    tag_40:\n        /* \"#utility.yul\":1083:1126   */\n      tag_20\n      jump\t// in\n    tag_39:\n        /* \"#utility.yul\":1065:1127   */\n      tag_19\n      jump\t// in\n    tag_38:\n        /* \"#utility.yul\":1052:1127   */\n      swap1\n      pop\n        /* \"#utility.yul\":973:1133   */\n      swap2\n      swap1\n      pop\n      jump\t// out\n        /* \"#utility.yul\":1139:1288   */\n    tag_22:\n        /* \"#utility.yul\":1235:1281   */\n      tag_42\n        /* \"#utility.yul\":1275:1280   */\n      dup2\n        /* \"#utility.yul\":1235:1281   */\n      tag_21\n      jump\t// in\n    tag_42:\n        /* \"#utility.yul\":1230:1233   */\n      dup3\n        /* \"#utility.yul\":1223:1282   */\n      mstore\n        /* \"#utility.yul\":1139:1288   */\n      pop\n      pop\n      jump\t// out\n        /* \"#utility.yul\":1294:1841   */\n    tag_11:\n        /* \"#utility.yul\":1497:1501   */\n      0x00\n        /* \"#utility.yul\":1535:1537   */\n      0x40\n        /* \"#utility.yul\":1524:1533   */\n      dup3\n        /* \"#utility.yul\":1520:1538   */\n      add\n        /* \"#utility.yul\":1512:1538   */\n      swap1\n      pop\n        /* \"#utility.yul\":1584:1593   */\n      dup2\n        /* \"#utility.yul\":1578:1582   */\n      dup2\n        /* \"#utility.yul\":1574:1594   */\n      sub\n        /* \"#utility.yul\":1570:1571   */\n      0x00\n        /* \"#utility.yul\":1559:1568   */\n      dup4\n        /* \"#utility.yul\":1555:1572   */\n      add\n        /* \"#utility.yul\":1548:1595   */\n      mstore\n        /* \"#utility.yul\":1612:1743   */\n      tag_44\n        /* \"#utility.yul\":1738:1742   */\n      dup2\n        /* \"#utility.yul\":1612:1743   */\n      tag_17\n      jump\t// in\n    tag_44:\n        /* \"#utility.yul\":1604:1743   */\n      swap1\n      pop\n        /* \"#utility.yul\":1753:1834   */\n      tag_45\n        /* \"#utility.yul\":1830:1832   */\n      0x20\n        /* \"#utility.yul\":1819:1828   */\n      dup4\n        /* \"#utility.yul\":1815:1833   */\n      add\n        /* \"#utility.yul\":1806:1812   */\n      dup5\n        /* \"#utility.yul\":1753:1834   */\n      tag_22\n      jump\t// in\n    tag_45:\n        /* \"#utility.yul\":1294:1841   */\n      swap3\n      swap2\n      pop\n      pop\n      jump\t// out\n        /* \"#utility.yul\":1847:2019   */\n    tag_23:\n        /* \"#utility.yul\":1987:2011   */\n      0x46726f6d20436f6e74726163742041202d2066756e3100000000000000000000\n        /* \"#utility.yul\":1983:1984   */\n      0x00\n        /* \"#utility.yul\":1975:1981   */\n      dup3\n        /* \"#utility.yul\":1971:1985   */\n      add\n        /* \"#utility.yul\":1964:2012   */\n      mstore\n        /* \"#utility.yul\":1847:2019   */\n      pop\n      jump\t// out\n        /* \"#utility.yul\":2025:2391   */\n    tag_24:\n        /* \"#utility.yul\":2167:2170   */\n      0x00\n        /* \"#utility.yul\":2188:2255   */\n      tag_48\n        /* \"#utility.yul\":2252:2254   */\n      0x16\n        /* \"#utility.yul\":2247:2250   */\n      dup4\n        /* \"#utility.yul\":2188:2255   */\n      tag_15\n      jump\t// in\n    tag_48:\n        /* \"#utility.yul\":2181:2255   */\n      swap2\n      pop\n        /* \"#utility.yul\":2264:2357   */\n      tag_49\n        /* \"#utility.yul\":2353:2356   */\n      dup3\n        /* \"#utility.yul\":2264:2357   */\n      tag_23\n      jump\t// in\n    tag_49:\n        /* \"#utility.yul\":2382:2384   */\n      0x20\n        /* \"#utility.yul\":2377:2380   */\n      dup3\n        /* \"#utility.yul\":2373:2385   */\n      add\n        /* \"#utility.yul\":2366:2385   */\n      swap1\n      pop\n        /* \"#utility.yul\":2025:2391   */\n      swap2\n      swap1\n      pop\n      jump\t// out\n        /* \"#utility.yul\":2397:2483   */\n    tag_25:\n        /* \"#utility.yul\":2443:2450   */\n      0x00\n        /* \"#utility.yul\":2472:2477   */\n      dup2\n        /* \"#utility.yul\":2461:2477   */\n      swap1\n      pop\n        /* \"#utility.yul\":2397:2483   */\n      swap2\n      swap1\n      pop\n      jump\t// out\n        /* \"#utility.yul\":2489:2649   */\n    tag_26:\n        /* \"#utility.yul\":2548:2557   */\n      0x00\n        /* \"#utility.yul\":2581:2643   */\n      tag_52\n        /* \"#utility.yul\":2599:2642   */\n      tag_53\n        /* \"#utility.yul\":2608:2641   */\n      tag_54\n        /* \"#utility.yul\":2635:2640   */\n      dup5\n        /* \"#utility.yul\":2608:2641   */\n      tag_25\n      jump\t// in\n    tag_54:\n        /* \"#utility.yul\":2599:2642   */\n      tag_20\n      jump\t// in\n    tag_53:\n        /* \"#utility.yul\":2581:2643   */\n      tag_19\n      jump\t// in\n    tag_52:\n        /* \"#utility.yul\":2568:2643   */\n      swap1\n      pop\n        /* \"#utility.yul\":2489:2649   */\n      swap2\n      swap1\n      pop\n      jump\t// out\n        /* \"#utility.yul\":2655:2804   */\n    tag_27:\n        /* \"#utility.yul\":2751:2797   */\n      tag_56\n        /* \"#utility.yul\":2791:2796   */\n      dup2\n        /* \"#utility.yul\":2751:2797   */\n      tag_26\n      jump\t// in\n    tag_56:\n        /* \"#utility.yul\":2746:2749   */\n      dup3\n        /* \"#utility.yul\":2739:2798   */\n      mstore\n        /* \"#utility.yul\":2655:2804   */\n      pop\n      pop\n      jump\t// out\n        /* \"#utility.yul\":2810:3357   */\n    tag_14:\n        /* \"#utility.yul\":3013:3017   */\n      0x00\n        /* \"#utility.yul\":3051:3053   */\n      0x40\n        /* \"#utility.yul\":3040:3049   */\n      dup3\n        /* \"#utility.yul\":3036:3054   */\n      add\n        /* \"#utility.yul\":3028:3054   */\n      swap1\n      pop\n        /* \"#utility.yul\":3100:3109   */\n      dup2\n        /* \"#utility.yul\":3094:3098   */\n      dup2\n        /* \"#utility.yul\":3090:3110   */\n      sub\n        /* \"#utility.yul\":3086:3087   */\n      0x00\n        /* \"#utility.yul\":3075:3084   */\n      dup4\n        /* \"#utility.yul\":3071:3088   */\n      add\n        /* \"#utility.yul\":3064:3111   */\n      mstore\n        /* \"#utility.yul\":3128:3259   */\n      tag_58\n        /* \"#utility.yul\":3254:3258   */\n      dup2\n        /* \"#utility.yul\":3128:3259   */\n      tag_24\n      jump\t// in\n    tag_58:\n        /* \"#utility.yul\":3120:3259   */\n      swap1\n      pop\n        /* \"#utility.yul\":3269:3350   */\n      tag_59\n        /* \"#utility.yul\":3346:3348   */\n      0x20\n        /* \"#utility.yul\":3335:3344   */\n      dup4\n        /* \"#utility.yul\":3331:3349   */\n      add\n        /* \"#utility.yul\":3322:3328   */\n      dup5\n        /* \"#utility.yul\":3269:3350   */\n      tag_27\n      jump\t// in\n    tag_59:\n        /* \"#utility.yul\":2810:3357   */\n      swap3\n      swap2\n      pop\n      pop\n      jump\t// out\n\n    auxdata: 0xa2646970667358221220c7d61ebbc7cb31bf9643e94b54714c4edc0519b3b807ae3932ec2aa8cbdcc7f264736f6c63430008120033\n}\n",
				"bytecode": {
					"linkReferences": {},
					"object": "608060405234801561001057600080fd5b50610288806100206000396000f3fe608060405234801561001057600080fd5b50600436106100365760003560e01c8063157b51671461003b578063446a45b714610045575b600080fd5b61004361004f565b005b61004d610089565b005b7fb60e72ccf6d57ab53eb84d7e94a9545806ed7f93c4d5673f11a64f03471e584e601760405161007f919061016f565b60405180910390a1565b7fb60e72ccf6d57ab53eb84d7e94a9545806ed7f93c4d5673f11a64f03471e584e60156040516100b99190610224565b60405180910390a1565b600082825260208201905092915050565b7f46726f6d20436f6e74726163742041202d2066756e3200000000000000000000600082015250565b600061010a6016836100c3565b9150610115826100d4565b602082019050919050565b6000819050919050565b6000819050919050565b6000819050919050565b600061015961015461014f84610120565b610134565b61012a565b9050919050565b6101698161013e565b82525050565b60006040820190508181036000830152610188816100fd565b90506101976020830184610160565b92915050565b7f46726f6d20436f6e74726163742041202d2066756e3100000000000000000000600082015250565b60006101d36016836100c3565b91506101de8261019d565b602082019050919050565b6000819050919050565b600061020e610209610204846101e9565b610134565b61012a565b9050919050565b61021e816101f3565b82525050565b6000604082019050818103600083015261023d816101c6565b905061024c6020830184610215565b9291505056fea2646970667358221220c7d61ebbc7cb31bf9643e94b54714c4edc0519b3b807ae3932ec2aa8cbdcc7f264736f6c63430008120033",
					"opcodes": "PUSH1 0x80 PUSH1 0x40 MSTORE CALLVALUE DUP1 ISZERO PUSH2 0x10 JUMPI PUSH1 0x0 DUP1 REVERT JUMPDEST POP PUSH2 0x288 DUP1 PUSH2 0x20 PUSH1 0x0 CODECOPY PUSH1 0x0 RETURN INVALID PUSH1 0x80 PUSH1 0x40 MSTORE CALLVALUE DUP1 ISZERO PUSH2 0x10 JUMPI PUSH1 0x0 DUP1 REVERT JUMPDEST POP PUSH1 0x4 CALLDATASIZE LT PUSH2 0x36 JUMPI PUSH1 0x0 CALLDATALOAD PUSH1 0xE0 SHR DUP1 PUSH4 0x157B5167 EQ PUSH2 0x3B JUMPI DUP1 PUSH4 0x446A45B7 EQ PUSH2 0x45 JUMPI JUMPDEST PUSH1 0x0 DUP1 REVERT JUMPDEST PUSH2 0x43 PUSH2 0x4F JUMP JUMPDEST STOP JUMPDEST PUSH2 0x4D PUSH2 0x89 JUMP JUMPDEST STOP JUMPDEST PUSH32 0xB60E72CCF6D57AB53EB84D7E94A9545806ED7F93C4D5673F11A64F03471E584E PUSH1 0x17 PUSH1 0x40 MLOAD PUSH2 0x7F SWAP2 SWAP1 PUSH2 0x16F JUMP JUMPDEST PUSH1 0x40 MLOAD DUP1 SWAP2 SUB SWAP1 LOG1 JUMP JUMPDEST PUSH32 0xB60E72CCF6D57AB53EB84D7E94A9545806ED7F93C4D5673F11A64F03471E584E PUSH1 0x15 PUSH1 0x40 MLOAD PUSH2 0xB9 SWAP2 SWAP1 PUSH2 0x224 JUMP JUMPDEST PUSH1 0x40 MLOAD DUP1 SWAP2 SUB SWAP1 LOG1 JUMP JUMPDEST PUSH1 0x0 DUP3 DUP3 MSTORE PUSH1 0x20 DUP3 ADD SWAP1 POP SWAP3 SWAP2 POP POP JUMP JUMPDEST PUSH32 0x46726F6D20436F6E74726163742041202D2066756E3200000000000000000000 PUSH1 0x0 DUP3 ADD MSTORE POP JUMP JUMPDEST PUSH1 0x0 PUSH2 0x10A PUSH1 0x16 DUP4 PUSH2 0xC3 JUMP JUMPDEST SWAP2 POP PUSH2 0x115 DUP3 PUSH2 0xD4 JUMP JUMPDEST PUSH1 0x20 DUP3 ADD SWAP1 POP SWAP2 SWAP1 POP JUMP JUMPDEST PUSH1 0x0 DUP2 SWAP1 POP SWAP2 SWAP1 POP JUMP JUMPDEST PUSH1 0x0 DUP2 SWAP1 POP SWAP2 SWAP1 POP JUMP JUMPDEST PUSH1 0x0 DUP2 SWAP1 POP SWAP2 SWAP1 POP JUMP JUMPDEST PUSH1 0x0 PUSH2 0x159 PUSH2 0x154 PUSH2 0x14F DUP5 PUSH2 0x120 JUMP JUMPDEST PUSH2 0x134 JUMP JUMPDEST PUSH2 0x12A JUMP JUMPDEST SWAP1 POP SWAP2 SWAP1 POP JUMP JUMPDEST PUSH2 0x169 DUP2 PUSH2 0x13E JUMP JUMPDEST DUP3 MSTORE POP POP JUMP JUMPDEST PUSH1 0x0 PUSH1 0x40 DUP3 ADD SWAP1 POP DUP2 DUP2 SUB PUSH1 0x0 DUP4 ADD MSTORE PUSH2 0x188 DUP2 PUSH2 0xFD JUMP JUMPDEST SWAP1 POP PUSH2 0x197 PUSH1 0x20 DUP4 ADD DUP5 PUSH2 0x160 JUMP JUMPDEST SWAP3 SWAP2 POP POP JUMP JUMPDEST PUSH32 0x46726F6D20436F6E74726163742041202D2066756E3100000000000000000000 PUSH1 0x0 DUP3 ADD MSTORE POP JUMP JUMPDEST PUSH1 0x0 PUSH2 0x1D3 PUSH1 0x16 DUP4 PUSH2 0xC3 JUMP JUMPDEST SWAP2 POP PUSH2 0x1DE DUP3 PUSH2 0x19D JUMP JUMPDEST PUSH1 0x20 DUP3 ADD SWAP1 POP SWAP2 SWAP1 POP JUMP JUMPDEST PUSH1 0x0 DUP2 SWAP1 POP SWAP2 SWAP1 POP JUMP JUMPDEST PUSH1 0x0 PUSH2 0x20E PUSH2 0x209 PUSH2 0x204 DUP5 PUSH2 0x1E9 JUMP JUMPDEST PUSH2 0x134 JUMP JUMPDEST PUSH2 0x12A JUMP JUMPDEST SWAP1 POP SWAP2 SWAP1 POP JUMP JUMPDEST PUSH2 0x21E DUP2 PUSH2 0x1F3 JUMP JUMPDEST DUP3 MSTORE POP POP JUMP JUMPDEST PUSH1 0x0 PUSH1 0x40 DUP3 ADD SWAP1 POP DUP2 DUP2 SUB PUSH1 0x0 DUP4 ADD MSTORE PUSH2 0x23D DUP2 PUSH2 0x1C6 JUMP JUMPDEST SWAP1 POP PUSH2 0x24C PUSH1 0x20 DUP4 ADD DUP5 PUSH2 0x215 JUMP JUMPDEST SWAP3 SWAP2 POP POP JUMP INVALID LOG2 PUSH5 0x6970667358 0x22 SLT KECCAK256 0xC7 0xD6 0x1E 0xBB 0xC7 0xCB BALANCE 0xBF SWAP7 NUMBER 0xE9 0x4B SLOAD PUSH18 0x4C4EDC0519B3B807AE3932EC2AA8CBDCC7F2 PUSH5 0x736F6C6343 STOP ADDMOD SLT STOP CALLER "
				},
				"gasEstimates": {
					"creation": {
						"codeDepositCost": "129600",
						"executionCost": "177",
						"totalCost": "129777"
					},
					"external": {
						"fun1()": "2434",
						"fun2()": "2412"
					}
				},
				"methodIdentifiers": {
					"fun1()": "446a45b7",
					"fun2()": "157b5167"
				}
			},
			"storageLayout": {
				"storage": [],
				"types": null
			},
			"userdoc": {
				"kind": "user",
				"methods": {},
				"version": 1
			}
		}
	}
}